:020000040800F2
:10000000D04700200565000825670008276700081D
:100010002B6700082F670008336700080000000006
:10002000000000000000000000000000376700082A
:1000300039670008000000003B6700083D670008C2
:100040001F6500081F6500081F6500086B1B00087E
:100050001F6500081F6500081F6500081F65000870
:100060001F6500081F6500081F6500081F65000860
:100070001F6500081F6500081F6500081F65000850
:100080001F6500081F6500081F6500081F65000840
:100090001F6500081F6500081F6500081F65000830
:1000A0001F6500081F6500081F6500081F65000820
:1000B0001F6500089B0500081F6500081F650008F4
:1000C0001F6500081F6500081F6500081F65000800
:1000D0001F650008150D00081F6500081F65000852
:1000E0001F6500081F6500081F65000800F002F882
:1000F00000F05EF80AA090E8000C82448344AAF164
:100100000107DA4501D100F053F8AFF2090EBAE861
:100110000F0013F0010F18BFFB1A43F0010318473B
:10012000DC920000FC92000010F8013B0A4413F03E
:10013000030408BF10F8014B1D1108BF10F8015B44
:10014000641E05D010F8016B641E01F8016BF9D133
:10015000002D15D010F8014B03F00C030C2BA1EB74
:1001600004040ABF10F8013BA4EB8314A4EB03249E
:1001700005F1010314F8016B5B1E01F8016BF9D561
:10018000914238BF10F8013BD1D3704700230024BF
:1001900000250026103A28BF78C1FBD8520728BF97
:1001A00030C148BF0B6070471FB51FBD10B510BDF3
:1001B00006F0FAFA1146FFF7F7FF00F015F806F01F
:1001C00018FB03B4FFF7F2FF03BC06F01DFB0000B1
:1001D0006649096801606549091D0968416063490C
:1001E0000831096881607047002406F01AFA482037
:1001F00001F0C2FA00F0ECF803F0C6FE03F0DEFEF8
:100200004FF47A705A4908805A4A0021084603F090
:10021000C9FF01F0F7F901F047F84FF4165000F06C
:1002200019FD02F003F9534A0021084601F0E8FCE9
:1002300051A20821032001F0E3FC524A00210846A4
:1002400003F0B0FF01F034FC4FF4E1510A2000F05C
:1002500082F900F062F900BF06E000204A49085523
:100260004A490855601CC4B2802CF6DB002407E024
:10027000474830F83400474921F81400601CC4B2E4
:100280003C2CF5DB45F65A204249A1F87800394A62
:100290000021084601F0B4FC3FA20821032001F030
:1002A000AFFC384A0021084603F07CFF01203E499C
:1002B000087013E03D48007801280DD100203B492B
:1002C00008703448B0F878103C2000F0BCFD384885
:1002D0000068401C3649086000F04FFE3248007844
:1002E0000128E7D0234A0021084601F089FC31A209
:1002F0000821032001F084FC224A0021084603F073
:1003000051FF01202F49087010E02848007801288B
:100310000AD10020254908703D2100F0CBFD24487A
:100320000068401C2249086000F027FE254800783C
:100330000128EAD040F2E7300D4908800120224927
:10034000087012E02148007880F001001F49087011
:1003500001F027FD0E48B0F8D801012805D1002092
:100360000B49A1F8D80100F0EBFEEBE7E8F7FF1F1F
:100370006E380020E0370020727463B3F5CABCBB4E
:10038000AF000000F6400020203900201A3A00207B
:10039000FC3E0020143B0020CDA8D0C5CED5CAD647
:1003A0002020202020200000C0010020400000204C
:1003B00050000020CFB5CDB3B2CECAFDB3F5CABC54
:1003C000BBAF0000C101002045000020000000205C
:1003D0003348806940F00400314988614FF0333080
:1003E00030490860081D00682F4908402D49091D43
:1003F0000860084600682D4908432A49091D08601D
:10040000002028490C3108602548806940F0080028
:100410002349886126480068264908402449086025
:10042000084600682449084321490860081D0068FF
:1004300000F47F40091D0860084600681F49084312
:100440001B49091D0860002019490C310860144837
:10045000806940F010001249886119481949086004
:10046000194848600020C8600D48806940F02000AD
:100470000B4988611548006820F4706013490860D2
:100480000846006840F44070086010480C3000686E
:100490004FF6FB7108400D490C31086070470000B1
:1004A00000100240000801400FF00F00033003006D
:1004B000000C014000FF0FFF3800300033003333E1
:1004C00033333388001001408888333300140140EF
:1004D00010B501460020A0201BE0F94A32F8102098
:1004E0008A4214DCF64A32F810208A4200D112E027
:1004F000F34A32F81020531AF14C421C34F81220FF
:10050000521A934200DC06E0421CD0B203E0421EC5
:10051000D0B20028E1DC00BF10BD08B525208DF861
:10052000000003208DF801008DF8020001208DF8F5
:100530000300684603F057FF1D208DF800000020DF
:100540008DF8010001208DF802008DF80300684647
:1005500003F049FF08BD3EB505460C4601210220C7
:1005600004F04DFB681E80B2ADF80400601E80B23E
:10057000ADF800000020ADF80600ADF802006946B5
:10058000D04804F00BFD01224121CE4805F07DF852
:100590000121CC4805F05EF83EBD10B50121C948E7
:1005A00005F021FB00286FD00121C64805F02CFB87
:1005B000C548007801281AD1C4480088401CC349A6
:1005C000088008460088642802D10120C0490870CC
:1005D000BE480088C82802D10120BE490870BB4827
:1005E0000088C82812DD0020B84908800EE0BA480B
:1005F0000088401CB849088008460088B0F5967FFE
:1006000004D1002008800120B4490870B448018852
:100610000088401CB24A1080B1F57A7F05DB0020CB
:10062000114608800120AF490870AF480188008852
:10063000401CAD4A1080B1F5FA6F05DB0020114671
:1006400008800120A9490870A94801880088401C39
:10065000A74A108041F28830814208DB0020114611
:1006600008800120A34908700020A3490870A3480E
:1006700001680068401CA14A1060B1F5FA7F04D8F7
:1006800000209F49087003E0A2E201209C49087005
:100690009A480068B0F57A7F02D90020974908602F
:1006A00003F084FE03F0BCFA96480078002805DDCC
:1006B00000209449087001209349087092480078FE
:1006C000012810D100209149086091480078401C11
:1006D0008F490870084600781E280ADB0020087041
:1006E0008949087005E00020894908700120874980
:1006F000086088480078C0B1874801880088401C9D
:10070000854A1080B1F57A7F02DB0020114608800F
:1007100081480088B0F5FA7F03DA01207F4908702C
:1007200008E000207D49087004E000207A49088034
:100730007A49087001F0C0FE7948007820B10020A5
:10074000774908706A49088076480078012817D1EF
:1007500075480068401C7449086008460068012814
:1007600003D14FF4165000F075FA6F48006841F25B
:100770008831884204D300206B49086069490870B9
:100780006A48B0F8A600D0B96948008840F2E7315D
:10079000884222D167480078102806D10020654998
:1007A000087001206449087017E0624800780F283B
:1007B00013D100205F4908705F4908700DE00020E8
:1007C0005D4908705B480078102803D059480078CC
:1007D0000F2802D100205749087057480078012897
:1007E00003D15249A1F87A0003E000204F49A1F853
:1007F0007A005248B0F87A004C49B1F87A10884231
:1008000002D001204E4908702F480078012840D1BD
:1008100030480078012821D100202E49087000F0CE
:10082000ACFB4748007801280BD14048B0F87A105B
:100830003D2000F008FB43480068401C4149086027
:100840000CE041480078012808D102215A2000F02C
:1008500031FB3C480068401C3A4908601C4800785D
:10086000012816D100201A49087000F086FB344890
:10087000007870B93448007858B916213E2000F04D
:10088000ABFA32480068401C30490860012030490A
:1008900008702F480078012860D12E480088401C3D
:1008A0002C4908800846008840F6B83188425ADB57
:1008B000481C2849088001202749087053E04DE072
:1008C0005C0000200004004045000020A201002040
:1008D0003E0000203F000020A60100204000002034
:1008E000A001002042000020A801002041000020BB
:1008F000A401002043000020B0380020AC010020FB
:1009000044000020AF3800203A000020A08121429E
:10091000B001002038000020B20100203900002082
:10092000AD380020CC010020B8010020143B00208D
:100930006E380020AE3800209E010020083D0020C7
:10094000C001002050000020C1010020480000200C
:100950005A000020B40100204600002000209D49DC
:1009600008809D4908709D4890F8A4009C49087033
:100970009A48B0F892009B490880984890F89400F3
:1009800000F0010098490860944890F89400C0F382
:100990004100964908609148B0F898009449086071
:1009A0008E48B0F89A00934908608C48B0F8A400CB
:1009B000914908608948B0F87C00904908808748D0
:1009C000B0F87E008E4908808448B0F880008D49D8
:1009D00008808248B0F882008B4908807F48B0F8D0
:1009E00084008A4908807D48B0F8860088490880DC
:1009F0007A48B0F88800874908807848B0F88A00BB
:100A0000854908807548B0F88C008449088073488F
:100A1000B0F88E00824908807048B0F89000814993
:100A2000088076480088B0F54D7F06DB7348008863
:100A3000A0F233307149088002E000206F4908803D
:100A40006E4800881421B0FBF1F0774908806D48AA
:100A50000088FFF73DFD754908806C480088B0F5B7
:100A6000006F06DB69480088A0F5006067490880D0
:100A700005E066480088C0F5006064490880644865
:100A80000088B0F5006F06DB61480088A0F50060C3
:100A90005F49088005E05E480088C0F500605C4959
:100AA00008805A48008841F288314843C0F30F302B
:100AB0005F4908805648008841F288314843C0F3B6
:100AC0000F305C49088053480088B0F5006F06DBA2
:100AD00050480088A0F500604E49088008E04D4865
:100AE0000088C0F500604B49088001205249087019
:100AF00049480088B0F5006F06DB47480088A0F53C
:100B000000604549088008E043480088C0F500605F
:100B1000414908800120494908703E4800884FF447
:100B2000C8714843000B464908803B4800884FF491
:100B3000C8714843000B4349088038480088C828DA
:100B400005DB36480088C8383449088005E033485A
:100B50000088C0F1C8003149088031480088C828A1
:100B600005DB2F480088C8382D49088005E02C484F
:100B70000088C0F1C8002A4908802A480088C8288F
:100B800005DB28480088C8382649088005E0254844
:100B90000088C0F1C800234908802048008842F23C
:100BA00022414843C0F30F30274908801C48008881
:100BB00042F222414843C0F30F30244908801948CB
:100BC000008842F222414843C0F30F302049088098
:100BD00010BD0000B401002046000020143B00209E
:100BE00047000020F03800202804002038040020AE
:100BF0002C040020300400203404002004000020D5
:100C000006000020080000200A0000200C00002040
:100C10000E00002012000020140000201800002008
:100C20001A0000201C0000201E00002020000020D0
:100C30002200002024000020340000203500002085
:100C4000280000202A0000202E0000203000002074
:100C50003200002010B586B00446012144F20500A0
:100C600003F0C0FF4FF40070ADF8140003208DF8BE
:100C7000160018208DF8170005A9FE4805F0F4FAB3
:100C80004FF48060ADF8140004208DF8170005A91A
:100C9000F84805F0E9FA25208DF8000003208DF8CA
:100CA00001008DF8020001208DF80300684603F072
:100CB0009AFB01940020ADF80800ADF80A00ADF8E9
:100CC0000C00ADF810000C20ADF80E0001A9EA48A8
:100CD00004F0E1FF0020E9490870E94800684FF698
:100CE000FF510840E649086042F2107000F096FD9E
:100CF000002240F22771E04805F065F8012240F239
:100D00002551DD4805F05FF80121DB4805F04FF87B
:100D100006B010BD10B5DB480078401CD9490870FA
:100D200008460078642804DB002008700120D649BA
:100D3000087040F22551D04805F02AF9B0B10020E2
:100D4000D0490870D148007864280CDACA4805F008
:100D50009FF8C1B2CD4802780078401CCB4B187088
:100D6000CB48815402E00020C849087040F2277146
:100D7000C14805F00DF970B30020C2490870BF48A2
:100D80000078C449097888420BDCBC4802780078B6
:100D9000401CBA4B1870C048815CB74805F074F825
:100DA00019E00020B5490870B54800684FF6FF51BA
:100DB0000840B349086042F2107000F02FFD002295
:100DC00040F22771AC4804F0FEFF012240F22551A9
:100DD000A94804F0F8FF10BD70B504460D46002682
:100DE000AE480078AC49087003204870200A88702B
:100DF000CC70280A08714D710620A6490870084673
:100E00000178A54802F0FCFF0646300AA249887125
:100E1000CE7108209F4908709948006840F400701E
:100E20009749086042F2107000F0F8FC002240F28E
:100E30002551914804F0C7FF012240F227718E48E6
:100E400004F0C1FF70BD70B504460D4600269348FE
:100E500000789149087006204870200A8870CC708C
:100E6000280A08714D7106208A49087008460178E1
:100E7000894802F0C5FF0646300A87498871CE715D
:100E80000820844908707E48006840F400707C495E
:100E9000086042F2107000F0C1FC002240F22551BF
:100EA000754804F090FF012240F22771724804F067
:100EB0008AFF70BD2DE9F04106460D46002700244B
:100EC000764800787449087010204870300A88709D
:100ED000CE70280A08714D716806000E88710720CF
:100EE0006C49087000BF13E030196D4931F81000EB
:100EF000000A072101EB4401674A50543019684940
:100F000011F81000082101EB44015054601CC4B2D8
:100F1000AC42E9DB5F48007800EB45005D490870B2
:100F2000084601785C4802F06BFF0746390A5A48C8
:100F3000584A12788154024656480078401C17548B
:100F400054480078801C534908704D48006840F4AC
:100F500000704B49086042F2107000F05FFC002204
:100F600040F22551444804F02EFF012240F227713F
:100F7000414804F028FFBDE8F0812DE9F047002446
:100F8000A046A146002641480078042870DD40486C
:100F90004078032804D0062844D0102869D196E070
:100FA0003B4885788078471038480178681D814231
:100FB00037DB374800783949097888422ED1E91C57
:100FC000334802F01DFF06463149281D095C304AAE
:100FD000E81C105C01EB0020B0421FD1002413E09C
:100FE000042000EB44002A49085C032101EB440182
:100FF000274A515C00EB012081B204F13E00284AEF
:1010000022F81010601CC4B2BC42E9DB254800681D
:10101000401C2449086000202349087000201B4917
:1010200008707BE01948007808284FDB18480078E2
:101030001A490978884246D10621154802F0E0FE97
:1010400006461348C0791249897900EB0120B04265
:1010500039D10F48C0780E49897800EB01201FFA7A
:1010600080F80B4840790A49097900EB01201DE01E
:1010700055E04FE00008014000380140BF0100206A
:101080000C0C0140CD010020CC010020BE0100204D
:101090001A3A0020BD01002020390020BC010020A8
:1010A000143B00204C0000205A0000201FFA80F959
:1010B0001C4820F818901C480068401C1A49086019
:1010C00000201A49087000201949087026E01848C5
:1010D000007808281DDB17480078174909788842EE
:1010E00014D10621134802F08BFE06461148C07940
:1010F0001049897900EB0120B04207D10A48006805
:10110000401C0949086000200C490870002008496B
:10111000087003E000200649087000BF00BFBDE86A
:10112000F0870000083D002054000020C00100208E
:10113000BE0100201A3A0020BC010020C10100209D
:1011400070B50024002500260121C82000F088FA8F
:101150000121C92000F084FA0121CA2000F080FAA0
:101160000121CB2000F07CFA0221CC2000F078FA9B
:101170000221CD2000F074FA0221CE2000F070FA96
:101180000221CF2000F06CFA0821D02000F068FA8C
:101190000821D12000F064FA0821D22000F060FA82
:1011A0000821D32000F05CFA0921D42000F058FA7D
:1011B0000921D52000F054FA0921D62000F050FA78
:1011C0000921D72000F04CFA00BF2FE0494830F841
:1011D00034000512474810F834606000294600F0DA
:1011E0003FFA012101EB4400314600F039FA414851
:1011F00030F83400404921F834003E4800EBC40088
:10120000408801EBC40148803A4800EBC400808864
:10121000394901EBC4018880364800EBC400C0881E
:10122000354901EBC401C880601CC4B23C2CCDDB45
:1012300070BD10B50021782000F012FA012179204C
:1012400000F00EFA10BD70B500240025002600BF86
:1012500027E0600000F0DAF90646012101EB4400C6
:1012600000F0D4F9054606EB0520234921F83400A7
:10127000204800EBC400408801EBC40148801D48B1
:1012800000EBC40080881C4901EBC4018880194828
:1012900000EBC400C088184901EBC401C880601C81
:1012A000C4B23C2CD5DB70BD70B50025552441F689
:1012B000FF7000F0ABF90546A54215D0214641F676
:1012C000FF7000F0CDF941F6FF7000F09FF9054680
:1012D000A54202D1FFF734FF06E0084A0021084684
:1012E00002F060FF00BFFEE7FFF7A3FFFFF7ABFFD1
:1012F00070BD0000D0010020FC3E0020480400200A
:1013000008B50121082003F06DFCC020ADF80000F5
:1013100010208DF8030003208DF802006946B648BE
:1013200004F0A2FF0120B5490860B549C1F89C014D
:1013300008BD10B5B048006820F07040AE490860A4
:101340000846006840F0405008600120AB49091D84
:101350000860AB49C1F89801042000F043FA00206E
:10136000A649091D0860042000F03CFA0020A449A9
:10137000C1F8980110BD10B59F48006820F070407A
:101380009D4908600846006840F040500860002011
:101390009A490860042000F025FA01209849C1F814
:1013A0009C01042000F01EFA0120944908600420EA
:1013B00000F018FA00209249C1F89C01042000F0C6
:1013C00011FA00208D49086010BD10B58A480068E8
:1013D00020F07040884908600846006840F040509E
:1013E00008600020854908608549C1F89C010420F7
:1013F00000F0F8F90120814908608149C1F89C0199
:10140000042000F0EFF910BD10B57B48006820F013
:101410007040794908600846006840F04050086014
:10142000002076490860042000F0DCF900207449AF
:10143000C1F89C01042000F0D5F901206F49086033
:10144000042000F0CFF901206D49C1F89C0104206F
:1014500000F0C8F9002069490860042000F0C2F9D2
:1014600010BD10B500246448006820F07040624947
:1014700008600846006840F00040086001205F49AD
:10148000091D086000F0AEF901205D49C1F898011E
:1014900000F0A8F907E0601CC4B2FA2C03DDFFF7E6
:1014A000B3FF012010BD55487C3800680028F2D1F8
:1014B0005249086000BFF5E710B500204F490860A9
:1014C0004D48006820F070404B49086008460068AD
:1014D00040F04050086000204949C1F89C010220BA
:1014E00000F080F9012045490860022000F07AF9F7
:1014F00000204349C1F8980110BD10B500203F49B4
:1015000008603D48006820F070403B49086008468C
:10151000006840F04050086001203949C1F89C0142
:10152000022000F05FF9012034490860022000F039
:1015300059F900203249C1F8980110BD70B5044630
:101540002D48006820F070402B490860084600686C
:1015500040F040500860002028490860002517E04E
:10156000E0092649091D08606006040E022000F00B
:1015700039F901202249C1F89801022000F032F91E
:1015800000201E490860022000F02CF9681CC5B23A
:10159000082DE5DB70BD70B50546002416480068CF
:1015A00020F07040144908600846006840F0004090
:1015B0000860002616E0002010490860022000F0B4
:1015C00011F901200E49C1F898016006040E0B487C
:1015D0007C38006808B1601CC4B2012000F002F938
:1015E000701CC6B2082EE6DB15B9FFF786FF01E0D6
:1015F000FFF762FF204670BD000C01409881214238
:101600000080214210B5FFF77BFE10BD70B5044687
:101610000026FFF7B0FEA020FFF790FFFFF721FFA5
:101620002012FFF78BFFFFF71CFF2546E11704EBA5
:1016300011610912A4EB0121C8B2FFF77FFFFFF788
:1016400010FFFFF798FEA120FFF778FFFFF709FFD3
:101650000020FFF7A0FF0646FFF7D6FE304670BD1C
:1016600070B504460E46FFF786FEA020FFF766FF22
:10167000FFF7F7FE2012FFF761FFFFF7F2FE2546A6
:10168000E11704EB11610912A4EB0121C8B2FFF7C5
:1016900055FFFFF7E6FE3046FFF750FFFFF7E1FE8C
:1016A000FFF7B2FE0A2000F081F870BD2DE9F0418D
:1016B00005460E461746002409E0E20026FA02F22B
:1016C000D1B22A1990B2FFF7CBFF601CC4B2BC4262
:1016D000F3DBBDE8F0812DE9F04107460C4600261A
:1016E000002509E036023919491B491E88B2FFF767
:1016F0008DFF0644681CC5B2A542F3DB3046BDE849
:10170000F08110B5FF20FFF781FF0446552C01D171
:10171000002010BD5521FF20FFF7A2FFFF20FFF79B
:1017200075FF0446552C01D10020F2E70120F0E7B7
:1017300070B506460C46154608E03046721C96B257
:10174000FFF764FF04F8010B681E85B2002DF4D189
:1017500070BD70B505460C46164606E02178284651
:10176000FFF77EFF681C85B2641C3000A6F1010102
:101770008EB2F3D170BD000010B504466FF00400C6
:1017800002F07BFEE11704EB5171C1F3C701264A59
:1017900011701046007800EB4001C1EBC0104FF60D
:1017A000FF7101EAC0002149088010BD01461F4AAF
:1017B00012884A434FF0E0235A6100229A610122C5
:1017C0001A6100BF4FF0E022106900F001021AB167
:1017D00000F48032002AF5D000224FF0E0231A6195
:1017E0009A6170470146104A12784A434FF0E0234D
:1017F0005A6100229A6101221A6100BF4FF0E02273
:10180000106900F001021AB100F48032002AF5D00C
:1018100000224FF0E0231A619A61704700E0401EF9
:101820000028FCD170470000C2040020C40400203E
:1018300008B503208DF8000001208DF8010000207C
:101840008DF8020001208DF80300684602F0CBFD00
:1018500008BDF0B503460C461546642093FBF0F036
:10186000C6B2642093FBF0F700FB1730C1B2132E11
:1018700002DD01F16400C1B20846CF1701EB977792
:1018800001EBA707BAB2072092FBF0F700FB172085
:1018900082B25719601EDFF848C31CF800003844B4
:1018A00082B2CF1701EB9777BF10A1EB87071FB963
:1018B000032C01DA501E82B2072092FBF0F700FBE6
:1018C0001720C0B2F0BD0146CA1701EB9272921008
:1018D000A1EB820292B9642091FBF0F200FB12109E
:1018E00050B94FF4C87091FBF0F200FB121008B928
:1018F000012070470020FCE70120FAE70020F8E70C
:1019000070B5002600240025B64806883604001D60
:1019100000880644B448B6FBF0F4B4480088A042FE
:101920003CD0B2490C8040F2B27510E02846FFF777
:10193000CAFF40B1B4F5B77F02D3A4F5B77404E091
:10194000681C85B206E0A4F26D14681C85B2B4F57B
:10195000B67FEBD800BFA6488580002516E0A449D5
:101960008888FFF7B0FF30B1012D04D11D2C01D3C1
:101970001D3C09E00CE09F48405DA04203D89D4813
:10198000405D241A00E003E0681C85B21C2CE6D2FE
:1019900000BF681C96498871601CC8719248B6FBEC
:1019A000F0F100FB11644FF46160B4FBF0F090497A
:1019B00008704FF46160B4FBF0F100FB11403C2172
:1019C000B0FBF1F08A4948704FF46160B4FBF0F16C
:1019D00000FB11403C21B0FBF1F201FB12008449F5
:1019E00088700B46DA7999799888FFF732FF804939
:1019F0000872002070BD2DE9F05F06460F46904644
:101A00009946DDE90AAB002440F2B270864203DB5E
:101A100040F63300864202DD0120BDE8F09F40F22F
:101A2000B2750AE02846FFF74EFF10B17248044431
:101A300001E072480444681C85B2B542F2DB781EAE
:101A4000C7B2002510E06B48405D40F2A321484337
:101A500004EBC0143046FFF736FF18B1012D01D159
:101A600061480444681C85B2BD42ECDBA8F101006A
:101A700040F2A321484304EBC014C9EB4910C0EB6A
:101A8000092004EB0014CAEB0A1004EB80045C4448
:101A900003F068F9204603F032F90121080703F04A
:101AA000AEF8012004F025FB03F05CF90020B4E758
:101AB0001CB50024FFF7BCFE042004F0E2FA45F256
:101AC0005001884243D001214FF0C05003F097F8F5
:101AD000012004F00EFB04F09FFA012002F0EFFF5A
:101AE00004E0601CC4B20A20FFF760FE412002F04F
:101AF0004EFF0028F5D0FA2C01DB01201CBD4FF46D
:101B0000807002F0F8FF012002F0FBFF03F033F9D0
:101B100003F028F90121084603F0C8F803F022F980
:101B200047F6FF7003F0F8F803F01CF900202921B4
:101B30000A231B22CDE90010082140F2DE70FFF7D6
:101B40005AFF45F25001042004F08FFA07E003F039
:101B500012F90121084603F0A9F803F003F9FFF791
:101B6000CFFE03F07DF80020C8E700B51D4814380B
:101B7000008800F0010008B1FFF7C2FE19481438D0
:101B8000008800F0020038B116481438008820F0B0
:101B9000020014491439088012481438008840F6AD
:101BA000FA7108400F491439088000BF0D481438F5
:101BB000008800F020000028F8D000BD70B5034672
:101BC000002409E013F8015B11F8016BB54201D064
:101BD000002070BD601CC4B29442F3DB0120F8E722
:101BE000C99100081828004080510100C604002057
:101BF000DC400020D59100080085E2018033E1013E
:101C000030B5C0EB001301EB4303FD4C23800AE029
:101C100012F8013BFB4CFA4D2D886355F84B1B889D
:101C20005B1CF74C23801378002BF1D130BDF0B54D
:101C30000024C0EB001501EB4505F14E35800CE0AA
:101C4000651CACB212F8015BEE4EED4F3F88F555C6
:101C5000EB4D2D886D1CEA4E35809C42F0DBF0BDCB
:101C6000F0B504460E461546002700223346D0182C
:101C7000411013E034F81100A84202D10F46384653
:101C8000F0BD34F81100A84204DA481C82B2D01822
:101C9000411003E0481E83B2D01841109A42E9DD9A
:101CA0004FF0FF30ECE710B50024D7480088D74943
:101CB0000880D748007801280EDBD54800780A282C
:101CC0000ADCD148008800EB8000D149097801EB9B
:101CD0004000CD4908803BE0CD4800780C280FD16A
:101CE000C948008820B940F2E730C74908802FE092
:101CF000C54800880A2190FBF1F0C349088027E01D
:101D0000C34800780B2809D1BF48008840F2E7316A
:101D100088421DD10020BC49088019E0BC480078E9
:101D20000E2810D1BB48007880F00100B949087036
:101D30000846007818B10120B749087008E0002073
:101D4000B549087004E0B2480078102800D000BF00
:101D50000020AF490870AC4802886A21AF48FFF7FD
:101D60007FFF002815DBA8480088632818DDA648F7
:101D7000008840F2E731884212DAA34802883C2109
:101D8000A748FFF76DFF0446002C09DBA5490C802E
:101D900006E00120A44908709C4800889A49088000
:101DA00010BDF8B50024A14DFFF77DFF96480088CF
:101DB000342812D006DC022809D0032809D03328A1
:101DC00011D108E035280AD036280CD109E00024CA
:101DD0000AE0012408E0022406E0032404E00424CD
:101DE00002E0052400E000BF00BF9148007840B148
:101DF00000208F4908708F49085540F2E73082492A
:101E000008808148008840F2E731884214D18A482E
:101E1000007800280FD143F21A202844A0F179025B
:101E200000210846FFF7ECFE00F09DFB754A0021FB
:101E3000084602F0B7F948E17348008858B1724883
:101E40000088012807D070480088052803D06E4814
:101E50000088062816D16C4802886A216F48FFF76F
:101E6000FFFEC0EBC001C1EBC010704946183246FE
:101E700000210846FFF7C4FE624A0021084602F02E
:101E800091F922E160480088022817D05E48008856
:101E9000032813D05C48008804280FD05A480088D3
:101EA00033280BD058480088342807D0564800887B
:101EB000352803D054480088362830D1524800884D
:101EC000322816DA504802886A215448FFF7C8FEC3
:101ED000C0EBC001C1EBC010544946183246002186
:101EE0000846FFF78DFE474A0021084602F05AF9DE
:101EF000EBE045480088332803D043480088342865
:101F000002D101F001FDE0E03F480088352803D010
:101F10003D48008836288ED101F015FED5E03A48BC
:101F200000880B2826DB38480088102822DC364839
:101F300002886A213948FFF793FEC0EBC001C1EB6C
:101F4000C0103A494618324600210846FFF758FEAD
:101F50002D4909880A2291FBF2F302FB1311491E55
:101F6000364A52F821008047264A0021084602F0EE
:101F700019F9AAE024480088152820DB22480088A7
:101F800029281CDC204802886A212448FFF768FEC3
:101F9000C0EBC001C1EBC0102449461832460021F5
:101FA0000846FFF72DFE18480088252801D100F0CB
:101FB000ACFA144A0021084602F0F4F885E0124811
:101FC00000883D283CDB10480088442838DC0E4857
:101FD00002886A211148FFF743FEC0EBC001C1EB44
:101FE000C01012494618324600210846FFF708FE85
:101FF00000F0B8FA034A0021084602F0D3F864E082
:102000007A380020F64000206E3800207838002012
:10201000AC3800207E38002038000020C8040020A2
:10202000B0030020663800203C000020C6050020D8
:10203000B03800207138002039000020843800209A
:10204000A5480088D32804DBA3480088B0F5907F1A
:1020500009DDA1480088B0F59B7F09DD9E48008816
:10206000B0F5B07F04DC01F061F800F014FE2CE064
:1020700099480088B0F5CD7F09DD97480088B0F514
:10208000CF7F04DA01F052F800F005FE1DE092481F
:10209000008840F26911884204D08F480088B0F56A
:1020A000B57F12D18C4802886A218C48FFF7D8FD91
:1020B000C0EBC001C1EBC01089494618324600216F
:1020C0000846FFF79DFD00F089FC8648007800284F
:1020D00068DD81480088B0F57A7F63DCFF20192332
:1020E0003422052100900B2002F0D9F8002017239C
:1020F0003222072100900D2002F0D1F879480078B3
:102100000D2837D2DFE800F03607121D1E1F3636C5
:10211000363636202B0074A20721012002F042F847
:1021200076A20721022002F03DF823E06EA20721EB
:10213000012002F037F876A20721022002F032F8DF
:1021400018E017E016E015E076A20721012002F062
:1021500029F879A20721022002F024F80AE07BA2E4
:102160000721012002F01EF87DA20721022002F0C3
:1021700019F800BF00BF5B4800780A280BDA32204C
:10218000FFF714FB01207B4908703220FFF70EFB9C
:102190000120784908704FF47A70FFF707FB0020A0
:1021A000504908707448007801281DD100207349F7
:1021B0000860FF2019233422052100900B2002F033
:1021C0006EF8002017233222072100900D2002F024
:1021D00066F86BA20721012001F0E4FF6DA2072140
:1021E000022001F0DFFF02E00120644908606E4830
:1021F0000078012821D14FF4FA70FFF7D7FAFF20B9
:1022000019233422052100900B2002F048F8002009
:1022100017233222072100900D2002F040F863A21C
:102220000721012001F0BEFF65A20721022001F075
:10223000B9FF4FF4FA70FFF7B9FA66480078012841
:1022400021D14FF4FA70FFF7B1FAFF20192334229D
:10225000052100900B2002F022F8002017233222E3
:10226000072100900D2002F01AF85BA2072101203F
:1022700001F098FF5DA20721022001F093FF4FF4C7
:10228000FA70FFF793FA5E48B0F8A600012821D152
:102290004FF4FA70FFF78AFAFF2019233422052140
:1022A00000900B2001F0FBFF0020172332220721B2
:1022B00000900D2001F0F3FF52A20721012001F050
:1022C00071FF55A20721022001F06CFF4FF4FA7054
:1022D000FFF76CFAF8BD00006E380020C80400203B
:1022E000C60500203C00002020202020BEAF20207A
:1022F0002020CABE20202020000000002020202016
:10230000CEDED0A7B2D9D7F72020202000000000D1
:1023100020202020C9E8B6A8B3ACCFDE20202020A2
:10232000000000002020202020202020202020202D
:10233000202020200000000020202020C9E8B6A88E
:10234000D5FDC8B72020202000000000202020203C
:10235000B3A7BCD2B2CECAFD2020202000000000CE
:1023600020202020BBD6B8B4B3C9B9A62020202095
:10237000000000003A00002039000020A081214226
:1023800020202020B9CA20202020D5CF20202020A6
:102390000000000020202020D1B9C1A6B3ACCFDEC0
:1023A000202020200000000046000020C9CFCFC21E
:1023B000CEBBCDA8D1B6B9CAD5CF20200000000031
:1023C000B9CAD5CFC2EBA3BA3030312020202020AB
:1023D0000000000047000020D3EBB1E4C6B5C6F70B
:1023E000CDA8D1B6B9CAD5CF00000000B9CAD5CFA3
:1023F000C2EBA3BA303032202020202000000000A1
:10240000143B0020202020CFB5CDB3D0DDC3DFD6D4
:10241000D0202020000000002020BDFBD6B9C8CE6F
:10242000BACEB2D9D7F720200000000000B587B09F
:1024300001214FF4027002F0D5FB4FF4004002F08E
:1024400035FB0120ADF8040000208DF8070001A93C
:10245000254803F009FF254802F02EF800200290DD
:102460008DF80C008DF80D004FF4602004900020D2
:10247000059001208DF8180002A91C4802F043F8CD
:1024800001211A4802F06BF8184802F08AF800BFE0
:10249000164802F08BF80028FAD1144802F090F8A0
:1024A00000BF124802F091F80028FAD101210F482C
:1024B00002F095F807B000BD10B5072301220821EE
:1024C0000A4802F0B8F80121084802F088F800BF75
:1024D0000221064802F0F4F90028F9D0034802F07E
:1024E00011F90349088010BD000C0140002401408F
:1024F00080380020002000BF04E02021FE4A115453
:10250000411CC8B27928F8DB704708B5002000905C
:102510007820FFF77BF8F94908707920FFF776F803
:10252000F74908700023012208460178684601F047
:1025300002FF01236A4619460220FFF778FBF1A249
:1025400002210846FFF75CFB00230222EB480178DA
:10255000684601F0F0FE02236A4603211846FFF7A1
:1025600066FB08BD70471CB5002000900190E6A2F4
:102570000A21FFF745FBE7A200210120FFF740FBFE
:10258000E74800680521B0FBF1F400230922214649
:10259000684601F0D0FE6A4609210120FFF730FBB2
:1025A000E0A213210120FFF72BFBE0A20021022073
:1025B000FFF726FB00230922DE480168684601F088
:1025C000BAFE6A4606210220FFF71AFBDAA21021A2
:1025D0000220FFF715FB00230922D848016868464E
:1025E00001F0A9FE6A4613210220FFF709FBD4A2DD
:1025F00000210320FFF704FB00230922C8480168DB
:10260000684601F098FE6A4606210320FFF7F8FAB3
:10261000C9A210210320FFF7F3FA00230922CA48B8
:102620000168684601F087FE6A4613210320FFF720
:10263000E7FA1CBD00B593B00020119012900F90E6
:1026400010900D900E900B900C9009900A900790AE
:102650000890059006900390049001900290012349
:102660000422BA48018811A801F065FE0123042262
:10267000B74801880FA801F05EFE01230422B54887
:1026800001880DA801F057FE01230422B2480188F9
:102690000BA801F050FE01230422B048018809A8CC
:1026A00001F049FE01230422AD48018807A801F08A
:1026B00042FE01230422AB48018805A801F03BFE3D
:1026C00001230422A848018803A801F034FE012355
:1026D0000422A648018801A801F02DFE11AA0221BA
:1026E0000120FFF78DFA0FAA02210846FFF788FAAA
:1026F0000DAA02210320FFF783FA0BAA0C21012067
:10270000FFF77EFA09AA0C210220FFF779FA07AA3F
:102710000C210320FFF774FA05AA18210120FFF706
:102720006FFA03AA18210220FFF76AFA01AA1821FA
:102730000320FFF765FA704A0021084601F032FDD8
:1027400013B000BD08B50020009089480078401CF7
:10275000874908700846007842F20F71884202DD0E
:1027600000208349087000230422814801786846CC
:1027700001F0E1FD04236A4609210020FFF757FA22
:1027800004236A4609210120FFF751FA04236A460F
:1027900009210220FFF74BFA04236A461621002084
:1027A000FFF745FA04236A4616210120FFF73FFA96
:1027B00008BD704708B5002000906E4801780023DE
:1027C0000222684601F0B7FD6A460D210120FFF79D
:1027D00017FA69A20F210120FFF712FA6548417824
:1027E00000230222684601F0A6FD6A46132101205B
:1027F000FFF706FA62A215210120FFF701FA5D48F2
:10280000017800230222684601F095FD6A460D21F9
:102810000220FFF7F5F958A20F210220FFF7F0F987
:102820005448417800230222684601F084FD6A463C
:1028300013210220FFF7E4F951A215210220FFF72E
:10284000DFF908BD10B588B00020079018224D4967
:1028500001A803F074FF01AC4648818800230422DC
:1028600007A801F068FD042307AA00210120FFF753
:10287000DEF9404881790023022207A801F05BFDC0
:10288000022307AA06210120FFF7D1F93948C179AF
:102890000023022207A801F04EFD022307AA0A2105
:1028A0000120FFF7C4F93348007A00EB4000021919
:1028B00004210220FFF7A4F92E4801780023022208
:1028C00007A801F038FD022307AA00210320FFF723
:1028D000AEF9284841780023022207A801F02BFD19
:1028E000022307AA03210846FFF7A1F921488178AE
:1028F0000023022207A847E0F64000206D380020A0
:102900006C3800202E000000CDA8D1B6B2E2CAD4A7
:1029100000000000B2E2CAD4CAB1BCE43A00000030
:102920004800002028C3EB2900000000777269747A
:10293000653A0000500000206F6B3A005400002000
:1029400072656164203A00004C00002022000020E3
:102950002400002026000020280000202A0000205B
:102960002C0000202E00002030000020320000202B
:102970009C380020DC400020D0A1CAB1000000003B
:10298000B7D60000E491000801F0D5FC022307AAA5
:1029900006210320FFF74BF9FE4A0021084601F00B
:1029A00001FC08B010BD38B5002400200090FA48A2
:1029B000008800EB4010C0F30734012302222146B7
:1029C000684601F0B8FC6A4600210120FFF718F9BB
:1029D000F2A203210120FFF713F938BD2DE9F041E0
:1029E00088B00024002500200790059006900390F1
:1029F0000490002600278046E948008840F26911CB
:102A0000884209D1E7480079A0F5FA60C6B2E548E6
:102A1000877990F8078004E0E2480678477890F8D4
:102A2000028000230222314607A801F084FC022321
:102A300007AA07210120FFF7FAF8002302223946EE
:102A400007A801F078FC022307AA0B210120FFF759
:102A5000EEF800230222414607A801F06CFC022395
:102A600007AA0F210120FFF7E2F80FE1CE48007816
:102A7000E0B1CD4800780A2818DCCB4800780A2855
:102A800002D10020C8490870C748007805A94855F8
:102A9000681CC0B20546062800DB00250020C2499C
:102AA0000870C2A211210320FFF7AAF8002406E053
:102AB00005A8005D303003A90855601CC4B2062C7F
:102AC000F6DBB94800780B2877D1B548008840F28A
:102AD0006911884221D19DF8140000EB80004FF469
:102AE000FA6101EB40009DF815100844AD4988805B
:102AF0009DF817009DF8161001EB810100EB4100D5
:102B0000A84988719DF819009DF8181001EB810102
:102B100000EB4100A349C8711DE09DF815009DF828
:102B2000141001EB810100EB41009E4908709DF8F3
:102B300017009DF8161001EB810100EB4100994947
:102B400048709DF819009DF8181001EB810100EB09
:102B50004100944988709348807892494978DFF819
:102B600044C2CDE900109CF800309CF807209CF886
:102B70000610BCF80400FEF73EFF8FA211210320CF
:102B8000FFF73EF8834A0021084601F00BFB4FF4A3
:102B90007A70FEF70BFE8BA211210320FFF730F8AD
:102BA00000257F4800880A2190FBF1F07C490880CD
:102BB00000207D4908706AE0FFE77B4800780C2818
:102BC0000BD10025764800880A2190FBF1F074496A
:102BD000088000207449087059E0062D28D2DFE8EB
:102BE00005F003090F151B2179A207210320FFF728
:102BF00007F81DE079A207210320FFF701F817E08D
:102C000079A207210320FEF7FBFF11E079A207213B
:102C10000320FEF7F5FF0BE079A207210320FEF762
:102C2000EFFF05E079A207210320FEF7E9FF00BFCF
:102C300000BF012303AA07210220FEF7F8FF0123AA
:102C40000DF10D0208210220FEF7F1FF01230DF125
:102C50000E020B210220FEF7EAFF01230DF10F0205
:102C60000C210220FEF7E3FF012304AA0F2102201A
:102C7000FEF7DDFF01230DF1110210210220FEF706
:102C8000D6FF444A0021084601F08CFAEEE600BF68
:102C900008B0BDE8F08110B500245F485F4909889D
:102CA00030F831005E4908803F480078002863D042
:102CB0003D4800780A285FDC3B4800780A2802D1AA
:102CC000002039490870012056490870564800789C
:102CD00000283AD101205449087000205349087057
:102CE000002404E0002052490855601CC4B2052CA1
:102CF000F8DB49484949098800EBC100C0880E2823
:102D000021D2DFE800F007191A1B120C131C140B58
:102D10000D20150E01204749087015E000BF00BFC7
:102D200000BF0220434908700EE000BF00BF00BF93
:102D300003204049087007E000BF00BF00BF042027
:102D40003C49087000E000BF00BF174800783A49CE
:102D5000364A1278885435480078401C3349087048
:102D60000846007833490978884202DB00202F4961
:102D7000087000200C4908700B4800780B2879D1A6
:102D800028480078002876D0002027490870254977
:102D9000087053E0F6400020803800205600000004
:102DA0006E380020DC400020AC380020C9E8B6A80E
:102DB000D6D02E2E00000000C9E8B6A8CDEAB3C9CF
:102DC0000000000020202020202020200000000003
:102DD0005F2020202020202020200000205F2020B5
:102DE0002020202020200000202020205F202020E4
:102DF0002020000020202020205F20202020000014
:102E000020202020202020205F20000020202020C3
:102E100020202020205F0000FC3E0020663800209B
:102E20009E380020593800209D3800205A38002054
:102E3000613800205B3800205C380020002405E069
:102E4000FE48005DFE490855601CC4B2052CF7DB46
:102E5000002404E00020F9490855601CC4B2052C88
:102E6000F8DBF848F849098800EBC100C0880E2853
:102E700059D201E03BE1CCE0DFE800F0073637381B
:102E800021102239230F11552012ED480178ED4809
:102E9000ED4A128820F8321046E000BF00BF00BFA4
:102EA000E7484078E649097801EB810100EB4100F1
:102EB000E449E54A128821F8320035E000BF00BF3E
:102EC00000BFDF48007864214843DD49497801EBC1
:102ED000810100EB4100DA4989780844D949DA4A8E
:102EE000128821F832001FE000BF00BF00BFD448A5
:102EF00000784FF47A714843D149497801EBC10217
:102F000002EB011100EB8100CD49897801EB8101D1
:102F100000EB4100CA49C9780844CA49CA4A128824
:102F200021F8320000E000BF00BFC648C64909884A
:102F300030F83110C44A128800EBC2004088814248
:102F400057DCC048C049098830F83100BD49BE4A45
:102F5000128801EBC201898888424ADB0020BB4904
:102F60000870BB490870B748B749098830F8310084
:102F7000B849088008460088000AB7490870B54873
:102F80000078B6490870AF48AF49098830F8311069
:102F9000B348AD4A128820F81210AB4909884FF6A1
:102FA000FF7202EA4100AD490978FEF759FBA649D4
:102FB0000988012202EB410188B2A7490978FEF78E
:102FC0004FFBA1480088A649A1F8B4009D489E493E
:102FD000098830F83100A249A1F8B6000120A149C2
:102FE0000870994800883B287ED10C209E490870C3
:102FF0007AE09E4800889349934A128821F832006B
:103000000020924908709249087002209649087081
:103010006AE08C488C49098830F8310089498A4A2D
:10302000128801EBC201498888424EDC85488649F6
:10303000098830F831008349834A128801EBC201C4
:103040008988884241DB7F487F49098830F8310010
:103050008049088008460088000A7F4908707D483A
:1030600000787E49087077487749098830F8310040
:103070007B49754A128821F81200734909884FF676
:10308000FF7202EA410075490978FEF7E9FA6E49D4
:103090000988012202EB410188B26F490978FEF7E5
:1030A000DFFA694800886E49A1F8B40065486649AE
:1030B000098830F831006A49A1F8B6000120694951
:1030C00008700B206849087009E002206649087002
:1030D000664801885B485C4A128820F8321000205C
:1030E0005A4908705A4908700020614908706048C0
:1030F00000780C2819D15F4800880A2190FBF1F074
:103100005C4908800020514908705B4908705049AB
:103110000870002404E0002048490855601CC4B22F
:10312000052CF8DB00205249087010BDF0B589B0BD
:10313000002007900890059006900390049001905D
:1031400002900024002500264148007810B9012093
:103150003F4908704848007800286DD139483A49FD
:10316000098800EBC100C0880E283CD2DFE800F0DF
:10317000072B3337270F232F1B0B133B1F1701245C
:103180000025264630E00224002526462CE00224B5
:103190000025264628E002240025264624E00224B5
:1031A0000025264620E00324002526461CE00324B3
:1031B0000025264618E003240125661C14E003249C
:1031C0000225661C10E00424002526460CE0042499
:1031D0000025264608E004240125661C04E004249A
:1031E0000125661C00E000BF00BF1648164A128881
:1031F00030F832102B46224605A801F09CF8114801
:10320000114A128800EBC20041882B46224603A8CF
:1032100001F091F80B480C4A128800EBC20081883B
:103220002B46224601A801F086F8124802886A213E
:103230001248FEF715FD23E057E000005C3800203F
:1032400061380020FC3E0020663800209D380020B8
:10325000683800206A3800206C3800206D38002063
:10326000143B0020C10100203C0000209E380020BB
:10327000AC3800206E38002059380020C8040020E7
:10328000C0EBC001C1EBC010F94947183A46002114
:103290000846FEF7B5FC05AA07210220FEF7B0FCA0
:1032A000F448F549098800EBC100C088C0B103AA01
:1032B00007210120FEF7A4FC01AA16210120FEF738
:1032C0009FFCEC48EC4B1B8800EBC300C08800EB74
:1032D0004000EA4BC218F01DC1B20220FEF790FC7C
:1032E000E74A0021084600F05DFFE6480078002824
:1032F0007DD0E548007800287AD1DE48DE4909888B
:1033000000EBC100C0880E2873D2DFE800F0079DF3
:103310007B7C132F439F5F2E319E5E30DB4800780D
:103320003030C0B28DF81C0007AA07210220FEF73A
:1033300067FCAAE0D54800783030C0B28DF81C0098
:103340002E208DF81D00D14840783030C0B28DF865
:103350001E00CE4880783030C0B28DF81F0007AA1A
:1033600007210220FEF74CFC8FE000BF00BF00BF2A
:10337000C64800783030C0B28DF81C00C348407891
:103380003030C0B28DF81D0007AA07210220FEF7D9
:1033900037FC7AE0BD4800783030C0B28DF81C00B0
:1033A000BA4840783030C0B28DF81D002E208DF81C
:1033B0001E00B64880783030C0B28DF81F0007AAD2
:1033C00007210220FEF71CFC5FE000BFAF48007839
:1033D0003030C0B28DF81C00AC4840783030C0B2FC
:1033E0008DF81D00A94880783030C0B202E071E14C
:1033F0004CE049E08DF81E0007AA07210220FEF7E5
:10340000FFFB42E000BFA14800783030C0B28DF829
:103410001C009E4840783030C0B28DF81D009B489B
:1034200080783030C0B28DF81E002E208DF81F003D
:103430009648C0783030C0B28DF8200007AA072126
:103440000220FEF7DDFB20E000BF00BF8F480078C0
:103450003030C0B28DF81C008C4840783030C0B29B
:103460008DF81D00894880783030C0B28DF81E007C
:103470008648C0783030C0B28DF81F0007AA0721F7
:103480000220FEF7BDFB00E000BF1EE179487A494B
:10349000098800EBC100C0880E286FD2DFE800F079
:1034A00007B994950D2A40BB78292CBA772B78A2BE
:1034B00007210220FEF7A4FB06E17648007820B140
:1034C000012808D0022812D10BE071A207210220A6
:1034D000FEF796FB0BE06EA209210220FEF790FB9F
:1034E00005E06BA20A210220FEF78AFB00BF00BFA5
:1034F000EAE000BF00BF00BF6648007810B10128B5
:103500000CD105E062A207210220FEF779FB05E05D
:103510005FA208210220FEF773FB00BF00BFD3E0CB
:103520005A4800783030C0B28DF81C0057484078B7
:103530003030C0B28DF81D002E208DF81E0053488B
:1035400080783030C0B28DF81F0007AA0721022012
:10355000FEF756FB4F48007820B1012808D002281A
:1035600013D10CE04AA207210220FEF749FB0CE030
:1035700047A208210220FEF743FB06E0A3E044A295
:103580000A210220FEF73CFB00BF00BF9CE000BF09
:103590004048007820B1012808D0022812D10BE061
:1035A0003BA207210220FEF72BFB0BE038A20821EB
:1035B0000220FEF725FB05E035A209210220FEF7D7
:1035C0001FFB00BF00BF7FE000BF3248007830B172
:1035D00001280AD002280ED0032818D111E02CA20D
:1035E00007210220FEF70CFB11E029A2082102208E
:1035F000FEF706FB0BE026A209210220FEF700FBE6
:1036000005E023A20B210220FEF7FAFA00BF00BF5B
:103610005AE000BF00BF1D4800783030C0B28DF8BE
:103620001C001A4840783030C0B28DF81D00174891
:1036300080783030C0B28DF81E001448C078303029
:10364000C0B28DF81F0007AA07210220FEF7D8FAA2
:103650001048007830B101281ED0022823D003285A
:103660002FD127E00AA207210220FEF7C9FA28E09D
:10367000C6050020FC3E0020663800209C05002086
:10368000F640002059380020440000205C3800201B
:10369000200000005A380020AFF20C02082102205E
:1036A000FEF7AEFA0DE0AFF2180209210220FEF794
:1036B000A7FA06E0AFF228020A210220FEF7A0FADC
:1036C00000BF00BF00E000BF00BFFA4A002108466B
:1036D00000F068FD09B0F0BD704770477047704753
:1036E0003EB500240025002001900290009008E1E2
:1036F000F148007898B90120EF4908700020EF499F
:103700000870EF490870EF49C870887048700870F9
:10371000FEF7F0FEECA200210846FEF771FAE7483A
:10372000007800281EDDE54800780A281ADCE34806
:1037300000780A2802D10020E0490870DF480078AC
:10374000E049DF4A12788854DD480078401CDC49A3
:10375000087008460078042801DB0020087000206B
:10376000D6490870D74800783030C0B28DF80000D4
:10377000D44840783030C0B28DF80100D14880780C
:103780003030C0B28DF80200CE48C0783030C0B2C0
:103790008DF8030004236A460D210220FEF747FA44
:1037A0000423AFF6DC120D210320FEF740FAC448D3
:1037B00000780D30C1B2C7A20320FEF721FAC64837
:1037C0000088342815D006DC022809D003280AD046
:1037D000332817D10AE035280ED0362812D10EE052
:1037E0000025C8240FE00125CC240CE00225C824C4
:1037F00009E00325CC2406E00425D02403E00525B8
:10380000D42400E000BF00BFAC4800780B2853D19F
:103810002046FDF7FBFEADF80400601CFDF7F6FE48
:10382000ADF80600A01CFDF7F1FEADF80800E01CA5
:10383000FDF7ECFEADF80A00A2480078BDF80410D0
:1038400088421AD19F484078BDF80610884214D1AA
:103850009C488078BDF8081088420ED19948C078FD
:10386000BDF80A10884208D19CA21621032000F05E
:1038700099FC01209C4948550EE09CA2162103208A
:1038800000F090FC002098494855934800880A2190
:1038900090FBF1F0904908804FF47A70FDF786FFB5
:1038A000AFF6E0221621032000F07CFC00208349C3
:1038B00008708149087025E0804800780C280CD1F8
:1038C00000207E4908707C490870834800880A21DE
:1038D00090FBF1F08049088014E08748007858B1E7
:1038E000002085490870744908707F49485540F2A6
:1038F000E7307949088005E06E4A0021084600F06B
:1039000051FCF5E600BF3EBD38B50024002500207F
:10391000009015E17948007850B901207749087086
:103920000020774908707749C8708870487008701F
:10393000FEF7E0FD74A200210846FEF761F95F483A
:10394000007800281EDD5D4800780A281ADC5B48F4
:1039500000780A2802D1002058490870574800789A
:103960006849674A1278885465480078401C644961
:10397000087008460078042801DB00200870002049
:103980004E4908705F4800783030C0B28DF80000B2
:103990005C4840783030C0B28DF8010059488078DA
:1039A0003030C0B28DF802005648C0783030C0B216
:1039B0008DF8030004236A460D210220FEF737F933
:1039C0000423AFF6FC320D210320FEF730F94C48FA
:1039D00000780D30C1B23FA20320FEF711F93E4836
:1039E0000088342815D006DC022809D003280DD021
:1039F000332817D107E035280ED0362812D10EE033
:103A00000025C8240FE00125C8240CE00225CC24A1
:103A100009E00325CC2406E00425D02403E0052595
:103A2000D42400E000BF00BF244800780B2830D128
:103A3000344801782046FDF713FE32484178601C77
:103A4000FDF70EFE2F488178A01CFDF709FE2D48DA
:103A5000C178E01CFDF704FEAFF6A4421621032056
:103A600000F0A0FB4FF47A70FDF7A0FEAFF6AC4279
:103A70001621032000F096FB0020104908701F4912
:103A80000870154800880A2190FBF1F0124908805F
:103A900057E00A4800780C283ED1002007490870FA
:103AA000164908700C4800880A2190FBF1F00A4979
:103AB000088046E0F6400020A5380020AC38002001
:103AC000A4380020A0380020C7EBCAE4C8EBC3DC50
:103AD000C2EB00005F0000006E380020C3DCC2EBC8
:103AE000D5FDC8B70000000071380020C3DCC2EB70
:103AF000B4EDCEF300000000B0380020AB38002059
:103B0000AA380020A6380020C7EBCAE4C8EBD0C210
:103B1000C3DCC2EB000000003748007858B1002039
:103B200035490870354948553549087040F2E73045
:103B30003449088005E0344A0021084600F032FB91
:103B4000E8E600BF38BD38B5002400200090FEF73D
:103B5000D1FC2C480088352802D0362804D101E059
:103B6000C82402E0CC2400E000BF00BF2046FDF7DF
:103B70004DFD3030C0B28DF80000601CFDF746FDF1
:103B80003030C0B28DF80100A01CFDF73FFD303091
:103B9000C0B28DF80200E01CFDF738FD3030C0B235
:103BA0008DF8030019A200210846FEF729F8042326
:103BB0006A460D210020FEF73AF8134A0021084614
:103BC00000F0F0FA154800780C2813D100201349B2
:103BD000087005200B49088008480079012802D1A7
:103BE00000200649087105484079012802D10020CB
:103BF0000249487138BD0000B038002071380020FB
:103C0000AB3800206E380020F6400020D3C3BBA79D
:103C1000B2CECAFDC3DCC2EB3A000000AC380020D3
:103C200070B50020002200230021674CA468C4F373
:103C30000323664C247844EA0311654C247864B964
:103C4000012007E0634C245C8C4201D1604C207061
:103C5000441CE0B21028F5DD5CE05D4C2478112CAA
:103C60001ED2DFE804F01D090A0B0C0E0F10111311
:103C700014151618191A1B0000BF00BF00BF01223F
:103C80000FE000BF00BF00BF02220AE000BF00BF7C
:103C900000BF042205E000BF00BF00BF082200E013
:103CA00000BF00BF4C4C4A4D2D78645DFF2C08DAF4
:103CB000494C474D2D78645D641C474D444E367821
:103CC000AC55454C424D2D78645D0A2C22DB914267
:103CD00020D13F4C2478414D2C7000243E4D3C4E69
:103CE0003678AC553A4D2C703D4C3C4D2D78645D8A
:103CF0003A4D2C702C4624783A4D2C70374C247851
:103D0000394D2C70354C2478384D2C70334C247838
:103D1000374D2C70374C25782478641C354E347020
:103D2000032D02D1002435462C70324C247834B156
:103D3000012C13D0022C22D0032C41D130E00024DE
:103D40002D4D2C602D4DC5F8B8412B4D083D2C60F4
:103D500001242D1F2C601D4D2C7032E00024264DB7
:103D60002C60264DC5F8B8410124234D083D2C6038
:103D700000242D1F2C600224144D2C7021E00024FF
:103D80001D4D2C6001241D4DC5F8B84100241A4D6D
:103D9000083D2C602D1F2C6004240C4D2C7010E06D
:103DA0000124154D2C600024144DC5F8B841124D66
:103DB000083D2C602D1F2C600824044D2C7000E061
:103DC00000BF00BF70BD000000100140D5380020CA
:103DD000D3380020B1380020E6400020D63800203B
:103DE000C2380020AC380020AD380020AE380020AA
:103DF000AF380020D4380020BC812142008021420D
:103E000070B502460C46FF25FF2309E012F8010BAE
:103E100080EA05010648405C80EA03050548435CEA
:103E20002000A4F10106B4B2F0D143EA052070BD30
:103E3000F9910008F992000801E0411EC8B200287B
:103E4000FBDC704700B54FF08830FE490860012068
:103E5000FD4908600020FD49C1F884013220FFF7C8
:103E6000EBFFFF2212E0F74808300068C3B203F00E
:103E70000300032808D10120F349091D08604FF011
:103E80003330F049086003E0501EC2B2002AEADC79
:103E900000BF00BD00B54FF08830EA49086001203E
:103EA000E94908600020E949C1F884013220FFF7A0
:103EB000C3FFFF2212E0E34808300068C3B203F0FA
:103EC0000800082808D10120DF49091D08604FF0CB
:103ED0003330DC49086003E0501EC2B2002AEADC3D
:103EE00000BF00BD30B504460025FFF7ABFF002042
:103EF000D54908604FF08830D2490860D148083071
:103F0000006885B24FF033300860281204EB0020BF
:103F1000CC490C3108600020CC49C1F8880101204F
:103F2000C9490831086030BD30B504460025FFF7A7
:103F300089FF0120C44908604FF08830C1490860FA
:103F4000C0480830006885B24FF03330086028124E
:103F500004EB0020BB490C3108600020BB49C1F8CC
:103F600088010120B8490831086030BD70B50646A7
:103F70000C4615463046FFF7B5FF2046FFF7B2FF67
:103F80002846FFF7D1FF70BD10B50020AE491031B3
:103F900008600A20FDF70AFC0120AC49C1F8900135
:103FA0000A20FDF703FC0020A7490C31086001201E
:103FB000A54914310860A649086010BD00B54FF44A
:103FC0009040A4490860402200210846FFF7CEFF38
:103FD000A049087842220988C1F30721FFF7C6FFEC
:103FE000412200211E20FFF7C1FF432200211E2095
:103FF000FFF7BCFF9820FFF797FFA120FFF794FF82
:104000008120FFF791FF00BD10B5024600200BE0B4
:104010000B781478A34204D14B785478A34200D192
:1040200005E0431C98B22332B0F57A7FF0DB00BF85
:10403000B0F57A7F00DB002010BD10B502460020ED
:1040400007E00B781478A34200D105E0431C98B236
:104050002332B0F57A7FF4DB00BFB0F57A7F00DB66
:10406000002010BD2DE9FE4F0746884616469946AA
:1040700000250020029001900090B346494630464A
:10408000FFF7C2FF8246002447E0CAEBCA0000EBFC
:1040900080005844C01C10F814000290C7EB0710B1
:1040A00008EB40106B4909680844C4EB041100EBAD
:1040B0004105E8B20190C5F3072000902422DDE914
:1040C0000010FFF753FFB020FFF72EFF0298FFF715
:1040D00009FFB220FFF728FFCAEBCA0000EB8000FF
:1040E0005844C01C012101EB4401405C02906D1C4E
:1040F000E8B20190C5F3072000902422DDE900100A
:10410000FFF734FFB020FFF70FFF0298FFF7EAFE3A
:10411000B220FFF709FF601C84B2102CB5DBBDE8AC
:10412000FE8F2DE9FE4F0746884615469946002624
:10413000B246B34600200090019549462846FFF755
:104140007CFF0290002429E00298C0EBC00000EB45
:10415000800101980844C01C10F804A0C7EB0710A8
:1041600008EB40103B4909680844C4EB041100EB1C
:10417000410606F0FF0BC6F30720009024225846A4
:104180000099FFF7F3FEB020FFF7CEFE5046FFF791
:10419000A9FEB220FFF7C8FE601C84B2102CD3DB4E
:1041A000BDE8FE8F2DE9F04106460D461446DFF8C6
:1041B000A880277820E0802F0FDA23464246294640
:1041C0003046FFF7AEFF641C2778681CC5B21E2D71
:1041D00012DB0025701CC6B20EE02346424629467B
:1041E0003046FFF73FFFA41C2778A81CC5B21E2D40
:1041F00002DB0025701CC6B2002FDCD1BDE8F081C7
:104200002DE9FC4F05460E4690461C46DDF82C90E5
:104210000027BA46BB4600200190009000BF38E05E
:1042200099F800B0B7FBF4F004FB1070C5EB051172
:1042300000EB41000749096800EB010A0AF0FF00A2
:1042400001900BE000080140800122420000224260
:10425000A0812142E038002016680008CAF3072038
:1042600000902422DDE90010FFF780FEB020FFF768
:104270005BFE5846FFF736FEB220FFF755FE09F108
:104280000109701CC6B2A64202DB0026681CC5B23A
:104290007F1C04FB08F0B842C2D8BDE8FC8F2DE9B2
:1042A000FC4F06460F4690469946DDF82CB0002498
:1042B0000025A246002001900090344622E03D46B1
:1042C0001DE0A8B2C4EB041100EB410034490968B9
:1042D00000EB010A0AF0FF000190CAF307200090EA
:1042E0002422DDE90010FFF741FEB020FFF71CFE9D
:1042F0005846FFF7F7FDB220FFF716FE6D1C4D453F
:10430000DFD3641C4445DAD3BDE8FC8F70B50346A7
:1043100000200DE00A25B1FBF5F605FB161404F1AB
:104320003005ECB21C540A25B1FBF5F1451CE8B28E
:104330009042EFDB70BD2DE9F043054689461646F5
:104340001F46324649462846FFF7E0FF00240DE0AD
:1043500015F80480A819401E001B00782855A819DC
:10436000401E001B80F80080601CC4B206EBD671B2
:10437000B4EB610FECDB87B1002408E0A819001B47
:1043800010F8010CA919091B0870601CC4B2BC42CA
:10439000F4DB2E20A919C91B0870BDE8F0830000CA
:1043A000E038002000200B49086070470A48008868
:1043B000B0F57A6F07DA0748006820F00100401C6A
:1043C0000449086005E00348006820F00100014945
:1043D00008607047F43800208038002031490143DC
:1043E000314A1160704770B5002100230F22C47854
:1043F00004B32D4C246804F4E064C4F5E064210A9D
:10440000C1F10403CA40447804FA03F184781440EB
:1044100021430901254C0678A155047804F01F05B5
:104420000124AC4005786D11AD0005F1E025C5F81B
:10443000004109E0047804F01F050124AC401C4D44
:104440000678761145F8264070BD1A4A0A400243A4
:10445000154B1B1F1A60704739B1134A121D1268A1
:104460000243114B1B1D1A6006E00F4A121D126811
:1044700082430D4B1B1D1A607047042808D14FF072
:10448000E021096941F004014FF0E022116107E0E9
:104490004FF0E021096921F004014FF0E0221161A1
:1044A000704700000000FA050CED00E000E400E0B9
:1044B00080E100E080FFFF1F10B50446FA48844207
:1044C00008D10121401500F0A7FB0021601500F084
:1044D000A3FB17E0F548844208D10121001500F044
:1044E0009BFB0021201500F097FB0BE0F048844275
:1044F00008D10121C80300F08FFB00214FF40040D8
:1045000000F08AFB10BD30B5024600200023506841
:10451000E84C20400D790C6844EA052420435060A3
:104520009068E54C2040D1E902542C434D7944EA8F
:10453000450420439060D06A20F470000C7C641E17
:10454000E4B2234340EA0350D06230BD0021016051
:10455000017141718160C16001210174704721B115
:10456000826842F00102826003E0826822F0010268
:104570008260704721B1826842F48072826003E0F9
:10458000826822F480728260704710B50023CBB23B
:104590001AB144681C43446002E044689C43446090
:1045A00010BD816841F0080181607047014600201C
:1045B0008A6802F008020AB1012000E0002070477A
:1045C000816841F0040181607047014600208A68DB
:1045D00002F004020AB1012000E00020704721B17E
:1045E000826842F4A002826003E0826822F4A002A2
:1045F00082607047014600208A6802F480020AB196
:10460000012000E00020704710B50A460021002379
:10461000416821F46041531E41EA4331416010BDBD
:1046200021B1426842F40062426003E0426822F431
:10463000006242607047F0B504460D46002000213C
:10464000092D11DDE068A5F10A0606EB46070726ED
:1046500006FA07F18843A5F10A0606EB460603FAB7
:1046600006F10843E0600CE0206905EB45070726EA
:1046700006FA07F1884305EB450603FA06F10843FD
:104680002061072A0FDA606B561E06EB86071F268D
:1046900006FA07F18843561E06EB860605FA06F170
:1046A0000843606322E00D2A0FDA206BD61F06EB69
:1046B00086071F2606FA07F18843D61F06EB8606F3
:1046C00005FA06F10843206310E0E06AA2F10D0646
:1046D00006EB86071F2606FA07F18843A2F10D06AE
:1046E00006EB860605FA06F10843E062F0BD21B14B
:1046F000826842F48012826003E0826822F48012B1
:10470000826070470146C86C80B2704766484C3082
:104710000068704721B1426842F48062426003E061
:10472000426822F480624260704721B1426842F4DC
:104730008052426003E0426822F480524260704737
:104740000A460021816821F4E041114381607047ED
:1047500021B1826842F40042826003E0826822F460
:1047600000428260704721B1826842F40212826086
:1047700003E0826822F40212826070470146002042
:104780008A6802F400120AB1012000E0002070479C
:10479000F0B504461546002000220026092911DD47
:1047A000E068A1F10A0707EB470C072707FA0CF2AC
:1047B0009043A1F10A0707EB470703FA07F21043FA
:1047C000E0600CE0206901EB410C072707FA0CF2CE
:1047D000904301EB410703FA07F210432061A06BFD
:1047E000C0F30156EF1C06F1010CA7EB0C0707EB19
:1047F000870C1F2707FA0CF29043EF1C06F1010CFF
:10480000A7EB0C0707EB870701FA07F21043A06339
:10481000F0BD10B50A4600210023816B21F4401140
:10482000531E41EA0351816310BD08B50023009374
:104830000090009B0B440093009B1A6008BD08B5D4
:10484000024600200090009201F12800009B1844CD
:1048500000900098006880B208BD0A4600214168B7
:10486000164B1940114341607047416282627047A4
:104870000A460021416821F01F0111434160704741
:1048800040B109490831096841F40001064A08327B
:10489000116007E004490831096821F40001024A67
:1048A00008321160704700000024014000280140D8
:1048B000003C0140FFFEF0FFFDF7F1FFFFFD3FFF71
:1048C0000246002013680B400BB1012000E00020DD
:1048D0007047CA430260704770B50246002000234B
:1048E00000240B125568CEB205EA060415681D4077
:1048F00015B10CB1012000E0002070BD00220A12A9
:10490000D343036070470000DF48006840F00100B7
:10491000DD49086008464068DC490840DA494860DB
:1049200008460068DA490840D74908600846006828
:1049300020F4802008600846406820F4FE004860AB
:104940004FF41F0088607047CF49096821F4803117
:10495000CD4A11601146096821F480211160B0F53B
:10496000803F03D0B0F5802F0ED106E0C64909681C
:1049700041F48031C44A116007E0C349096841F439
:10498000A021C14A116000E000BF00BF704710B510
:1049900001460022002300204A11012A02D1BA4C0C
:1049A000236806E0022A02D1B74C236A01E0B64C24
:1049B000636A01F01F02012494401C400CB10120E5
:1049C00000E0002010BD38B5002000900024002534
:1049D00000BF3120FFF7DBFF05460098401C009028
:1049E0000098B0F5A06F01D0002DF2D03120FFF774
:1049F000CEFF08B1012400E00024204638BD014666
:104A00000020A14A106820F0F80040EAC1001060C0
:104A10007047A04908607047024600209A4B5868CA
:104A200020F47C1042EA01031843974B586070470A
:104A300098490866704701460020934A506820F064
:104A400003000843506070478F48406800F00C0036
:104A50007047014600208C4A506820F0F00008435F
:104A60005060704701460020874A506820F4E0609B
:104A700008435060704701460020834A506820F484
:104A8000605040EAC1005060704729B17E4A527AB6
:104A900002437D4B5A7204E07B4A527A82437A4B3E
:104AA0005A7270477B49D831086070470146002030
:104AB000754A506820F44040084350607047002118
:104AC000714A20321170704A82F82010012802D0F9
:104AD00004280AD104E001216B4A2032117005E05C
:104AE0000521694A2032117000E000BF00BF704705
:104AF0006949086070476449096A0143624A116262
:104B00007047654944390860704730B5002100227C
:104B1000002400235C4D6D6805F00C0121B10429CF
:104B200005D0082923D105E05C4D056022E05B4DEE
:104B300005601FE0544D6D6805F47012524D6D68AC
:104B400005F48034022505EB92421CB9544D5543BF
:104B500005600BE04C4D6D6805F400351DB1504DFE
:104B60005543056002E04D4D5543056002E04B4D55
:104B7000056000BF00BF444D6D6805F0F0010909F4
:104B8000484D6B5C0568DD4045603F4D6D6805F440
:104B9000E061090A434D6B5C4568DD4085603A4D34
:104BA0006D6805F46051C90A3E4D6B5C4568DD4097
:104BB000C560354D6D6805F44041890B3A4D6B5C1D
:104BC000C568B5FBF3F5056130BD29B12E4A5269C0
:104BD00002432D4B5A6104E02B4A526982432A4B0F
:104BE0005A61704729B1284A92690243264B9A615B
:104BF00004E0254A92698243234B9A61704729B1A8
:104C0000214AD2690243204BDA6104E01E4AD2698C
:104C100082431D4BDA61704729B11B4AD2680243B7
:104C2000194BDA6004E0184AD2688243164BDA6006
:104C3000704729B1144A12690243134B1A6104E008
:104C4000114A12698243104B1A6170471249403968
:104C5000086070470F49C86470470B49C8717047B6
:104C60000948406A40F08070074948627047014631
:104C70000020054A92680A400AB1012000E00020A5
:104C80007047014988727047001002400000FFF829
:104C9000FFFFF6FE000042428004424200127A000A
:104CA00000093D00F83800200839002029B1504A99
:104CB000128802434E4B1A8004E04D4A1288824308
:104CC0004B4B1A8070474A48001D008840F0100086
:104CD0004749091D088070474548001D00884FF668
:104CE000EF7108404249091D088070470021404883
:104CF0001C300188001F008841EA0040704700B561
:104D00000246FFF7E0FF100C394918310880091DF1
:104D10000A80FFF7E1FF00BD00B50246FFF7D3FFB1
:104D2000C2F30340324908310880091D0A80FFF7A9
:104D3000D3FF00BD00B50246FFF7C5FF100C2C499C
:104D400020310880091D0A80FFF7C6FF00BD002042
:104D50002749103109880907080B254914310988AA
:104D60000843704700BF2248001D008800F0200063
:104D70000028F8D070471E48001D00884FF6F771D4
:104D800008401B49091D088000BF1948001D008804
:104D900000F008000028F8D0704701460020144AAF
:104DA000121D12880A400AB1012000E0002070475D
:104DB0000F49091D098881430D4A121D1180704752
:104DC000014600200A4A121D12880A40D0B2084A41
:104DD00012880A4012B108B1012000E0002070479B
:104DE0000349091D09888143014A121D118070473A
:104DF0000028004010B50446FE48844208D1012135
:104E0000C014FFF709FF0021E014FFF705FFC4E01D
:104E1000B4F1804F08D101210846FFF70AFF0021B5
:104E20000120FFF706FFB8E0F348844208D10121D2
:104E30000220FFF7FEFE00210220FFF7FAFEACE0A1
:104E4000EE48844208D101210420FFF7F2FE002140
:104E50000420FFF7EEFEA0E0E948844208D10121DA
:104E60000820FFF7E6FE00210820FFF7E2FE94E0AD
:104E7000E448844208D101211020FFF7DAFE002126
:104E80001020FFF7D6FE88E0DF48844208D10121D8
:104E90002020FFF7CEFE00212020FFF7CAFE7CE095
:104EA000DA48844208D101214014FFF7B5FE002101
:104EB0006014FFF7B1FE70E0D548844209D10121AA
:104EC000C804FFF7A9FE00214FF40020FFF7A4FE5D
:104ED00063E0D048844209D101210805FFF79CFE18
:104EE00000214FF48010FFF797FE56E0CA48844235
:104EF00009D101214805FFF78FFE00214FF4001072
:104F0000FFF78AFE49E0C548844208D101214020CC
:104F1000FFF78FFE00214020FFF78BFE3DE0C048E9
:104F2000844208D101218020FFF783FE00218020E8
:104F3000FFF77FFE31E0BB48844208D10121801594
:104F4000FFF777FE0021A015FFF773FE25E0B648B6
:104F5000844209D101210804FFF75EFE00214FF4CD
:104F60008030FFF759FE18E0B048844209D1012192
:104F70004804FFF751FE00214FF40030FFF74CFECC
:104F80000BE0AB48844208D101218804FFF744FEBE
:104F900000214FF48020FFF73FFE10BD0022028861
:104FA000944B98420ED0994B98420BD0B0F1804F61
:104FB00008D0914B984205D0904B984202D0904B2C
:104FC000984204D14FF68F731A404B881A438D4B89
:104FD000984207D08C4B984204D04FF6FF431A40BA
:104FE000CB881A4302808B8883850B880385814B8D
:104FF00098420BD0854B984208D08B4B984205D0F5
:105000008A4B984202D08A4B984201D10B7A038690
:1050100001238382704770B5002400220023058C91
:105020004FF6FE7635400584028C8388048B4FF65C
:105030008F752C40B51E2C400D882C43751E2A40C0
:105040000D892A434D882A436A4DA8420BD06F4DE3
:10505000A84208D0744DA84205D0744DA84202D091
:10506000734DA84213D14FF6F7752A404D892A4354
:105070004FF6FB752A408D882A434FF6FF652B407B
:105080004FF6FF552B408D892B43CD892B438380D1
:105090000483CD888586028470BD70B5002400220B
:1050A0000023058C4FF6EF7635400584028C83880B
:1050B000048B48F6FF752C404FF6FF452C400D88B9
:1050C0004FF6FF7606EA05252C434FF6DF752A409A
:1050D0000D8906EA05152A434D8806EA05152A4377
:1050E000444DA84202D0494DA8421DD14FF67F75CC
:1050F0002A404D894FF6FF7606EA05152A434FF6FA
:10510000BF752A408D8806EA05152A434FF6FF35FC
:105110002B404FF2FF752B408D8906EA85052B4306
:10512000CD8906EA85052B4383800483CD880587D6
:10513000028470BD70B5002400220023058C4FF658
:10514000FF6635400584028C8388848B4FF68F750B
:105150002C404FF6FC752C400D882C434FF6FF5524
:105160002A400D894FF6FF7606EA05252A434D8829
:1051700006EA05252A431F4DA84202D0234DA84226
:105180001DD14FF2FF752A404D894FF6FF7606EA92
:1051900005252A434FF6FF352A408D8806EA052566
:1051A0002A434EF6FF752B404DF6FF752B408D8937
:1051B00006EA05152B43CD8906EA05152B438380A6
:1051C0008483CD888587028470BD70B5002200235A
:1051D0000024058C4EF6FF7635400584038C8488C8
:1051E000828B48F6FF752A404FF6FF452A400D880E
:1051F00020E00000002C01400004004000080040B6
:10520000000C004000100040001400400034014039
:10521000004C014000500140005401400018004083
:10522000001C0040002000400040014000440140BC
:10523000004801404FF6FF7606EA05252A434DF661
:10524000FF752B400D8906EA05352B434D8806EA8C
:1052500005352B43FA4DA84202D0FA4DA84208D199
:105260004BF6FF752C408D894FF6FF7606EA8515C3
:105270002C4384808283CD88A0F84050038470BD85
:10528000828B4FF2FF331A408283828B4FF6FF737B
:1052900003EA01231A4382837047F0B50C46154692
:1052A000002200210026078C4EF6FF7C07EA0C073F
:1052B0000784828B018C4FF6FF7707EA043640F6AD
:1052C000FF473A404FF6FF7707EA05273A434FF684
:1052D000FF7707EA03373A43D94FB8420ED0D94F88
:1052E000B8420BD0B0F1804F08D0D74FB84205D0AC
:1052F000D64FB84202D0D64FB84206D14DF6FF770E
:10530000394046F48057394305E047F6FF573940A6
:1053100044F48057394382830184F0BD828B4FF679
:10532000F3731A408283828B0A4382837047F0B5FD
:105330000C461546002200210026078C4FF6FF6C14
:1053400007EA0C070784828B018C4FF6FF7707EA88
:1053500004264FF60C773A404FF6FF7707EA03171B
:105360002F433A43B64FB8420ED0B64FB8420BD097
:10537000B0F1804F08D0B44FB84205D0B34FB84217
:1053800002D0B34FB84206D14FF6FF57394046F42A
:105390008077394305E04FF2FF57394044F4807776
:1053A000394382830184F0BD028B4FF2FF331A40F0
:1053B0000283028B4FF6FF7303EA01231A43028331
:1053C0007047F0B50C461546002200210026078CD8
:1053D0004FF6EF7C07EA0C070784028B018C4FF62F
:1053E000FF7707EA041640F6FF473A404FF6FF778B
:1053F00007EA03373A434FF6FF7707EA05273A43B0
:105400008F4FB8420ED08F4FB8420BD0B0F1804FC3
:1054100008D08D4FB84205D08C4FB84202D08C4F87
:10542000B84206D14FF6DF77394046F010073943CE
:1054300005E04FF65F77394044F0100739430283A7
:105440000184F0BD028B4FF6F3731A400283028B86
:105450000A4302837047F0B50C461546002200212E
:10546000068C4FF6FE773E400684028B018C4FF689
:105470000C7632407E1C06EA03162E433243704EF1
:10548000B0420ED06F4EB0420BD0B0F1804F08D07A
:105490006D4EB04205D06D4EB04202D06C4EB0425F
:1054A00006D14FF6FD76314044F00106314305E068
:1054B0004FF6F576314044F0010631430283018412
:1054C000F0BD70B505460C465D4885420ED05D487E
:1054D00085420BD0B5F1804F08D05B48854205D09E
:1054E0005A48854202D05A48854200D100E000BFA8
:1054F000208850B92389A28861882846FFF7ABFF2E
:10550000E1882846FFF79EFF25E0208804280AD17D
:105510002389A28861882846FFF753FFE18828463F
:10552000FFF742FF17E0208808280AD12389A288C4
:1055300061882846FFF7FBFEE1882846FFF7EEFE6C
:1055400009E02389A28861882846FFF7A6FEE18842
:105550002846FFF795FE70BD2DE9F04105460C4643
:1055600000260127608808B9022600E00026A088EE
:10557000012801D1022700E001272088A0B9238952
:10558000A28861882846FFF766FFE1882846FFF772
:1055900059FF23893A4631462846FFF712FFE18832
:1055A0002846FFF701FF13E02389A2886188284677
:1055B000FFF707FFE1882846FFF7F6FE23893A4602
:1055C00031462846FFF747FFE1882846FFF73AFFB4
:1055D000BDE8F0810A884B881A438B881A43CB8830
:1055E0001A430B891A434B891A438B891A43A0F833
:1055F000442070474FF6FF71818000210180C180F7
:105600004180017270470021018041808180C1800A
:10561000018141818181C1817047002101804180E8
:10562000012181800021C18001817047002101801A
:1056300041808180C180018141818181704700006A
:10564000002C0140003401400004004000080040EC
:10565000000C004021B1028842F00102028004E007
:1056600002884FF6FE731A400280704731B1B0F8DD
:10567000442042F40042A0F8442005E0B0F8442061
:10568000C2F30E02A0F8442070471AB183890B437D
:10569000838102E083898B438381704781827047D5
:1056A00041EA0203A0F8483070471AB183890B43DE
:1056B000838102E083898B438381704701894FF6A0
:1056C000F8721140018170470A46002101894FF6A6
:1056D0008F73194011430181704730B504460D4660
:1056E00029462046FFF7F0FF208940F0070020817F
:1056F00030BD2DE9F04104460D4616461F46602D8B
:1057000006D13B46012231462046FFF75AFE05E00E
:105710003B46012231462046FFF79DFE29462046A2
:10572000FFF7D2FF208940F007002081BDE8F0811B
:1057300030B50C4600210189C9B24FF6FF7505EA64
:105740000325154325432943018130BD2DE9F0414F
:1057500005460E4617469846002443463A463146CB
:105760002846FFF7E5FF2C894FF6F870044044F017
:1057700007044FF68F70044044F070042C81BDE89C
:10578000F081F0B504460D4616461F463B463246AC
:1057900029462046FFF7CCFF208940F48040208135
:1057A000F0BD0185828270470A46002101884FF6CC
:1057B0008F731940114301807047F0B50C461546B0
:1057C0001E460021002200230189028B038C4FF624
:1057D000F877394021434FF6FC473A4040F2011731
:1057E0003A434FF6DD773B404FF6FF7707EA06175F
:1057F0002F433B43018102830384F0BD0A4600210D
:10580000018B4FF68F7319401143018370470A468D
:105810000021018B48F6FF7319404FF6FF7303EA2E
:1058200002231943018370470A460021818B4FF6FA
:105830008F7319401143818370470A460021818B81
:1058400048F6FF7319404FF6FF7303EA022319432A
:105850008183704721B1028842F08002028004E017
:1058600002884FF67F731A400280704721B1828808
:1058700042F00402828004E082884FF6FB731A40F3
:105880008280704721B1828842F00802828004E061
:1058900082884FF6F7731A408280704721B1828860
:1058A00042F00102828004E082884FF6FE731A40C3
:1058B000828070470A460021018B4FF6F77319402A
:1058C0001143018370470A460021018B4FF2FF7399
:1058D00019404FF6FF7303EA02231943018370470F
:1058E0000A460021818B4FF6F773194011438183DB
:1058F00070470A460021818B4FF2FF7319404FF623
:10590000FF7303EA02231943818370470A4600218B
:10591000018B4FF6FB7319401143018370470A4610
:105920000021018B4FF6FF3319404FF6FF7303EA56
:1059300002231943018370470A460021818B4FF6E9
:10594000FB7319401143818370470A460021818B04
:105950004FF6FF3319404FF6FF7303EA0223194352
:10596000818370470A460021018B4FF67F731940EF
:105970001143018370470A460021018BC1F30E01D8
:105980004FF6FF7303EA02231943018370470A4667
:105990000021818B4FF67F7319401143818370473B
:1059A0000A460021818BC1F30E014FF6FF7303EA13
:1059B00002231943818370470A460021018C4FF668
:1059C000FD7319401143018470470A460021018C80
:1059D0004FF6F77319401143018470470A460021BE
:1059E000018C4FF6DF7319404FF6FF7303EA021381
:1059F0001943018470470A460021018C4FF67F73DA
:105A000019404FF6FF7303EA0213194301847047EC
:105A10000A460021018C4FF6FF5319404FF6FF73E1
:105A200003EA02231943018470470A460021018CCE
:105A30004FF2FF7319404FF6FF7303EA0223194335
:105A4000018470470A460021018C4DF6FF7319400E
:105A50004FF6FF7303EA023319430184704730B5F0
:105A6000002301248C40A3B2048C9C430484048C46
:105A700002FA01F5ADB22C43048430BD30B50023E9
:105A800004248C40A3B2048C9C430484048C02FA4A
:105A900001F5ADB22C43048430BD70B5034600203F
:105AA00000241846183001258D40ACB21D8CA5434A
:105AB0001D8409B1082909D100EB6100056825F0B2
:105AC000700505600568154305600EE00D1FC5F300
:105AD0004E052844056825F4E045056005684FF645
