:020000040800F2
:10000000B8470020DD5D0008FD5F0008FF5F0008C5
:1000100003600008076000080B6000080000000093
:100020000000000000000000000000000F60000859
:10003000116000080000000013600008156000084F
:10004000F75D0008F75D0008F75D00089B140008E5
:10005000F75D0008F75D0008F75D0008F75D000830
:10006000F75D0008F75D0008F75D0008F75D000820
:10007000F75D0008F75D0008F75D0008F75D000810
:10008000F75D0008F75D0008F75D0008F75D000800
:10009000F75D0008F75D0008F75D0008F75D0008F0
:1000A000F75D0008F75D0008F75D0008F75D0008E0
:1000B000F75D000877040008F75D0008F75D0008A9
:1000C000F75D0008F75D0008F75D0008F75D0008C0
:1000D000F75D000845060008F75D0008F75D0008B9
:1000E000F75D0008F75D0008F75D000800F002F812
:1000F00000F05EF80AA090E8000C82448344AAF164
:100100000107DA4501D100F053F8AFF2090EBAE861
:100110000F0013F0010F18BFFB1A43F0010318473B
:10012000B48B0000D48B000010F8013B0A4413F09C
:10013000030408BF10F8014B1D1108BF10F8015B44
:10014000641E05D010F8016B641E01F8016BF9D133
:10015000002D15D010F8014B03F00C030C2BA1EB74
:1001600004040ABF10F8013BA4EB8314A4EB03249E
:1001700005F1010314F8016B5B1E01F8016BF9D561
:10018000914238BF10F8013BD1D3704700230024BF
:1001900000250026103A28BF78C1FBD8520728BF97
:1001A00030C148BF0B6070471FB51FBD10B510BDF3
:1001B00005F066FF1146FFF7F7FF00F015F805F0B0
:1001C00084FF03B4FFF7F2FF03BC05F089FF0000D2
:1001D0002C49096801602B49091D096841602949BA
:1001E000083109688160704705F087FE482000F0FB
:1001F0005BFF00F05BF803F05BFB03F073FB4FF475
:100200007A7021490880214A0021084603F053FCF6
:1002100000F090FE00F0E0FC01F0A0FD1B4A002180
:10022000084601F085F91AA20821032001F080F99F
:100230001A4A0021084603F03EFC01F0D1F84FF4C1
:10024000E1510A2000F0F5F800F0D5F840F2E7306F
:100250000D49088001201249087012E01148007809
:1002600080F001000F49087001F033FA0E48B0F831
:10027000D801012805D100200B49A1F8D80100F0D0
:10028000F7FBEBE7E8F7FF1F5E380020D0370020D0
:10029000727463B3F5CABCBBAF000000DF4000203E
:1002A0004500002000000020E43E00203348806923
:1002B00040F00400314988614FF033303049086024
:1002C000081D00682F4908402D49091D086008468F
:1002D00000682D4908432A49091D08600020284963
:1002E0000C3108602548806940F008002349886186
:1002F00026480068264908402449086008460068E6
:100300002449084321490860081D006800F47F4023
:10031000091D0860084600681F4908431B49091D5C
:100320000860881519490C3108601448806940F04C
:100330001000124988611948194908601948486035
:100340000020C8600D48806940F020000B4988619A
:100350001548006820F4706013490860084600687A
:1003600040F44070086010480C3000684FF6FB7194
:1003700008400D490C310860704700000010024031
:10038000000801400FF00F0003300300000C014093
:1003900000FF0FFF3800300033003333333333882E
:1003A00000100140888833330014014010B5014625
:1003B0000020A0201BE0664A32F810208A4214DC9C
:1003C000634A32F810208A4200D112E0604A32F8C3
:1003D0001020531A5E4C421C34F81220521A9342D9
:1003E00000DC06E0421CD0B203E0421ED0B200287E
:1003F000E1DC00BF10BD08B525208DF8000003200A
:100400008DF801008DF8020001208DF80300684688
:1004100003F055FC1D208DF8000000208DF8010030
:1004200001208DF802008DF80300684603F047FCB8
:1004300008BD3EB505460C460121022004F04BF8EC
:10044000681E80B2ADF80400601E80B2ADF80000F6
:100450000020ADF80600ADF8020069463D4804F002
:1004600009FA012241213B4804F07BFD0121394872
:1004700004F05CFD3EBD10B50121364805F01FF8C3
:10048000002864D00121334805F02AF83248018859
:100490000088401C304A108041F28830814208DBDD
:1004A00000201146088001202C49087000202C49AA
:1004B00008702C4801680068401C2A4A1060B1F599
:1004C000FA7F03D800202849087002E0012026495D
:1004D000087024480068B0F57A7F02D900202149CD
:1004E000086003F031F821480078002805DD00207D
:1004F0001E49087001201E4908701E480078C0B1CE
:100500001D4801880088401C1B4A1080B1F57A7F85
:1005100002DB00201146088017480088B0F5FA7FFA
:1005200003DA01201549087008E00020134908701B
:1005300004E0002010490880104908701048007835
:1005400020B100200E4908700349088000BF10BD8B
:100550005C00002000040040A201002043000020B5
:10056000A0380020A4010020440000209F38002073
:100570003A00002038000020A801002039000020A7
:100580009D38002010B586B00446012144F20500D4
:1005900003F094FF4FF40070ADF8140003208DF8C1
:1005A000160018208DF8170005A9FE4805F0C8FAB6
:1005B0004FF48060ADF8140004208DF8170005A9F1
:1005C000F84805F0BDFA25208DF8000003208DF8CD
:1005D00001008DF8020001208DF80300684603F049
:1005E0006EFB01940020ADF80800ADF80A00ADF8EC
:1005F0000C00ADF810000C20ADF80E0001A9EA487F
:1006000004F0B5FF0020E9490870E94800684FF69A
:10061000FF510840E649086042F2107000F096FD74
:10062000002240F22771E04805F039F8012240F23B
:100630002551DD4805F033F80121DB4805F023F8AA
:1006400006B010BD10B5DB480078401CD9490870D1
:1006500008460078642804DB002008700120D64991
:10066000087040F22551D04805F0FEF8B0B10020E6
:10067000D0490870D148007864280CDACA4805F0DF
:1006800073F8C1B2CD4802780078401CCB4B18708B
:10069000CB48815402E00020C849087040F227711D
:1006A000C14805F0E1F870B30020C2490870BF48A6
:1006B0000078C449097888420BDCBC48027800788D
:1006C000401CBA4B1870C048815CB74805F048F828
:1006D00019E00020B5490870B54800684FF6FF5191
:1006E0000840B349086042F2107000F02FFD00226C
:1006F00040F22771AC4804F0D2FF012240F22551AC
:10070000A94804F0CCFF10BD70B504460D46002684
:10071000AE480078AC49087003204870200A887001
:10072000CC70280A08714D710620A6490870084649
:100730000178A54802F0F8FF0646300AA249887100
:10074000CE7108209F4908709948006840F40070F5
:100750009749086042F2107000F0F8FC002240F265
:100760002551914804F09BFF012240F227718E48E9
:1007700004F095FF70BD70B504460D460026934801
:1007800000789149087006204870200A8870CC7063
:10079000280A08714D7106208A49087008460178B8
:1007A000894802F0C1FF0646300A87498871CE7138
:1007B0000820844908707E48006840F400707C4935
:1007C000086042F2107000F0C1FC002240F2255196
:1007D000754804F064FF012240F22771724804F06A
:1007E0005EFF70BD2DE9F04106460D46002700244E
:1007F000764800787449087010204870300A887074
:10080000CE70280A08714D716806000E88710720A5
:100810006C49087000BF13E030196D4931F81000C1
:10082000000A072101EB4401674A50543019684916
:1008300011F81000082101EB44015054601CC4B2AF
:10084000AC42E9DB5F48007800EB45005D49087089
:10085000084601785C4802F067FF0746390A5A48A3
:10086000584A12788154024656480078401C175462
:1008700054480078801C534908704D48006840F483
:1008800000704B49086042F2107000F05FFC0022DB
:1008900040F22551444804F002FF012240F2277142
:1008A000414804F0FCFEBDE8F0812DE9F04700244A
:1008B000A046A146002641480078042870DD404843
:1008C0004078032804D0062844D0102869D196E047
:1008D0003B4885788078471038480178681D814208
:1008E00037DB374800783949097888422ED1E91C2E
:1008F000334802F019FF06463149281D095C304A89
:10090000E81C105C01EB0020B0421FD1002413E072
:10091000042000EB44002A49085C032101EB440158
:10092000274A515C00EB012081B204F13E00284AC5
:1009300022F81010601CC4B2BC42E9DB25480068F4
:10094000401C2449086000202349087000201B49EE
:1009500008707BE01948007808284FDB18480078B9
:100960001A490978884246D10621154802F0DCFE72
:1009700006461348C0791249897900EB0120B0423C
:1009800039D10F48C0780E49897800EB01201FFA51
:1009900080F80B4840790A49097900EB01201DE0F5
:1009A00055E04FE00008014000380140AF01002051
:1009B0000C0C0140BD010020BC010020AE01002054
:1009C000023A0020AD01002008390020AC010020CF
:1009D000FC3A00204C0000205A0000201FFA80F949
:1009E0001C4820F818901C480068401C1A490860F0
:1009F00000201A49087000201949087026E018489C
:100A0000007808281DDB17480078174909788842C4
:100A100014D10621134802F087FE06461148C0791A
:100A20001049897900EB0120B04207D10A480068DB
:100A3000401C0949086000200C4908700020084942
:100A4000087003E000200649087000BF00BFBDE841
:100A5000F0870000F03C002054000020B00100208E
:100A6000AE010020023A0020AC010020B1010020BC
:100A700070B50024002500260121C82000F088FA66
:100A80000121C92000F084FA0121CA2000F080FA77
:100A90000121CB2000F07CFA0221CC2000F078FA72
:100AA0000221CD2000F074FA0221CE2000F070FA6D
:100AB0000221CF2000F06CFA0821D02000F068FA63
:100AC0000821D12000F064FA0821D22000F060FA59
:100AD0000821D32000F05CFA0921D42000F058FA54
:100AE0000921D52000F054FA0921D62000F050FA4F
:100AF0000921D72000F04CFA00BF2FE0494830F818
:100B000034000512474810F834606000294600F0B0
:100B10003FFA012101EB4400314600F039FA414827
:100B200030F83400404921F834003E4800EBC4005E
:100B3000408801EBC40148803A4800EBC40080883B
:100B4000394901EBC4018880364800EBC400C088F5
:100B5000354901EBC401C880601CC4B23C2CCDDB1C
:100B600070BD10B50021782000F012FA0121792023
:100B700000F00EFA10BD70B500240025002600BF5D
:100B800027E0600000F0DAF90646012101EB44009D
:100B900000F0D4F9054606EB0520234921F834007E
:100BA000204800EBC400408801EBC40148801D4888
:100BB00000EBC40080881C4901EBC40188801948FF
:100BC00000EBC400C088184901EBC401C880601C58
:100BD000C4B23C2CD5DB70BD70B50025552441F660
:100BE000FF7000F0ABF90546A54215D0214641F64D
:100BF000FF7000F0CDF941F6FF7000F09FF9054657
:100C0000A54202D1FFF734FF06E0084A002108465A
:100C100002F051FF00BFFEE7FFF7A3FFFFF7ABFFB6
:100C200070BD0000C0010020E43E00203804002018
:100C300008B50121082003F041FCC020ADF80000F8
:100C400010208DF8030003208DF802006946B64895
:100C500004F076FF0120B5490860B549C1F89C0150
:100C600008BD10B5B048006820F07040AE4908607B
:100C70000846006840F0405008600120AB49091D5B
:100C80000860AB49C1F89801042000F043FA002045
:100C9000A649091D0860042000F03CFA0020A44980
:100CA000C1F8980110BD10B59F48006820F0704051
:100CB0009D4908600846006840F0405008600020E8
:100CC0009A490860042000F025FA01209849C1F8EB
:100CD0009C01042000F01EFA0120944908600420C1
:100CE00000F018FA00209249C1F89C01042000F09D
:100CF00011FA00208D49086010BD10B58A480068BF
:100D000020F07040884908600846006840F0405074
:100D100008600020854908608549C1F89C010420CD
:100D200000F0F8F90120814908608149C1F89C016F
:100D3000042000F0EFF910BD10B57B48006820F0EA
:100D40007040794908600846006840F040500860EB
:100D5000002076490860042000F0DCF90020744986
:100D6000C1F89C01042000F0D5F901206F4908600A
:100D7000042000F0CFF901206D49C1F89C01042046
:100D800000F0C8F9002069490860042000F0C2F9A9
:100D900010BD10B500246448006820F0704062491E
:100DA00008600846006840F00040086001205F4984
:100DB000091D086000F0AEF901205D49C1F89801F5
:100DC00000F0A8F907E0601CC4B2FA2C03DDFFF7BD
:100DD000B3FF012010BD55487C3800680028F2D1CF
:100DE0005249086000BFF5E710B500204F49086080
:100DF0004D48006820F070404B4908600846006884
:100E000040F04050086000204949C1F89C01022090
:100E100000F080F9012045490860022000F07AF9CD
:100E200000204349C1F8980110BD10B500203F498A
:100E300008603D48006820F070403B490860084663
:100E4000006840F04050086001203949C1F89C0119
:100E5000022000F05FF9012034490860022000F010
:100E600059F900203249C1F8980110BD70B5044607
:100E70002D48006820F070402B4908600846006843
:100E800040F040500860002028490860002517E025
:100E9000E0092649091D08606006040E022000F0E2
:100EA00039F901202249C1F89801022000F032F9F5
:100EB00000201E490860022000F02CF9681CC5B211
:100EC000082DE5DB70BD70B50546002416480068A6
:100ED00020F07040144908600846006840F0004067
:100EE0000860002616E0002010490860022000F08B
:100EF00011F901200E49C1F898016006040E0B4853
:100F00007C38006808B1601CC4B2012000F002F90E
:100F1000701CC6B2082EE6DB15B9FFF786FF01E0AC
:100F2000FFF762FF204670BD000C0140988121420E
:100F30000080214210B5FFF77BFE10BD70B504465E
:100F40000026FFF7B0FEA020FFF790FFFFF721FF7C
:100F50002012FFF78BFFFFF71CFF2546E11704EB7C
:100F600011610912A4EB0121C8B2FFF77FFFFFF75F
:100F700010FFFFF798FEA120FFF778FFFFF709FFAA
:100F80000020FFF7A0FF0646FFF7D6FE304670BDF3
:100F900070B504460E46FFF786FEA020FFF766FFF9
:100FA000FFF7F7FE2012FFF761FFFFF7F2FE25467D
:100FB000E11704EB11610912A4EB0121C8B2FFF79C
:100FC00055FFFFF7E6FE3046FFF750FFFFF7E1FE63
:100FD000FFF7B2FE0A2000F081F870BD2DE9F04164
:100FE00005460E461746002409E0E20026FA02F202
:100FF000D1B22A1990B2FFF7CBFF601CC4B2BC4239
:10100000F3DBBDE8F0812DE9F04107460C460026F0
:10101000002509E036023919491B491E88B2FFF73D
:101020008DFF0644681CC5B2A542F3DB3046BDE81F
:10103000F08110B5FF20FFF781FF0446552C01D148
:10104000002010BD5521FF20FFF7A2FFFF20FFF772
:1010500075FF0446552C01D10020F2E70120F0E78E
:1010600070B506460C46154608E03046721C96B22E
:10107000FFF764FF04F8010B681E85B2002DF4D160
:1010800070BD70B505460C46164606E02178284628
:10109000FFF77EFF681C85B2641C3000A6F10101D9
:1010A0008EB2F3D170BD000010B504466FF004009D
:1010B00002F04FFEE11704EB5171C1F3C701264A5C
:1010C00011701046007800EB4001C1EBC0104FF6E4
:1010D000FF7101EAC0002149088010BD01461F4A86
:1010E00012884A434FF0E0235A6100229A6101229C
:1010F0001A6100BF4FF0E022106900F001021AB13E
:1011000000F48032002AF5D000224FF0E0231A616B
:101110009A6170470146104A12784A434FF0E02323
:101120005A6100229A6101221A6100BF4FF0E02249
:10113000106900F001021AB100F48032002AF5D0E3
:1011400000224FF0E0231A619A61704700E0401ED0
:101150000028FCD170470000B2040020B404002035
:1011600008B503208DF8000001208DF80100002053
:101170008DF8020001208DF80300684602F09FFD03
:1011800008BDF0B503460C461546642093FBF0F00D
:10119000C6B2642093FBF0F700FB1730C1B2132EE8
:1011A00002DD01F16400C1B20846CF1701EB977769
:1011B00001EBA707BAB2072092FBF0F700FB17205C
:1011C00082B25719601EDFF848C31CF8000038448B
:1011D00082B2CF1701EB9777BF10A1EB87071FB93A
:1011E000032C01DA501E82B2072092FBF0F700FBBD
:1011F0001720C0B2F0BD0146CA1701EB92729210DF
:10120000A1EB820292B9642091FBF0F200FB121074
:1012100050B94FF4C87091FBF0F200FB121008B9FE
:10122000012070470020FCE70120FAE70020F8E7E2
:1012300070B5002600240025B64806883604001D37
:1012400000880644B448B6FBF0F4B4480088A042D5
:101250003CD0B2490C8040F2B27510E02846FFF74E
:10126000CAFF40B1B4F5B77F02D3A4F5B77404E068
:10127000681C85B206E0A4F26D14681C85B2B4F552
:10128000B67FEBD800BFA6488580002516E0A449AC
:101290008888FFF7B0FF30B1012D04D11D2C01D398
:1012A0001D3C09E00CE09F48405DA04203D89D48EA
:1012B000405D241A00E003E0681C85B21C2CE6D2D5
:1012C00000BF681C96498871601CC8719248B6FBC3
:1012D000F0F100FB11644FF46160B4FBF0F0904951
:1012E00008704FF46160B4FBF0F100FB11403C2149
:1012F000B0FBF1F08A4948704FF46160B4FBF0F143
:1013000000FB11403C21B0FBF1F201FB12008449CB
:1013100088700B46DA7999799888FFF732FF80490F
:101320000872002070BD2DE9F05F06460F4690461A
:101330009946DDE90AAB002440F2B270864203DB35
:1013400040F63300864202DD0120BDE8F09F40F206
:10135000B2750AE02846FFF74EFF10B17248044408
:1013600001E072480444681C85B2B542F2DB781E85
:10137000C7B2002510E06B48405D40F2A32148430E
:1013800004EBC0143046FFF736FF18B1012D01D130
:1013900061480444681C85B2BD42ECDBA8F1010041
:1013A00040F2A321484304EBC014C9EB4910C0EB41
:1013B000092004EB0014CAEB0A1004EB80045C441F
:1013C00003F03CF9204603F006F90121080703F079
:1013D00082F8012004F0F9FA03F030F90020B4E7B4
:1013E0001CB50024FFF7BCFE042004F0B6FA45F259
:1013F0005001884243D001214FF0C05003F06BF8F8
:10140000012004F0E2FA04F073FA012002F0C3FFB5
:1014100004E0601CC4B20A20FFF760FE412002F025
:1014200022FF0028F5D0FA2C01DB01201CBD4FF46F
:10143000807002F0CCFF012002F0CFFF03F007F92B
:1014400003F0FCF80121084603F09CF803F0F6F8DD
:1014500047F6FF7003F0CCF803F0F0F800202921E4
:101460000A231B22CDE90010082140F2DE70FFF7AD
:101470005AFF45F25001042004F063FA07E003F03C
:10148000E6F80121084603F07DF803F0D7F8FFF7EE
:10149000CFFE03F051F80020C8E700B51D4814380E
:1014A000008800F0010008B1FFF7C2FE19481438A7
:1014B000008800F0020038B116481438008820F087
:1014C000020014491439088012481438008840F684
:1014D000FA7108400F491439088000BF0D481438CC
:1014E000008800F020000028F8D000BD70B5034649
:1014F000002409E013F8015B11F8016BB54201D03B
:10150000002070BD601CC4B29442F3DB0120F8E7F8
:10151000A18A00081828004080510100B60400206C
:10152000C4400020AD8A00080085E2018033E1015B
:1015300030B5C0EB001301EB4303FD4C23800AE000
:1015400012F8013BFB4CFA4D2D886355F84B1B8874
:101550005B1CF74C23801378002BF1D130BDF0B524
:101560000024C0EB001501EB4505F14E35800CE081
:10157000651CACB212F8015BEE4EED4F3F88F5559D
:10158000EB4D2D886D1CEA4E35809C42F0DBF0BDA2
:10159000F0B504460E461546002700223346D01803
:1015A000411013E034F81100A84202D10F4638462A
:1015B000F0BD34F81100A84204DA481C82B2D018F9
:1015C000411003E0481E83B2D01841109A42E9DD71
:1015D0004FF0FF30ECE710B50024D7480088D7491A
:1015E0000880D748007801280EDBD54800780A2803
:1015F0000ADCD148008800EB8000D149097801EB72
:101600004000CD4908803BE0CD4800780C280FD140
:10161000C948008820B940F2E730C74908802FE068
:10162000C54800880A2190FBF1F0C349088027E0F3
:10163000C34800780B2809D1BF48008840F2E73141
:1016400088421DD10020BC49088019E0BC480078C0
:101650000E2810D1BB48007880F00100B94908700D
:101660000846007818B10120B749087008E000204A
:10167000B549087004E0B2480078102800D000BFD7
:101680000020AF490870AC4802886A21AF48FFF7D4
:101690007FFF002815DBA8480088632818DDA648CE
:1016A000008840F2E731884212DAA34802883C21E0
:1016B000A748FFF76DFF0446002C09DBA5490C8005
:1016C00006E00120A44908709C4800889A490880D7
:1016D00010BDF8B50024A14DFFF77DFF96480088A6
:1016E000342812D006DC022809D0032809D0332878
:1016F00011D108E035280AD036280CD109E00024A1
:101700000AE0012408E0022406E0032404E00424A3
:1017100002E0052400E000BF00BF9148007840B11E
:1017200000208F4908708F49085540F2E730824900
:1017300008808148008840F2E731884214D18A4805
:10174000007800280FD143F21A202844A0F1790232
:1017500000210846FFF7ECFE00F09DFB754A0021D2
:10176000084602F0A8F948E17348008858B1724869
:101770000088012807D070480088052803D06E48EB
:101780000088062816D16C4802886A216F48FFF746
:10179000FFFEC0EBC001C1EBC010704946183246D5
:1017A00000210846FFF7C4FE624A0021084602F005
:1017B00082F922E160480088022817D05E4800883C
:1017C000032813D05C48008804280FD05A480088AA
:1017D00033280BD058480088342807D05648008852
:1017E000352803D054480088362830D15248008824
:1017F000322816DA504802886A215448FFF7C8FE9A
:10180000C0EBC001C1EBC01054494618324600215C
:101810000846FFF78DFE474A0021084602F04BF9C3
:10182000EBE045480088332803D04348008834283B
:1018300002D101F0FBFCE0E03F480088352803D0EE
:101840003D48008836288ED101F011FED5E03A4897
:1018500000880B2826DB38480088102822DC364810
:1018600002886A213948FFF793FEC0EBC001C1EB43
:10187000C0103A494618324600210846FFF758FE84
:101880002D4909880A2291FBF2F302FB1311491E2C
:10189000364A52F821008047264A0021084602F0C5
:1018A0000AF9AAE024480088152820DB224800888D
:1018B00029281CDC204802886A212448FFF768FE9A
:1018C000C0EBC001C1EBC0102449461832460021CC
:1018D0000846FFF72DFE18480088252801D100F0A2
:1018E000ACFA144A0021084602F0E5F885E01248F7
:1018F00000883D283CDB10480088442838DC0E482E
:1019000002886A211148FFF743FEC0EBC001C1EB1A
:10191000C01012494618324600210846FFF708FE5B
:1019200000F0B8FA034A0021084602F0C4F864E067
:101930006A380020DF4000205E3800206838002030
:101940009C3800206E38002038000020B8040020A9
:10195000A0030020563800203C000020B6050020DF
:10196000A0380020613800203900002074380020A1
:10197000A5480088D32804DBA3480088B0F5907FF1
:1019800009DDA1480088B0F59B7F09DD9E480088ED
:10199000B0F5B07F04DC01F05CF800F015FE2CE03F
:1019A00099480088B0F5CD7F09DD97480088B0F5EB
:1019B000CF7F04DA01F04DF800F006FE1DE09248FA
:1019C000008840F26911884204D08F480088B0F541
:1019D000B57F12D18C4802886A218C48FFF7D8FD68
:1019E000C0EBC001C1EBC010894946183246002146
:1019F0000846FFF79DFD00F089FC86480078002826
:101A000068DD81480088B0F57A7F63DCFF20192308
:101A10003422052100900B2002F0CAF80020172381
:101A20003222072100900D2002F0C2F87948007898
:101A30000D2837D2DFE800F03607121D1E1F36369C
:101A4000363636202B0074A20721012002F033F82D
:101A500076A20721022002F02EF823E06EA20721D1
:101A6000012002F028F876A20721022002F023F8D4
:101A700018E017E016E015E076A20721012002F039
:101A80001AF879A20721022002F015F80AE07BA2D9
:101A90000721012002F00FF87DA20721022002F0A9
:101AA0000AF800BF00BF5B4800780A280BDA322032
:101AB000FFF714FB01207B4908703220FFF70EFB73
:101AC0000120784908704FF47A70FFF707FB002077
:101AD000504908707448007801281DD100207349CE
:101AE0000860FF2019233422052100900B2002F00A
:101AF0005FF8002017233222072100900D2002F00A
:101B000057F86BA20721012001F0D5FF6DA2072134
:101B1000022001F0D0FF02E00120644908606E4815
:101B20000078012821D14FF4FA70FFF7D7FAFF208F
:101B300019233422052100900B2002F039F80020EF
:101B400017233222072100900D2002F031F863A202
:101B50000721012001F0AFFF65A20721022001F05B
:101B6000AAFF4FF4FA70FFF7B9FA66480078012827
:101B700021D14FF4FA70FFF7B1FAFF201923342274
:101B8000052100900B2002F013F8002017233222C9
:101B9000072100900D2002F00BF85BA20721012025
:101BA00001F089FF5DA20721022001F084FF4FF4BC
:101BB000FA70FFF793FA5E48B0F8A600012821D129
:101BC0004FF4FA70FFF78AFAFF2019233422052117
:101BD00000900B2001F0ECFF002017233222072198
:101BE00000900D2001F0E4FF52A20721012001F036
:101BF00062FF55A20721022001F05DFF4FF4FA7049
:101C0000FFF76CFAF8BD00005E380020B804002031
:101C1000B60500203C00002020202020BEAF202060
:101C20002020CABE202020200000000020202020EC
:101C3000CEDED0A7B2D9D7F72020202000000000A8
:101C400020202020C9E8B6A8B3ACCFDE2020202079
:101C50000000000020202020202020202020202004
:101C6000202020200000000020202020C9E8B6A865
:101C7000D5FDC8B720202020000000002020202013
:101C8000B3A7BCD2B2CECAFD2020202000000000A5
:101C900020202020BBD6B8B4B3C9B9A6202020206C
:101CA000000000003A00002039000020A0812142FD
:101CB00020202020B9CA20202020D5CF202020207D
:101CC0000000000020202020D1B9C1A6B3ACCFDE97
:101CD000202020200000000046000020C9CFCFC2F5
:101CE000CEBBCDA8D1B6B9CAD5CF20200000000008
:101CF000B9CAD5CFC2EBA3BA303031202020202082
:101D00000000000047000020D3EBB1E4C6B5C6F7E1
:101D1000CDA8D1B6B9CAD5CF00000000B9CAD5CF79
:101D2000C2EBA3BA30303220202020200000000077
:101D3000FC3A0020202020CFB5CDB3D0DDC3DFD6C4
:101D4000D0202020000000002020BDFBD6B9C8CE46
:101D5000BACEB2D9D7F720200000000000B587B076
:101D600001214FF4027002F0A9FB4FF4004002F091
:101D700009FB0120ADF8040000208DF8070001A93F
:101D8000254803F0DDFE254802F002F8002002900D
:101D90008DF80C008DF80D004FF4602004900020A9
:101DA000059001208DF8180002A91C4802F017F8D0
:101DB00001211A4802F03FF8184802F05EF800BF0F
:101DC000164802F05FF80028FAD1144802F064F8CF
:101DD00000BF124802F065F80028FAD101210F482F
:101DE00002F069F807B000BD10B5072301220821F1
:101DF0000A4802F08CF80121084802F05CF800BFA4
:101E00000221064802F0C8F90028F9D0034802F080
:101E1000E5F80349088010BD000C01400024014092
:101E200070380020002000BF04E02021FE4A115439
:101E3000411CC8B27928F8DB704708B50020009033
:101E40007820FFF77BF8F94908707920FFF776F8DA
:101E5000F74908700023012208460178684601F01E
:101E6000F3FE01236A4619460220FFF778FBF1A230
:101E700002210846FFF75CFB00230222EB480178B1
:101E8000684601F0E1FE02236A4603211846FFF787
:101E900066FB08BD70471CB5002000900190E6A2CB
:101EA0000A21FFF745FBE7A200210120FFF740FBD5
:101EB000E74800680521B0FBF1F400230922214620
:101EC000684601F0C1FE6A4609210120FFF730FB98
:101ED000E0A213210120FFF72BFBE0A2002102204A
:101EE000FFF726FB00230922DE480168684601F05F
:101EF000ABFE6A4606210220FFF71AFBDAA2102188
:101F00000220FFF715FB00230922D8480168684624
:101F100001F09AFE6A4613210220FFF709FBD4A2C2
:101F200000210320FFF704FB00230922C8480168B1
:101F3000684601F089FE6A4606210320FFF7F8FA99
:101F4000C9A210210320FFF7F3FA00230922CA488F
:101F50000168684601F078FE6A4613210320FFF706
:101F6000E7FA1CBD00B593B00020119012900F90BD
:101F700010900D900E900B900C9009900A90079085
:101F80000890059006900390049001900290012320
:101F90000422BA48018811A801F056FE0123042248
:101FA000B74801880FA801F04FFE01230422B5486D
:101FB00001880DA801F048FE01230422B2480188DF
:101FC0000BA801F041FE01230422B048018809A8B2
:101FD00001F03AFE01230422AD48018807A801F070
:101FE00033FE01230422AB48018805A801F02CFE32
:101FF00001230422A848018803A801F025FE01233B
:102000000422A648018801A801F01EFE11AA02219F
:102010000120FFF78DFA0FAA02210846FFF788FA80
:102020000DAA02210320FFF783FA0BAA0C2101203D
:10203000FFF77EFA09AA0C210220FFF779FA07AA16
:102040000C210320FFF774FA05AA18210120FFF7DD
:102050006FFA03AA18210220FFF76AFA01AA1821D1
:102060000320FFF765FA704A0021084601F023FDBE
:1020700013B000BD08B50020009089480078401CCE
:10208000874908700846007842F20F71884202DDE5
:1020900000208349087000230422814801786846A3
:1020A00001F0D2FD04236A4609210020FFF757FA08
:1020B00004236A4609210120FFF751FA04236A46E6
:1020C00009210220FFF74BFA04236A46162100205B
:1020D000FFF745FA04236A4616210120FFF73FFA6D
:1020E00008BD704708B5002000906E4801780023B5
:1020F0000222684601F0A8FD6A460D210120FFF783
:1021000017FA69A20F210120FFF712FA65484178FA
:1021100000230222684601F097FD6A461321012040
:10212000FFF706FA62A215210120FFF701FA5D48C8
:10213000017800230222684601F086FD6A460D21DF
:102140000220FFF7F5F958A20F210220FFF7F0F95E
:102150005448417800230222684601F075FD6A4622
:1021600013210220FFF7E4F951A215210220FFF705
:10217000DFF908BD10B588B00020079018224D493E
:1021800001A803F048FF01AC4648818800230422DF
:1021900007A801F059FD042307AA00210120FFF739
:1021A000DEF9404881790023022207A801F04CFDA6
:1021B000022307AA06210120FFF7D1F93948C17986
:1021C0000023022207A801F03FFD022307AA0A21EB
:1021D0000120FFF7C4F93348007A00EB40000219F0
:1021E00004210220FFF7A4F92E48017800230222DF
:1021F00007A801F029FD022307AA00210320FFF709
:10220000AEF9284841780023022207A801F01CFDFE
:10221000022307AA03210846FFF7A1F92148817884
:102220000023022207A847E0DF4000205D3800209D
:102230005C3800202E0000002020202020202020BC
:102240000000000020202020202020203A00000054
:1022500048000020282020290000000077726974BF
:10226000653A0000500000206F6B3A0054000020D7
:1022700072656164203A00004C00002022000020BA
:102280002400002026000020280000202A00002032
:102290002C0000202E000020300000203200002002
:1022A0008C380020C4400020D0A1CAB1000000003A
:1022B000B7D60000BC8A000801F0C6FC022307AABA
:1022C00006210320FFF74BF9FE4A0021084601F0E2
:1022D000F2FB08B010BD38B5002400200090FA4889
:1022E000008800EB4010C0F307340123022221468E
:1022F000684601F0A9FC6A4600210120FFF718F9A1
:10230000F2A203210120FFF713F938BD2DE9F041B6
:1023100088B00024002500200790059006900390C7
:102320000490002600278046E948008840F26911A1
:10233000884209D1E7480079A0F5FA60C6B2E548BD
:10234000877990F8078004E0E2480678477890F8AB
:10235000028000230222314607A801F075FC022307
:1023600007AA07210120FFF7FAF8002302223946C5
:1023700007A801F069FC022307AA0B210120FFF73F
:10238000EEF800230222414607A801F05DFC02237B
:1023900007AA0F210120FFF7E2F810E1CE480078EC
:1023A000E0B1CD4800780A2818DCCB4800780A282C
:1023B00002D10020C8490870C748007805A94855CF
:1023C000681CC0B20546062800DB00250020C24973
:1023D0000870C2A211210320FFF7AAF8002406E02A
:1023E00005A8005D303003A90855601CC4B2062C56
:1023F000F6DBB94800780B2878D1B548008840F260
:102400006911884221D19DF8140000EB80004FF43F
:10241000FA6101EB40009DF815100844AD49888031
:102420009DF817009DF8161001EB810100EB4100AB
:10243000A84988719DF819009DF8181001EB8101D9
:1024400000EB4100A349C8711DE09DF815009DF8FF
:10245000141001EB810100EB41009E4908709DF8CA
:1024600017009DF8161001EB810100EB410099491E
:1024700048709DF819009DF8181001EB810100EBE0
:102480004100944988709348807892494978DFF8F0
:1024900044C2CDE900109CF800309CF807209CF85D
:1024A0000610BCF80400FEF73EFF8FA211210320A6
:1024B000FFF73EF8834A0021084601F0FCFA4FF48A
:1024C0007A70FEF70BFEAFF2902211210320FFF786
:1024D0002FF800257E4800880A2190FBF1F07C4906
:1024E000088000207C4908706AE0FFE77A4800789D
:1024F0000C280BD10025764800880A2190FBF1F0CA
:102500007349088000207449087059E0062D28D2CC
:10251000DFE805F003090F151B2176A20721032030
:10252000FFF706F81DE076A207210320FFF700F869
:1025300017E076A207210320FEF7FAFF11E076A24A
:1025400007210320FEF7F4FF0BE076A2072103200A
:10255000FEF7EEFF05E076A207210320FEF7E8FF75
:1025600000BF00BF012303AA07210220FEF7F7FFE7
:1025700001230DF10D0208210220FEF7F0FF0123D7
:102580000DF10E020B210220FEF7E9FF01230DF1F0
:102590000F020C210220FEF7E2FF012304AA0F2103
:1025A0000220FEF7DCFF01230DF1110210210220B1
:1025B000FEF7D5FF434A0021084601F07CFAEDE61C
:1025C00000BF08B0BDE8F08110B500245B485C494D
:1025D000098830F831005B4908803F4800780028BE
:1025E00063D03D4800780A285FDC3B4800780A2821
:1025F00002D100203849087001205349087053481F
:10260000007800283AD10120504908700020504934
:102610000870002404E000204E490855601CC4B234
:10262000052CF8DB45484649098800EBC100C08805
:102630000E2821D2DFE800F007191A1B120C131C18
:10264000140B0D20150E01204349087015E000BF42
:1026500000BF00BF0220404908700EE000BF00BF6D
:1026600000BF03203C49087007E000BF00BF00BF67
:1026700004203949087000E000BF00BF1648007808
:102680003649334A1278885431480078401C304922
:1026900008700846007830490978884202DB00203B
:1026A0002B49087000200C4908700B4800780B2853
:1026B00073D125480078002870D000202349087085
:1026C00021494DE0DF400020703800205600000016
:1026D0005E380020C44000209C380020C9E8B6A81D
:1026E000D6D02E2E00000000C9E8B6A8CDEAB3C9A6
:1026F000000000005F20202020202020202000005B
:10270000205F2020202020202020000020202020CA
:102710005F2020202020000020202020205F20207B
:102720002020000020202020202020205F200000EA
:102730002020202020202020205F0000E43E0020D8
:10274000563800208E380020493800208D3800206F
:102750004A380020513800204B3800204C380020E7
:102760000870002405E0FD48005DFD490855601C27
:10277000C4B2052CF7DB002404E00020F74908551B
:10278000601CC4B2052CF8DBF648F749098800EB59
:10279000C100C0880E2859D201E03BE1CCE0DFE85F
:1027A00000F00736373821102239230F1155201237
:1027B000EB480178EB48EC4A128820F8321046E0EA
:1027C00000BF00BF00BFE6484078E549097801EB4B
:1027D000810100EB4100E349E34A128821F832000D
:1027E00035E000BF00BF00BFDD48007864214843EA
:1027F000DB49497801EB810100EB4100D849897838
:102800000844D849D84A128821F832001FE000BF96
:1028100000BF00BFD24800784FF47A714843D049D6
:10282000497801EBC10202EB011100EB8100CC49B8
:10283000897801EB810100EB4100C949C97808445E
:10284000C849C94A128821F8320000E000BF00BF21
:10285000C448C549098830F83110C34A128800EBD2
:10286000C2004088814257DCBE48BF49098830F821
:102870003100BC49BC4A128801EBC20189888842F8
:102880004ADB0020B9490870B9490870B548B64913
:10289000098830F83100B749088008460088000AE6
:1028A000B5490870B3480078B4490870AD48AE49DE
:1028B000098830F83110B248AB4A128820F812105B
:1028C000A94909884FF6FF7202EA4100AB4909782D
:1028D000FEF75EFBA4490988012202EB410188B2A0
:1028E000A5490978FEF754FB9F480088A449A1F840
:1028F000B4009C489C49098830F83100A049A1F8EF
:10290000B60001209F490870974800883B287ED177
:102910000C209D4908707AE09C4800889149924AB1
:10292000128821F832000020904908709049087000
:102930000220954908706AE08A488B49098830F876
:1029400031008849884A128801EBC20149888842CF
:102950004EDC84488449098830F831008149824A34
:10296000128801EBC2018988884241DB7D487E499B
:10297000098830F831007F49088008460088000A3D
:102980007D4908707B4800787C4908707548764915
:10299000098830F831007A49734A128821F8120008
:1029A000714909884FF6FF7202EA410073490978BC
:1029B000FEF7EEFA6C490988012202EB410188B268
:1029C0006D490978FEF7E4FA674800886C49A1F878
:1029D000B40064486449098830F831006849A1F8B6
:1029E000B6000120674908700B206749087009E0AC
:1029F000022065490870654801885A485A4A128879
:102A000020F83210002059490870594908700020F8
:102A10005F4908705E4800780C2819D15D4800882D
:102A20000A2190FBF1F05B49088000204F490870B3
:102A3000594908704E490870002404E000204749B5
:102A40000855601CC4B2052CF8DB00205049087002
:102A500010BDF0B589B00020079008900590069051
:102A60000390049001900290002400250026404825
:102A7000007810B901203E490870474800780028C6
:102A80006BD138483849098800EBC100C0880E284E
:102A90003CD2DFE800F0072B3337270F232F1B0B27
:102AA000133B1F1701240025264630E00224002591
:102AB00026462CE002240025264628E00224002594
:102AC000264624E002240025264620E00324002593
:102AD00026461CE003240025264618E00324012591
:102AE000661C14E003240225661C10E00424002563
:102AF00026460CE004240025264608E0042401258F
:102B0000661C04E004240125661C00E000BF00BF31
:102B10001448154A128830F832102B46224605A870
:102B200001F092F80F48104A128800EBC200418869
:102B30002B46224603A801F087F80A480A4A128861
:102B400000EBC20081882B46224601A801F07CF8E8
:102B5000104802886A21114822E058E04C380020D1
:102B600051380020E43E0020563800208D380020E7
:102B7000583800205A3800205C3800205D3800208A
:102B8000FC3A0020B10100203C0000208E380020DB
:102B90009C3800205E38002049380020B80400200E
:102BA000FEF7F6FCC0EBC001C1EBC010F9494718B5
:102BB0003A4600210846FEF7BBFC05AA0721022081
:102BC000FEF7B6FCF448F549098800EBC100C0885F
:102BD000C0B103AA07210120FEF7AAFC01AA162111
:102BE0000120FEF7A5FCEC48EC4B1B8800EBC30072
:102BF000C08800EB4000EA4BC218F01DC1B20220B1
:102C0000FEF796FCE74A0021084600F054FFE6482C
:102C1000007800287DD0E548007800287AD1DE4889
:102C2000DE49098800EBC100C0880E2873D2DFE8B6
:102C300000F0079D7B7C132F439F5F2E319E5E30FB
:102C4000DB4800783030C0B28DF81C0007AA07219D
:102C50000220FEF76DFCAAE0D54800783030C0B203
:102C60008DF81C002E208DF81D00D14840783030A2
:102C7000C0B28DF81E00CE4880783030C0B28DF8DA
:102C80001F0007AA07210220FEF752FC8FE000BFB9
:102C900000BF00BFC64800783030C0B28DF81C00BD
:102CA000C34840783030C0B28DF81D0007AA072114
:102CB0000220FEF73DFC7AE0BD4800783030C0B21B
:102CC0008DF81C00BA4840783030C0B28DF81D0035
:102CD0002E208DF81E00B64880783030C0B28DF8B6
:102CE0001F0007AA07210220FEF722FC5FE000BFB9
:102CF000AF4800783030C0B28DF81C00AC48407846
:102D00003030C0B28DF81D00A94880783030C0B294
:102D100002E071E14CE049E08DF81E0007AA0721AE
:102D20000220FEF705FC42E000BFA14800783030E9
:102D3000C0B28DF81C009E4840783030C0B28DF88B
:102D40001D009B4880783030C0B28DF81E002E20C8
:102D50008DF81F009648C0783030C0B28DF8200042
:102D600007AA07210220FEF7E3FB20E000BF00BF17
:102D70008F4800783030C0B28DF81C008C48407805
:102D80003030C0B28DF81D00894880783030C0B234
:102D90008DF81E008648C0783030C0B28DF81F0014
:102DA00007AA07210220FEF7C3FB00E000BF1EE1D7
:102DB00079487A49098800EBC100C0880E286FD293
:102DC000DFE800F007B994950D2A40BB78292CBAAA
:102DD000772B78A207210220FEF7AAFB06E17648AE
:102DE000007820B1012808D0022812D10BE071A28E
:102DF00007210220FEF79CFB0BE06EA209210220B6
:102E0000FEF796FB05E06BA20A210220FEF790FB7D
:102E100000BF00BFEAE000BF00BF00BF6648007807
:102E200010B101280CD105E062A207210220FEF7B3
:102E30007FFB05E05FA208210220FEF779FB00BFBF
:102E400000BFD3E05A4800783030C0B28DF81C0083
:102E5000574840783030C0B28DF81D002E208DF8D4
:102E60001E00534880783030C0B28DF81F0007AA8A
:102E700007210220FEF75CFB4F48007820B10128B3
:102E800008D0022813D10CE04AA207210220FEF745
:102E90004FFB0CE047A208210220FEF749FB06E0A9
:102EA000A3E044A20A210220FEF742FB00BF00BFBC
:102EB0009CE000BF4048007820B1012808D00228DB
:102EC00012D10BE03BA207210220FEF731FB0BE001
:102ED00038A208210220FEF72BFB05E035A20921CC
:102EE0000220FEF725FB00BF00BF7FE000BF324895
:102EF000007830B101280AD002280ED0032818D15A
:102F000011E02CA207210220FEF712FB11E029A2FA
:102F100008210220FEF70CFB0BE026A2092102206B
:102F2000FEF706FB05E023A20B210220FEF700FBC3
:102F300000BF00BF5AE000BF00BF1D48007830301E
:102F4000C0B28DF81C001A4840783030C0B28DF8FD
:102F50001D00174880783030C0B28DF81E0014482C
:102F6000C0783030C0B28DF81F0007AA07210220B8
:102F7000FEF7DEFA1048007830B101281ED0022892
:102F800023D003282FD127E00AA207210220FEF731
:102F9000CFFA28E0B6050020E43E00205638002095
:102FA0008C050020DF40002049380020440000202C
:102FB0004C380020200000004A380020AFF20C02FC
:102FC00008210220FEF7B4FA0DE0AFF21802092141
:102FD0000220FEF7ADFA06E0AFF228020A21022035
:102FE000FEF7A6FA00BF00BF00E000BF00BFFA4A2C
:102FF0000021084600F05FFD09B0F0BD7047704742
:10300000704770473EB500240025002001900290D3
:10301000009008E1F148007898B90120EF49087064
:103020000020EF490870EF490870EF49C8708870B8
:1030300048700870FEF7F6FEECA200210846FEF785
:1030400077FAE748007800281EDDE54800780A286E
:103050001ADCE34800780A2802D10020E049087011
:10306000DF480078E049DF4A12788854DD4800786C
:10307000401CDC49087008460078042801DB002069
:1030800008700020D6490870D74800783030C0B2A8
:103090008DF80000D44840783030C0B28DF801007F
:1030A000D14880783030C0B28DF80200CE48C07868
:1030B0003030C0B28DF8030004236A460D2102208F
:1030C000FEF74DFA0423AFF68C620D210320FEF7C4
:1030D00046FAC44800780D30C1B2C7A20320FEF7FB
:1030E00027FAC6480088342815D006DC022809D003
:1030F00003280AD0332817D10AE035280ED0362805
:1031000012D10EE00025C8240FE00125CC240CE0EC
:103110000225C82409E00325CC2406E00425D02498
:1031200003E00525D42400E000BF00BFAC480078D0
:103130000B2853D12046FDF701FFADF80400601CB9
:10314000FDF7FCFEADF80600A01CFDF7F7FEADF89C
:103150000800E01CFDF7F2FEADF80A00A248007876
:10316000BDF8041088421AD19F484078BDF8061077
:10317000884214D19C488078BDF8081088420ED14E
:103180009948C078BDF80A10884208D19CA216213F
:10319000032000F090FC01209C4948550EE09CA2C1
:1031A0001621032000F087FC0020984948559348D9
:1031B00000880A2190FBF1F0904908804FF47A7062
:1031C000FDF78CFFAFF690721621032000F073FC20
:1031D0000020834908708149087025E08048007804
:1031E0000C280CD100207E4908707C490870834867
:1031F00000880A2190FBF1F08049088014E087489C
:10320000007858B1002085490870744908707F49DA
:10321000485540F2E7307949088005E06E4A0021C0
:10322000084600F048FCF5E600BF3EBD38B5002476
:1032300000250020009017E17948007850B901205E
:10324000774908700020774908707749C8708870FE
:1032500048700870FEF7E6FD74A200210846FEF7EC
:1032600067F95F48007800281EDD5D4800780A286D
:103270001ADC5B4800780A2802D1002058490870FF
:10328000574800786849674A12788854654800783A
:10329000401C6449087008460078042801DB0020BF
:1032A000087000204E4908705F4800783030C0B286
:1032B0008DF800005C4840783030C0B28DF80100D5
:1032C000594880783030C0B28DF802005648C07836
:1032D0003030C0B28DF8030004236A460D2102206D
:1032E000FEF73DF90423554A0D210320FEF737F977
:1032F0004C4800780D30C1B23FA20320FEF718F908
:103300003E480088342815D006DC022809D003285E
:103310000DD0332817D107E035280ED0362812D12A
:103320000EE00025C8240FE00125C8240CE002258A
:10333000CC2409E00325CC2406E00425D02403E0B6
:103340000525D42400E000BF00BF254800780B28E5
:1033500030D1354801782046FDF71AFE32484178D1
:10336000601CFDF715FE30488178A01CFDF710FEAB
:103370002D48C178E01CFDF70BFEAFF694421621F4
:10338000032000F098FB4FF47A70FDF7A7FE2B4A5C
:10339000121F1621032000F08EFB00201049087038
:1033A0001F490870154800880A2190FBF1F0134965
:1033B00008805AE00A4800780C2841D100200849CA
:1033C0000870174908700D4800880A2190FBF1F039
:1033D0000A49088049E00000DF40002095380020BD
:1033E0009C3800209438002090380020C7EBCAE4B5
:1033F000C8EBC3DCC2EB00005F0000005E380020B9
:10340000C3DCC2EBD5FDC8B7000000006138002066
:10341000C3DCC2EBB4EDCEF300000000A038002006
:103420009B3800209A38002096380020C7EBCAE469
:10343000C8EBD0C2C3DCC2EB000000003C22000895
:103440003748007858B1002035490870354948554B
:103450003549087040F2E7303449088005E0344AC5
:103460000021084600F027FBE6E600BF38BD38B56E
:10347000002400200090FEF7D5FC2C480088352859
:1034800002D0362804D101E0C82402E0CC2400E0B8
:1034900000BF00BF2046FDF751FD3030C0B28DF8AF
:1034A0000000601CFDF74AFD3030C0B28DF801000D
:1034B000A01CFDF743FD3030C0B28DF80200E01CC7
:1034C000FDF73CFD3030C0B28DF8030019A2002199
:1034D0000846FEF72DF804236A460D210020FEF76A
:1034E0003EF8134A0021084600F0E5FA1548007836
:1034F0000C2813D100201349087005200B490880BF
:1035000008480079012802D10020064908710548C1
:103510004079012802D100200249487138BD0000DD
:10352000A0380020613800209B3800205E38002041
:10353000DF400020D3C3BBA7B2CECAFDC3DCC2EBC1
:103540003A0000009C38002070B5002000220023C3
:103550000021674CA468C4F30323664C247844EA32
:103560000311654C247864B9012007E0634C245CA6
:103570008C4201D1604C2070441CE0B21028F5DD73
:103580005CE05D4C2478112C1ED2DFE804F01D09AC
:103590000A0B0C0E0F10111314151618191A1B0014
:1035A00000BF00BF00BF01220FE000BF00BF00BF8F
:1035B00002220AE000BF00BF00BF042205E000BFF6
:1035C00000BF00BF082200E000BF00BF4C4C4A4DC6
:1035D0002D78645DFF2C08DA494C474D2D78645DE9
:1035E000641C474D444E3678AC55454C424D2D78C1
:1035F000645D0A2C22DB914220D13F4C2478414D5E
:103600002C7000243E4D3C4E3678AC553A4D2C7013
:103610003D4C3C4D2D78645D3A4D2C702C46247801
:103620003A4D2C70374C2478394D2C70354C247819
:10363000384D2C70334C2478374D2C70374C25780E
:103640002478641C354E3470032D02D10024354695
:103650002C70324C247834B1012C13D0022C22D09F
:10366000032C41D130E000242D4D2C602D4DC5F8A8
:10367000B8412B4D083D2C6001242D1F2C601D4DA1
:103680002C7032E00024264D2C60264DC5F8B84140
:103690000124234D083D2C6000242D1F2C600224A2
:1036A000144D2C7021E000241D4D2C6001241D4D73
:1036B000C5F8B84100241A4D083D2C602D1F2C6020
:1036C00004240C4D2C7010E00124154D2C600024B6
:1036D000144DC5F8B841124D083D2C602D1F2C60CB
:1036E0000824044D2C7000E000BF00BF70BD000036
:1036F00000100140C5380020C3380020A138002048
:10370000CE400020C6380020B23800209C3800206F
:103710009D3800209E3800209F380020C4380020AB
:10372000BC8121420080214270B502460C46FF2533
:10373000FF2309E012F8010B80EA05010648405C0E
:1037400080EA03050548435C2000A4F10106B4B2F9
:10375000F0D143EA052070BDD18A0008D18B000862
:1037600001E0411EC8B20028FBDC704700B54FF0F5
:103770008830FE4908600120FD4908600020FD49AD
:10378000C1F884013220FFF7EBFFFF2212E0F74877
:1037900008300068C3B203F00300032808D10120F9
:1037A000F349091D08604FF03330F049086003E029
:1037B000501EC2B2002AEADC00BF00BD00B54FF0C7
:1037C0008830EA4908600120E94908600020E94999
:1037D000C1F884013220FFF7C3FFFF2212E0E34863
:1037E00008300068C3B203F00800082808D101209F
:1037F000DF49091D08604FF03330DC49086003E001
:10380000501EC2B2002AEADC00BF00BD30B504463B
:103810000025FFF7ABFF0020D54908604FF0883046
:10382000D2490860D1480830006885B24FF0333083
:103830000860281204EB0020CC490C3108600020FD
:10384000CC49C1F888010120C9490831086030BD60
:1038500030B504460025FFF789FF0120C449086000
:103860004FF08830C1490860C0480830006885B210
:103870004FF033300860281204EB0020BB490C31B4
:1038800008600020BB49C1F888010120B84908310F
:10389000086030BD70B506460C4615463046FFF749
:1038A000B5FF2046FFF7B2FF2846FFF7D1FF70BDF6
:1038B00010B50020AE49103108600A20FDF70EFC5B
:1038C0000120AC49C1F890010A20FDF707FC002057
:1038D000A7490C3108600120A54914310860A649A8
:1038E000086010BD00B54FF49040A4490860087806
:1038F00042220988C1F30721FFF7CCFF43220021B0
:103900001E20FFF7C7FF9820FFF7A2FFA120FFF7B7
:103910009FFF8120FFF79CFF00BD10B502460020ED
:103920000BE00B781478A34204D14B785478A3426F
:1039300000D105E0431C98B22332B0F57A7FF0DB6A
:1039400000BFB0F57A7F00DB002010BD10B5024645
:10395000002007E00B781478A34200D105E0431C57
:1039600098B22332B0F57A7FF4DB00BFB0F57A7FEE
:1039700000DB002010BD2DE9FE4F074688461646A5
:10398000994600250020029001900090B3464946D8
:103990003046FFF7C2FF8246002447E0CAEBCA0068
:1039A00000EB80005844C01C10F814000290C7EBD4
:1039B000071008EB4010714909680844C4EB041172
:1039C00000EB4105E8B20190C5F3072000902422E6
:1039D000DDE90010FFF75EFFB020FFF739FF029826
:1039E000FFF714FFB220FFF733FFCAEBCA0000EB6A
:1039F00080005844C01C012101EB4401405C02904E
:103A00006D1CE8B20190C5F3072000902422DDE987
:103A10000010FFF73FFFB020FFF71AFF0298FFF7F3
:103A2000F5FEB220FFF714FF601C84B2102CB5DB4A
:103A3000BDE8FE8F2DE9FE4F07468846154699469C
:103A40000026B246B346002000900195494628461C
:103A5000FFF77CFF0290002429E00298C0EBC00031
:103A600000EB800101980844C01C10F804A0C7EBCB
:103A7000071008EB4010414909680844C4EB0411E1
:103A800000EB410606F0FF0BC6F30720009024224E
:103A900058460099FFF7FEFEB020FFF7D9FE5046CA
:103AA000FFF7B4FEB220FFF7D3FE601C84B2102CE7
:103AB000D3DBBDE8FE8F2DE9F04106460D461446E6
:103AC000DFF8BC80277820E0802F0FDA23464246BB
:103AD00029463046FFF7AEFF641C2778681CC5B244
:103AE0001E2D12DB0025701CC6B20EE02346424696
:103AF00029463046FFF73FFFA41C2778A81CC5B213
:103B00001E2D02DB0025701CC6B2002FDCD1BDE8E3
:103B1000F0812DE9FC4F05460E4690461C46DDF827
:103B20002C900027BA46BB4600200190009000BFB1
:103B300038E099F800B0B7FBF4F004FB1070C5EB67
:103B4000051100EB41000D49096800EB010A0AF07C
:103B5000FF000190CAF3072000902422DDE9001045
:103B6000FFF798FEB020FFF773FE0BE0000801405E
:103B70008001224200002242A0812142D038002050
:103B8000EE6000085846FFF741FEB220FFF760FEE6
:103B900009F10109701CC6B2A64202DB0026681CAE
:103BA000C5B27F1C04FB08F0B842C2D8BDE8FC8F48
:103BB0002DE9FC4F06460F4690469946DDF82CB09D
:103BC00000240025A246002001900090344622E007
:103BD0003D461DE0A8B2C4EB041100EB410034499E
:103BE000096800EB010A0AF0FF000190CAF3072000
:103BF00000902422DDE90010FFF74CFEB020FFF713
:103C000027FE5846FFF702FEB220FFF721FE6D1C8B
:103C10004D45DFD3641C4445DAD3BDE8FC8F70B555
:103C2000034600200DE00A25B1FBF5F605FB16144E
:103C300004F13005ECB21C540A25B1FBF5F1451C2A
:103C4000E8B29042EFDB70BD2DE9F04305468946AE
:103C500016461F46324649462846FFF7E0FF002435
:103C60000DE015F80480A819401E001B00782855A7
:103C7000A819401E001B80F80080601CC4B206EB2F
:103C8000D671B4EB610FECDB87B1002408E0A81912
:103C9000001B10F8010CA919091B0870601CC4B2A4
:103CA000BC42F4DB2E20A919C91B0870BDE8F083C3
:103CB000D038002031490143314A1160704770B556
:103CC000002100230F22C47804B32D4C246804F48F
:103CD000E064C4F5E064210AC1F10403CA404478F9
:103CE00004FA03F18478144021430901254C067835
:103CF000A155047804F01F050124AC4005786D112E
:103D0000AD0005F1E025C5F8004109E0047804F0B4
:103D10001F050124AC401C4D0678761145F826405D
:103D200070BD1A4A0A400243154B1B1F1A607047A8
:103D300039B1134A121D12680243114B1B1D1A6040
:103D400006E00F4A121D126882430D4B1B1D1A60BC
:103D50007047042808D14FF0E021096941F00401BF
:103D60004FF0E022116107E04FF0E021096921F0F6
:103D700004014FF0E0221161704700000000FA05D5
:103D80000CED00E000E400E080E100E080FFFF1FB8
:103D900010B50446FA48844208D10121401500F0CC
:103DA000A7FB0021601500F0A3FB17E0F548844253
:103DB00008D10121001500F09BFB0021201500F027
:103DC00097FB0BE0F048844208D10121C80300F0C2
:103DD0008FFB00214FF4004000F08AFB10BD30B58E
:103DE0000246002000235068E84C20400D790C6802
:103DF00044EA0524204350609068E54C2040D1E916
:103E000002542C434D7944EA450420439060D06A23
:103E100020F470000C7C641EE4B2234340EA03509B
:103E2000D06230BD00210160017141718160C160CB
:103E300001210174704721B1826842F00102826061
:103E400003E0826822F001028260704721B182683B
:103E500042F48072826003E0826822F480728260A1
:103E6000704710B50023CBB21AB144681C434460BC
:103E700002E044689C43446010BD816841F0080141
:103E800081607047014600208A6802F008020AB18A
:103E9000012000E000207047816841F0040181604A
:103EA0007047014600208A6802F004020AB101202E
:103EB00000E00020704721B1826842F4A0028260D5
:103EC00003E0826822F4A00282607047014600206D
:103ED0008A6802F480020AB1012000E000207047E5
:103EE00010B50A4600210023416821F46041531EA9
:103EF00041EA4331416010BD21B1426842F40062A1
:103F0000426003E0426822F4006242607047F0B50C
:103F100004460D4600200021092D11DDE068A5F1C1
:103F20000A0606EB4607072606FA07F18843A5F1BD
:103F30000A0606EB460603FA06F10843E0600CE0C9
:103F4000206905EB4507072606FA07F1884305EBCC
:103F5000450603FA06F108432061072A0FDA606B71
:103F6000561E06EB86071F2606FA07F18843561EE3
:103F700006EB860605FA06F10843606322E00D2A87
:103F80000FDA206BD61F06EB86071F2606FA07F10D
:103F90008843D61F06EB860605FA06F10843206320
:103FA00010E0E06AA2F10D0606EB86071F2606FA6E
:103FB00007F18843A2F10D0606EB860605FA06F125
:103FC0000843E062F0BD21B1826842F48012826051
:103FD00003E0826822F48012826070470146C86C58
:103FE00080B2704766484C300068704721B1426823
:103FF00042F48062426003E0426822F480624260E0
:10400000704721B1426842F48052426003E0426846
:1040100022F48052426070470A460021816821F4F0
:10402000E04111438160704721B1826842F400424F
:10403000826003E0826822F400428260704721B10E
:10404000826842F40212826003E0826822F4021263
:1040500082607047014600208A6802F400120AB1AB
:10406000012000E000207047F0B50446154600200E
:1040700000220026092911DDE068A1F10A0707EBFB
:10408000470C072707FA0CF29043A1F10A0707EB48
:10409000470703FA07F21043E0600CE0206901EBE8
:1040A000410C072707FA0CF2904301EB410703FA92
:1040B00007F210432061A06BC0F30156EF1C06F11C
:1040C000010CA7EB0C0707EB870C1F2707FA0CF274
:1040D0009043EF1C06F1010CA7EB0C0707EB8707D9
:1040E00001FA07F21043A063F0BD10B50A460021A3
:1040F0000023816B21F44011531E41EA0351816377
:1041000010BD08B5002300930090009B0B44009362
:10411000009B1A6008BD08B502460020009000927E
:1041200001F12800009B184400900098006880B2BC
:1041300008BD0A4600214168164B194011434160F1
:1041400070474162826270470A460021416821F04F
:104150001F0111434160704740B1094908310968A6
:1041600041F40001064A0832116007E004490831B1
:10417000096821F40001024A08321160704700000A
:104180000024014000280140003C0140FFFEF0FFF8
:10419000FDF7F1FFFFFD3FFF0246002013680B40D3
:1041A0000BB1012000E000207047CA430260704755
:1041B00070B502460020002300240B125568CEB2D1
:1041C00005EA060415681D4015B10CB1012000E098
:1041D000002070BD00220A12D34303607047000024
:1041E000DF48006840F00100DD490860084640688B
:1041F000DC490840DA49486008460068DA49084066
:10420000D74908600846006820F480200860084606
:10421000406820F4FE0048604FF41F00886070473B
:10422000CF49096821F48031CD4A116011460968EF
:1042300021F480211160B0F5803F03D0B0F5802FCC
:104240000ED106E0C649096841F48031C44A1160C4
:1042500007E0C349096841F4A021C14A116000E0A8
:1042600000BF00BF704710B50146002200230020A8
:104270004A11012A02D1BA4C236806E0022A02D16F
:10428000B74C236A01E0B64C636A01F01F020124B7
:1042900094401C400CB1012000E0002010BD38B556
:1042A000002000900024002500BF3120FFF7DBFF35
:1042B00005460098401C00900098B0F5A06F01D012
:1042C000002DF2D03120FFF7CEFF08B1012400E02D
:1042D0000024204638BD01460020A14A106820F085
:1042E000F80040EAC10010607047A04908607047BC
:1042F000024600209A4B586820F47C1042EA0103E1
:104300001843974B586070479849086670470146B4
:104310000020934A506820F0030008435060704723
:104320008F48406800F00C007047014600208C4A1E
:10433000506820F0F00008435060704701460020AC
:10434000874A506820F4E060084350607047014697
:104350000020834A506820F4605040EAC100506059
:10436000704729B17E4A527A02437D4B5A7204E06B
:104370007B4A527A82437A4B5A7270477B49D831D2
:104380000860704701460020754A506820F440409C
:104390000843506070470021714A20321170704A02
:1043A00082F82010012802D004280AD104E001215B
:1043B0006B4A2032117005E00521694A20321170E4
:1043C00000E000BF00BF704769490860704764495A
:1043D000096A0143624A11627047654944390860BD
:1043E000704730B500210022002400235C4D6D6829
:1043F00005F00C0121B1042905D0082923D105E0DD
:104400005C4D056022E05B4D05601FE0544D6D681A
:1044100005F47012524D6D6805F48034022505EBE9
:1044200092421CB9544D554305600BE04C4D6D68EC
:1044300005F400351DB1504D5543056002E04D4D6A
:104440005543056002E04B4D056000BF00BF444D81
:104450006D6805F0F0010909484D6B5C0568DD40A9
:1044600045603F4D6D6805F4E061090A434D6B5CA2
:104470004568DD4085603A4D6D6805F46051C90AB4
:104480003E4D6B5C4568DD40C560354D6D6805F49B
:104490004041890B3A4D6B5CC568B5FBF3F505618E
:1044A00030BD29B12E4A526902432D4B5A6104E0B6
:1044B0002B4A526982432A4B5A61704729B1284AD4
:1044C00092690243264B9A6104E0254A926982432D
:1044D000234B9A61704729B1214AD2690243204B8C
:1044E000DA6104E01E4AD26982431D4BDA617047EB
:1044F00029B11B4AD2680243194BDA6004E0184A1A
:10450000D2688243164BDA60704729B1144A1269A7
:104510000243134B1A6104E0114A12698243104BA3
:104520001A61704712494039086070470F49C864E2
:1045300070470B49C87170470948406A40F0807065
:1045400007494862704701460020054A92680A40C0
:104550000AB1012000E000207047014988727047CD
:10456000001002400000FFF8FFFFF6FE000042428C
:104570008004424200127A0000093D00DF3800202A
:10458000EF38002029B1504A128802434E4B1A805E
:1045900004E04D4A128882434B4B1A8070474A48C8
:1045A000001D008840F010004749091D0880704731
:1045B0004548001D00884FF6EF7108404249091D2B
:1045C00008807047002140481C300188001F008887
:1045D00041EA0040704700B50246FFF7E0FF100CCB
:1045E000394918310880091D0A80FFF7E1FF00BD35
:1045F00000B50246FFF7D3FFC2F30340324908314A
:104600000880091D0A80FFF7D3FF00BD00B50246F0
:10461000FFF7C5FF100C2C4920310880091D0A80C6
:10462000FFF7C6FF00BD00202749103109880907A0
:10463000080B2549143109880843704700BF2248F8
:10464000001D008800F020000028F8D070471E48A8
:10465000001D00884FF6F77108401B49091D0880AE
:1046600000BF1948001D008800F008000028F8D09D
:10467000704701460020144A121D12880A400AB1F0
:10468000012000E0002070470F49091D098881437F
:104690000D4A121D11807047014600200A4A121D62
:1046A00012880A40D0B2084A12880A4012B108B1F2
:1046B000012000E0002070470349091D098881435B
:1046C000014A121D118070470028004010B50446B1
:1046D000FE48844208D10121C014FFF709FF0021E0
:1046E000E014FFF705FFC4E0B4F1804F08D10121C9
:1046F0000846FFF70AFF00210120FFF706FFB8E098
:10470000F348844208D101210220FFF7FEFE002178
:104710000220FFF7FAFEACE0EE48844208D1012106
:104720000420FFF7F2FE00210420FFF7EEFEA0E0D8
:10473000E948844208D101210820FFF7E6FE002164
:104740000820FFF7E2FE94E0E448844208D101210A
:104750001020FFF7DAFE00211020FFF7D6FE88E0D8
:10476000DF48844208D101212020FFF7CEFE00213E
:104770002020FFF7CAFE7CE0DA48844208D10121FC
:104780004014FFF7B5FE00216014FFF7B1FE70E0A2
:10479000D548844209D10121C804FFF7A9FE0021B0
:1047A0004FF40020FFF7A4FE63E0D048844209D113
:1047B00001210805FFF79CFE00214FF48010FFF750
:1047C00097FE56E0CA48844209D101214805FFF707
:1047D0008FFE00214FF40010FFF78AFE49E0C54824
:1047E000844208D101214020FFF78FFE00214020A4
:1047F000FFF78BFE3DE0C048844208D101218020B4
:10480000FFF783FE00218020FFF77FFE31E0BB48E9
:10481000844208D101218015FFF777FE0021A01501
:10482000FFF773FE25E0B648844209D10121080450
:10483000FFF75EFE00214FF48030FFF759FE18E0CD
:10484000B048844209D101214804FFF751FE0021FC
:104850004FF40030FFF74CFE0BE0AB48844208D128
:1048600001218804FFF744FE00214FF48020FFF768
:104870003FFE10BD00220288944B98420ED0994B07
:1048800098420BD0B0F1804F08D0914B984205D0A0
:10489000904B984202D0904B984204D14FF68F73C0
:1048A0001A404B881A438D4B984207D08C4B984244
:1048B00004D04FF6FF431A40CB881A4302808B88FE
:1048C00083850B880385814B98420BD0854B98429A
:1048D00008D08B4B984205D08A4B984202D08A4B25
:1048E000984201D10B7A038601238382704770B509
:1048F000002400220023058C4FF6FE763540058407
:10490000028C8388048B4FF68F752C40B51E2C408B
:104910000D882C43751E2A400D892A434D882A4351
:104920006A4DA8420BD06F4DA84208D0744DA842E2
:1049300005D0744DA84202D0734DA84213D14FF652
:10494000F7752A404D892A434FF6FB752A408D881A
:104950002A434FF6FF652B404FF6FF552B408D89BC
:104960002B43CD892B4383800483CD8885860284A5
:1049700070BD70B5002400220023058C4FF6EF7641
:1049800035400584028C8388048B48F6FF752C40E3
:104990004FF6FF452C400D884FF6FF7606EA0525B9
:1049A0002C434FF6DF752A400D8906EA05152A4388
:1049B0004D8806EA05152A43444DA84202D0494DC8
:1049C000A8421DD14FF67F752A404D894FF6FF76DC
:1049D00006EA05152A434FF6BF752A408D8806EA78
:1049E00005152A434FF6FF352B404FF2FF752B403C
:1049F0008D8906EA85052B43CD8906EA85052B437B
:104A000083800483CD880587028470BD70B500243F
:104A100000220023058C4FF6FF6635400584028C8A
:104A20008388848B4FF68F752C404FF6FC752C4095
:104A30000D882C434FF6FF552A400D894FF6FF761F
:104A400006EA05252A434D8806EA05252A431F4D17
:104A5000A84202D0234DA8421DD14FF2FF752A4033
:104A60004D894FF6FF7606EA05252A434FF6FF35B6
:104A70002A408D8806EA05252A434EF6FF752B400D
:104A80004DF6FF752B408D8906EA05152B43CD8920
:104A900006EA05152B4383808483CD8885870284AD
:104AA00070BD70B5002200230024058C4EF6FF7601
:104AB00035400584038C8488828B48F6FF752A4034
:104AC0004FF6FF452A400D8820E00000002C0140F1
:104AD0000004004000080040000C004000100040AE
:104AE0000014004000340140004C014000500140DF
:104AF0000054014000180040001C0040002000400D
:104B00000040014000440140004801404FF6FF765C
:104B100006EA05252A434DF6FF752B400D8906EA66
:104B200005352B434D8806EA05352B43FA4DA8423F
:104B300002D0FA4DA84208D14BF6FF752C408D8962
:104B40004FF6FF7606EA85152C4384808283CD8854
:104B5000A0F84050038470BD828B4FF2FF331A409F
:104B60008283828B4FF6FF7303EA01231A43828309
:104B70007047F0B50C461546002200210026078C30
:104B80004EF6FF7C07EA0C070784828B018C4FF6F8
:104B9000FF7707EA043640F6FF473A404FF6FF77C3
:104BA00007EA05273A434FF6FF7707EA03373A4308
:104BB000D94FB8420ED0D94FB8420BD0B0F1804F88
:104BC00008D0D74FB84205D0D64FB84202D0D64F02
:104BD000B84206D14DF6FF77394046F48057394345
:104BE00005E047F6FF57394044F480573943828344
:104BF0000184F0BD828B4FF6F3731A408283828B5F
:104C00000A4382837047F0B50C4615460022002106
:104C10000026078C4FF6FF6C07EA0C070784828B8F
:104C2000018C4FF6FF7707EA04264FF60C773A40DF
:104C30004FF6FF7707EA03172F433A43B64FB842C0
:104C40000ED0B64FB8420BD0B0F1804F08D0B44F61
:104C5000B84205D0B34FB84202D0B34FB84206D1E4
:104C60004FF6FF57394046F48077394305E04FF25D
:104C7000FF57394044F48077394382830184F0BD83
:104C8000028B4FF2FF331A400283028B4FF6FF7301
:104C900003EA01231A4302837047F0B50C46154618
:104CA000002200210026078C4FF6EF7C07EA0C0754
:104CB0000784028B018C4FF6FF7707EA041640F653
:104CC000FF473A404FF6FF7707EA03373A434FF67C
:104CD000FF7707EA05273A438F4FB8420ED08F4F30
:104CE000B8420BD0B0F1804F08D08D4FB84205D0FC
:104CF0008C4FB84202D08C4FB84206D14FF6DF77C6
:104D0000394046F01007394305E04FF65F773940E8
:104D100044F01007394302830184F0BD028B4FF643
:104D2000F3731A400283028B0A4302837047F0B583
:104D30000C46154600220021068C4FF6FE773E40B9
:104D40000684028B018C4FF60C7632407E1C06EAFC
:104D500003162E433243704EB0420ED06F4EB04217
:104D60000BD0B0F1804F08D06D4EB04205D06D4EE3
:104D7000B04202D06C4EB04206D14FF6FD763140C3
:104D800044F00106314305E04FF6F576314044F03A
:104D90000106314302830184F0BD70B505460C461F
:104DA0005D4885420ED05D4885420BD0B5F1804FFD
:104DB00008D05B48854205D05A48854202D05A48FF
:104DC000854200D100E000BF208850B92389A28825
:104DD00061882846FFF7ABFFE1882846FFF79EFF72
:104DE00025E0208804280AD12389A28861882846E2
:104DF000FFF753FFE1882846FFF742FF17E02088BE
:104E000008280AD12389A28861882846FFF7FBFE7B
:104E1000E1882846FFF7EEFE09E02389A288618831
:104E20002846FFF7A6FEE1882846FFF795FE70BDED
:104E30002DE9F04105460C4600260127608808B997
:104E4000022600E00026A088012801D1022700E008
:104E500001272088A0B92389A28861882846FFF706
:104E600066FFE1882846FFF759FF23893A46314615
:104E70002846FFF712FFE1882846FFF701FF13E0FD
:104E80002389A28861882846FFF707FFE188284622
:104E9000FFF7F6FE23893A4631462846FFF747FFDB
:104EA000E1882846FFF73AFFBDE8F0810A884B8881
:104EB0001A438B881A43CB881A430B891A434B89B0
:104EC0001A438B891A43A0F8442070474FF6FF71AC
:104ED000818000210180C1804180017270470021E2
:104EE000018041808180C180018141818181C181B6
:104EF0007047002101804180012181800021C18013
:104F0000018170470021018041808180C180018141
:104F10004181818170470000002C01400034014034
:104F20000004004000080040000C004021B102884D
:104F300042F00102028004E002884FF6FE731A403C
:104F40000280704731B1B0F8442042F40042A0F82A
:104F5000442005E0B0F84420C2F30E02A0F844203B
:104F600070471AB183890B43838102E083898B43A5
:104F7000838170478182704741EA0203A0F848307C
:104F800070471AB183890B43838102E083898B4385
:104F90008381704701894FF6F87211400181704793
:104FA0000A46002101894FF68F7319401143018190
:104FB000704730B504460D4629462046FFF7F0FFFE
:104FC000208940F00700208130BD2DE9F0410446E2
:104FD0000D4616461F46602D06D13B46012231463E
:104FE0002046FFF75AFE05E03B46012231462046A7
:104FF000FFF79DFE29462046FFF7D2FF208940F0AB
:1050000007002081BDE8F08130B50C460021018900
:10501000C9B24FF6FF7505EA032515432543294319
:10502000018130BD2DE9F04105460E4617469846F0
:10503000002443463A4631462846FFF7E5FF2C89CF
:105040004FF6F870044044F007044FF68F700440A8
:1050500044F070042C81BDE8F081F0B504460D46A3
:1050600016461F463B46324629462046FFF7CCFFF0
:10507000208940F480402081F0BD01858282704704
:105080000A46002101884FF68F73194011430180B1
:105090007047F0B50C4615461E460021002200233D
:1050A0000189028B038C4FF6F877394021434FF684
:1050B000FC473A4040F201173A434FF6DD773B4058
:1050C0004FF6FF7707EA06172F433B430181028320
:1050D0000384F0BD0A460021018B4FF68F731940FF
:1050E0001143018370470A460021018B48F6FF7384
:1050F00019404FF6FF7303EA0223194301837047F7
:105100000A460021818B4FF68F731940114381832A
:1051100070470A460021818B48F6FF7319404FF60D
:10512000FF7303EA022319438183704721B1028888
:1051300042F08002028004E002884FF67F731A403A
:105140000280704721B1828842F00402828004E02C
:1051500082884FF6FB731A408280704721B18288A3
:1051600042F00802828004E082884FF6F7731A400A
:105170008280704721B1828842F00102828004E07F
:1051800082884FF6FE731A40828070470A460021DB
:10519000018B4FF6F77319401143018370470A469C
:1051A0000021018B4FF2FF7319404FF6FF7303EAA2
:1051B00002231943018370470A460021818B4FF671
:1051C000F77319401143818370470A460021818B90
:1051D0004FF2FF7319404FF6FF7303EA022319439E
:1051E000818370470A460021018B4FF6FB731940FB
:1051F0001143018370470A460021018B4FF6FF33AC
:1052000019404FF6FF7303EA0223194301837047E5
:105210000A460021818B4FF6FB73194011438183AD
:1052200070470A460021818B4FF6FF3319404FF635
:10523000FF7303EA02231943818370470A46002162
:10524000018B4FF67F7319401143018370470A4663
:105250000021018BC1F30E014FF6FF7303EA022315
:105260001943018370470A460021818B4FF67F73F3
:1052700019401143818370470A460021818BC1F395
:105280000E014FF6FF7303EA02231943818370472F
:105290000A460021018C4FF6FD7319401143018429
:1052A00070470A460021018C4FF6F77319401143ED
:1052B000018470470A460021018C4FF6DF731940C4
:1052C0004FF6FF7303EA02131943018470470A463D
:1052D0000021018C4FF67F7319404FF6FF7303EAEC
:1052E00002131943018470470A460021018C4FF6CE
:1052F000FF5319404FF6FF7303EA02231943018459
:1053000070470A460021018C4FF2FF7319404FF697
:10531000FF7303EA02231943018470470A46002100
:10532000018C4DF6FF7319404FF6FF7303EA023309
:1053300019430184704730B5002301248C40A3B287
:10534000048C9C430484048C02FA01F5ADB22C4316
:10535000048430BD30B5002304248C40A3B2048CF7
:105360009C430484048C02FA01F5ADB22C430484FE
:1053700030BD70B5034600200024184618300125C2
:105380008D40ACB21D8CA5431D8409B1082909D1FB
:1053900000EB6100056825F07005056005681543A0
:1053A00005600EE00D1FC5F34E052844056825F481
:1053B000E045056005684FF6FF7606EA02263543AC
:1053C000056070BD21B1028842F00202028004E053
:1053D00002884FF6FD731A400280704721B102889F
:1053E00042F00402028004E002884FF6FB731A4088
:1053F0000280704721B1828842F08002828004E0FE
:1054000082884FF67F731A408280704702884FF679
:10541000F7731A40028002880A430280704782882C
:105420004FF68F731A40828082880A4382807047C9
:1054300002894FF6F8731A40028102890A430281F9
:10544000704702894FF67F731A40028102890A432E
:1054500002817047818470478185704781867047DB
:105460000187704781877047A0F840107047028815
:105470004FF6FF431A40028002880A4302807047B9
:105480000146888E70470146088F70470146888F15
:1054900070470146B1F8400070470146888C70475C
:1054A0000146088D704702460020138A0B400BB15D
:1054B000012000E000207047CA430282704730B5E7
:1054C0000246002000230024158A05EA010395897D
:1054D00005EA010413B10CB1012000E0002030BD49
:1054E000CA4302827047000010B50446FB4884425C
:1054F00009D101218803FEF7FBFF00214FF4804012
:10550000FEF7F6FF32E0F648844209D10121480453
:10551000FEF7FBFF00214FF40030FEF7F6FF25E019
:10552000F048844209D101218804FEF7EEFF0021F2
:105530004FF48020FEF7E9FF18E0EB48844209D1E0
:105540000121C804FEF7E1FF00214FF40020FEF71F
:10555000DCFF0BE0E548844208D101210805FEF795
:10556000D4FF00214FF48010FEF7CFFF10BD2DE9CE
:10557000F04786B005460E460024A24600BFA1466D
:105580000027B08900B100BF2F462C8A4CF6FF706F
:105590000440F08804432C82AC894EF6F31004409A
:1055A000B08831890843718908430443AC81AC8ACF
:1055B0004FF6FF400440B0890443AC8201A8FEF7D7
:1055C00010FFC648874202D1DDF810A001E0DDF8E7
:1055D0000CA0A88900F4004040B10AEBCA0000EB1F
:1055E0000A1031684900B0FBF1F807E00AEBCA0085
:1055F00000EB0A1031688900B0FBF1F86420B8FBB9
:10560000F0F004012009642101FB1089A88900F44D
:10561000004040B1322000EBC900B0FBF1F000F0D7
:105620000700044308E0322000EB09106421B0FBBE
:10563000F1F000F00F0004432C8106B0BDE8F087C4
:105640004FF41651016000218180C18001810C213D
:10565000418100218181704710B502460020108AE7
:105660004FF2FF0318400B884C8823438C88234358
:10567000CC8823431843108210BD00210180418053
:105680008180C180704721B1828942F400528281B9
:1056900004E082894DF6FF731A4082817047F0B5AD
:1056A0000346002400260025002040F66A17B94270
:1056B00000D100BF1846C1F3421401F01F060127B4
:1056C00007FA06F5012C01D10C3004E0022C01D1BF
:1056D000103000E014301AB107682F43076002E071
:1056E0000768AF430760F0BD1AB1838A0B4383821A
:1056F00002E0838A8B4383827047028A4FF6F073FD
:105700001A400282028A0A430282704782894FF25B
:10571000FF731A40828182890A438281704721B1D6
:10572000828942F00202828104E082894FF6FD7391
:105730001A4082817047028A4FF6DF731A40028254
:10574000028A0A430282704721B1028A42F48042EF
:10575000028204E0028A4BF6FF731A40028270470D
:10576000C1F308028280704701468888C0F30800B0
:105770007047818941F0010181817047028BD2B26B
:105780000283028B42EA012202837047028B02F4F9
:105790007F420283028B0A430283704721B1828ACF
:1057A00042F02002828204E0828A4FF6DF731A40C0
:1057B0008282704721B1828A42F01002828204E024
:1057C000828A4FF6EF731A408282704721B1828A33
:1057D00042F00802828204E0828A4FF6F7731A4090
:1057E0008282704721B1828942F40042828103E0C3
:1057F0008289C2F30E028281704721B1828A42F40B
:105800000062828204E0828A4FF2FF731A40828231
:105810007047828A4FF6FB731A408282828A0A435B
:105820008282704721B1828A42F00202828204E0C1
:10583000828A4FF6FD731A4082827047024600202A
:10584000B1F5007F00D100BF13880B400BB10120E0
:1058500000E00020704701F40072B2F5007F00D133
:1058600000BFCA430280704770B50246002400237F
:105870000025002040F66A16B14200D100BFC1F3F6
:10588000421501F01F03012606FA03F3012D02D190
:105890009689334006E0022D02D1168A334001E09A
:1058A000968A33400C12012606FA04F41688344016
:1058B00013B10CB1012000E0002070BD10B5002232
:1058C000002340F66A14A14200D100BF0A1201244D
:1058D0009440A3B2DC43048010BD000000380140B6
:1058E0000044004000480040004C00400050004090
:1058F00010B50120FEF716FE0020FEF713FE10BDC6
:105900002A49086070472949091F086070472749DC
:1059100084310860704701460020254A10884FF600
:105920007F4210400843224A108070470146002001
:105930001F4A10884FF68072104008431C4A10809E
:10594000704708B500220092194A2C3A0092009A3A
:1059500002440092009A116008BD08B5014600207B
:10596000009013482C38009000980844009000984C
:10597000008808BD0D489C300068C0B270470C48D4
:105980000830008840F0010009490831088070475C
:105990000648A0300068C0B270470548083000884B
:1059A00040F00200024908310880704704860D4229
:1059B0002C6C004010B501210807FEF7A6FD002160
:1059C0004FF08050FEF7A1FD10BD2A4908627047D4
:1059D00028490861704701460020274A106820F0D6
:1059E000E0000843106070472249A031086070470A
:1059F00010B502460020204B186820F00300104329
:105A000018601E4B1B6843F004031C4C23600129E3
:105A100001D130BF00E020BF184B1B6823F0040306
:105A2000164C236010BD1448006840F00400124971
:105A300008600846006840F0020008600F480068EF
:105A400040F004000D49086000BF00BF30BF704740
:105A500001460020084A52680A400AB1012000E0CD
:105A6000002070470449096841EA8001024A116038
:105A70007047000000000E420070004010ED00E092
:105A800010B50446CC48844208D101210420FEF719
:105A90002FFD00210420FEF72BFD46E0C74884427D
:105AA00008D101210820FEF723FD00210820FEF780
:105AB0001FFD3AE0C248844208D101211020FEF7C0
:105AC00017FD00211020FEF713FD2EE0BD48844293
:105AD00008D101212020FEF70BFD00212020FEF738
