:020000040800F2
:100000003023002069730008897500088B7500088B
:100010008F750008937500089775000800000000B0
:100020000000000000000000000000009B750008B8
:100030009D750008000000009F750008A17500086C
:10004000837300088373000883730008D3130008C8
:1000500083730008837300088373000883730008A8
:100060008373000883730008837300088373000898
:100070008373000883730008837300088373000888
:100080008373000883730008837300088373000878
:100090008373000883730008837300088373000868
:1000A0008373000883730008837300088373000858
:1000B000837300083B0400088373000883730008FF
:1000C0008373000883730008837300088373000838
:1000D00083730008390600088373000883730008DF
:1000E00083730008837300088373000800F002F82C
:1000F00000F05EF80AA090E8000C82448344AAF164
:100100000107DA4501D100F053F8AFF2090EBAE861
:100110000F0013F0010F18BFFB1A43F0010318473B
:10012000E0A4000000A5000010F8013B0A4413F011
:10013000030408BF10F8014B1D1108BF10F8015B44
:10014000641E05D010F8016B641E01F8016BF9D133
:10015000002D15D010F8014B03F00C030C2BA1EB74
:1001600004040ABF10F8013BA4EB8314A4EB03249E
:1001700005F1010314F8016B5B1E01F8016BF9D561
:10018000914238BF10F8013BD1D3704700230024BF
:1001900000250026103A28BF78C1FBD8520728BF97
:1001A00030C148BF0B6070471FB51FBD10B510BDF3
:1001B00007F0A0FA1146FFF7F7FF00F015F807F077
:1001C000BEFA03B4FFF7F2FF03BC07F0C3FA000066
:1001D0002349096801602249091D096841602049D5
:1001E000083109688160704707F04DF9482000F038
:1001F000F7FE00F041F804F0D5FF04F0EDFF4FF4F6
:100200007A7018490880184A0021084605F005F957
:1002100000F02CFE00F078FC134A0021084601F0A3
:1002200023F9124A0021084605F0F7F84FF4E1518E
:100230000A2000F0E0F800F0C0F840F2E730094989
:10024000088001200A49087009E00A48007880F017
:1002500001000849087001F05CF902F0E5FCF4E7E0
:10026000E8F7FF1FEC140020DB030020531C0020E4
:1002700045000020000000203348806940F0040061
:10028000314988614FF0333030490860081D0068FB
:100290002F4908402D49091D0860084600682D496E
:1002A00008432A49091D08604FF4C85027490C31FA
:1002B00008602548806940F0080023498861264885
:1002C0000068264908402449086008460068244917
:1002D000084321490860081D00680020091D0860C6
:1002E0000846006840F03330086040F622501A4952
:1002F0000C3108601448806940F010001249886190
:100300004FF0333017490860174848604FF4865063
:10031000C8600D48806940F020000B49886113488F
:10032000006820F47060114908600846006840F4D5
:10033000407008600D480C3000684FF6FB710840B3
:100340000A490C3108607047001002400008014063
:100350000FF00F0003300300000C014000FF0FFFFF
:10036000330030000010014088883333001401400E
:1003700010B501460020A0201BE0704A32F8102082
:100380008A4214DC6D4A32F810208A4200D112E011
:100390006A4A32F81020531A684C421C34F8122072
:1003A000521A934200DC06E0421CD0B203E0421E27
:1003B000D0B20028E1DC00BF10BD08B525208DF8C3
:1003C000000003208DF801008DF8020001208DF857
:1003D0000300684605F061F91D208DF8000000203B
:1003E0008DF8010001208DF802008DF803006846A9
:1003F00005F053F908BD3EB505460C460121022023
:1004000005F02FFB681E80B2ADF80400601E80B2BC
:10041000ADF800000020ADF80600ADF80200694616
:10042000474805F0EDFC01224121454806F05FF800
:100430000121434806F040F83EBD10B50121404877
:1004400006F003FB002878D001213D4806F00EFBA2
:100450003C4801880088401C3A4A1080B1F5FA7F78
:100460000ADB0020114608803748807808B901204F
:1004700000E0002034498870344801880088401C1E
:10048000324A108041F28830814208DB0020114658
:10049000088001202E49087000202E4908702E483F
:1004A00001680068401C2C4A1060B1F5FA7F03D83F
:1004B00000202A49087002E00120284908702648D7
:1004C0000068B0F57A7F02D900202349086004F063
:1004D000B5FC23480078002805DD0020204908707D
:1004E00001202049087020480078C0B11F480188C9
:1004F0000088401C1D4A1080B1F57A7F02DB002085
:100500001146088019480088B0F5FA7F03DA012007
:100510001749087008E000201549087004E0002021
:1005200012490880124908701248007820B1002052
:10053000104908700549088000BF10BD5C0000200C
:1005400000040040A201002054150020A401002056
:10055000430000206D150020A80100204400002069
:100560006C1500203A00002038000020AC0100206B
:10057000390000206A15002010B586B0044601211C
:1005800044F2050005F060FA4FF40070ADF8140075
:1005900003208DF8160018208DF8170005A9FE48D5
:1005A00006F094FD4FF48060ADF8140004208DF83F
:1005B000170005A9F84806F089FD25208DF80000F0
:1005C00003208DF801008DF8020001208DF8030052
:1005D000684605F062F801940020ADF80800ADF817
:1005E0000A00ADF80C00ADF810000C20ADF80E00BC
:1005F00001A9EA4806F081FA0020E9490870E948B3
:1006000000684FF6FF510840E649086042F210705A
:1006100000F038FD002240F22771E04806F005FBAB
:10062000012240F22551DD4806F0FFFA0121DB48A6
:1006300006F0EFFA06B010BD10B5DB480078401C9C
:10064000D949087008460078642804DB0020087047
:100650000120D649087040F22551D04806F0CAFB67
:10066000B0B10020D0490870D148007864280CDA75
:10067000CA4806F03FFBC1B2CD4802780078401C62
:10068000CB4B1870CB48815402E00020C849087059
:1006900040F22771C14806F0ADFB70B30020C2499B
:1006A0000870BF480078C449097888420BDCBC4810
:1006B00002780078401CBA4B1870C048815CB7487B
:1006C00006F014FB19E00020B5490870B548006831
:1006D0004FF6FF510840B349086042F2107000F035
:1006E000D1FC002240F22771AC4806F09EFA0122AC
:1006F00040F22551A94806F098FA10BD70B504469D
:100700000D460026AE480078AC49087003204870BA
:10071000200A8870CC70280A08714D710620A649FD
:10072000087008460178A54804F078FC0646300AAF
:10073000A2498871CE7108209F49087099480068C5
:1007400040F400709749086042F2107000F09AFC83
:10075000002240F22551914806F067FA012240F24A
:1007600027718E4806F061FA70BD70B504460D46DB
:100770000026934800789149087006204870200AA6
:100780008870CC70280A08714D7106208A4908705B
:1007900008460178894804F041FC0646300A87493A
:1007A0008871CE710820844908707E48006840F442
:1007B00000707C49086042F2107000F063FC002277
:1007C00040F22551754806F030FA012240F22771B7
:1007D000724806F02AFA70BD2DE9F04106460D4632
:1007E000002700247648007874490870102048706B
:1007F000300A8870CE70280A08714D716806000EA4
:10080000887107206C49087000BF13E030196D49EA
:1008100031F81000000A072101EB4401674A5054E7
:100820003019684911F81000082101EB44015054B7
:10083000601CC4B2AC42E9DB5F48007800EB4500C5
:100840005D490870084601785C4804F0E7FB0746FC
:10085000390A5A48584A1278815402465648007854
:10086000401C175454480078801C534908704D4868
:10087000006840F400704B49086042F2107000F0CC
:1008800001FC002240F22551444806F0CEF9012235
:1008900040F22771414806F0C8F9BDE8F0812DE922
:1008A000F0470024A046A1460026414800780428CD
:1008B00070DD40484078032804D0062844D0102832
:1008C00069D196E03B4885788078471038480178B0
:1008D000681D814237DB37480078394909788842FA
:1008E0002ED1E91C334804F099FB06463149281DF6
:1008F000095C304AE81C105C01EB0020B0421FD1BB
:10090000002413E0042000EB44002A49085C032182
:1009100001EB4401274A515C00EB012081B204F154
:100920003E00284A22F81010601CC4B2BC42E9DB29
:1009300025480068401C24490860002023490870AD
:1009400000201B4908707BE01948007808284FDB1D
:10095000184800781A490978884246D10621154876
:1009600004F05CFB06461348C0791249897900EB14
:100970000120B04239D10F48C0780E49897800EB88
:1009800001201FFA80F80B4840790A49097900EBE9
:1009900001201DE055E04FE0000801400038014013
:1009A000B30100200C0C0140C1010020C001002057
:1009B000B2010020CE160020B1010020D415002085
:1009C000B0010020C81700204C0000205A00002071
:1009D0001FFA80F91C4820F818901C480068401C39
:1009E0001A49086000201A49087000201949087047
:1009F00026E01848007808281DDB174800781749BA
:100A00000978884214D10621134804F007FB0646F2
:100A10001148C0791049897900EB0120B04207D113
:100A20000A480068401C0949086000200C49087009
:100A300000200849087003E000200649087000BF44
:100A400000BFBDE8F0870000BC1900205400002062
:100A5000B4010020B2010020CE160020B001002019
:100A6000B501002070B50024394D0221C82000F0E6
:100A70002BFA0221C92000F027FA0221CA2000F037
:100A800023FA0221CB2000F01FFA0221CC2000F033
:100A90001BFA0221CD2000F017FA00BF06E015F87E
:100AA000011B204600F010FA601CC4B2882CF6D35B
:100AB00070BD10B50021782000F006FA01217920E0
:100AC00000F002FA10BD70B50024224D00BF06E010
:100AD000204600F0CFF928706D1C601CC4B2882C31
:100AE000F6D3002407E004F1C80000F0C3F91A4966
:100AF0000855601CC4B2062CF5DB002017490870AD
:100B000017494870087070BD70B50025552441F62E
:100B1000FF7000F0AFF90546A54215D0214641F619
:100B2000FF7000F0D1F941F6FF7000F0A3F905461F
:100B3000A54202D1FFF796FF06E00A4A00210846C7
:100B400004F06BFC00BFFEE7FFF7BDFF70BD0000C7
:100B500062770008BA1B0020FC1400205215002008
:100B600054150020E401002008B50121082004F0FC
:100B70006BFFC020ADF8000010208DF803000320AB
:100B80008DF802006946B64806F0A0FA0120B54982
:100B90000860B549C1F89C0108BD10B5B0480068AF
:100BA00020F07040AE4908600846006840F04050B0
:100BB00008600120AB49091D0860AB49C1F89801E4
:100BC000042000F043FA0020A649091D0860042013
:100BD00000F03CFA0020A449C1F8980110BD10B5FE
:100BE0009F48006820F070409D49086008460068F2
:100BF00040F04050086000209A490860042000F04E
:100C000025FA01209849C1F89C01042000F01EFA41
:100C1000012094490860042000F018FA002092494D
:100C2000C1F89C01042000F011FA00208D490860F1
:100C300010BD10B58A48006820F0704088490860EF
:100C40000846006840F04050086000208549086070
:100C50008549C1F89C01042000F0F8F90120814980
:100C600008608149C1F89C01042000F0EFF910BD33
:100C700010B57B48006820F070407949086008464C
:100C8000006840F040500860002076490860042069
:100C900000F0DCF900207449C1F89C01042000F048
:100CA000D5F901206F490860042000F0CFF9012038
:100CB0006D49C1F89C01042000F0C8F90020694981
:100CC0000860042000F0C2F910BD10B5002464488B
:100CD000006820F07040624908600846006840F0F3
:100CE0000040086001205F49091D086000F0AEF96E
:100CF00001205D49C1F8980100F0A8F907E0601CE7
:100D0000C4B2FA2C03DDFFF7B3FF012010BD554834
:100D10007C3800680028F2D15249086000BFF5E72E
:100D200010B500204F4908604D48006820F0704021
:100D30004B4908600846006840F0405008600020B9
:100D40004949C1F89C01022000F080F90120454981
:100D50000860022000F07AF900204349C1F89801A8
:100D600010BD10B500203F4908603D48006820F0E4
:100D700070403B4908600846006840F040500860F9
:100D800001203949C1F89C01022000F05FF90120DF
:100D900034490860022000F059F900203249C1F8B6
:100DA000980110BD70B504462D48006820F07040D1
:100DB0002B4908600846006840F040500860002059
:100DC00028490860002517E0E0092649091D086048
:100DD0006006040E022000F039F901202249C1F812
:100DE0009801022000F032F900201E49086002201C
:100DF00000F02CF9681CC5B2082DE5DB70BD70B59C
:100E0000054600241648006820F070401449086028
:100E10000846006840F000400860002616E0002008
:100E200010490860022000F011F901200E49C1F8B4
:100E300098016006040E0B487C38006808B1601CFD
:100E4000C4B2012000F002F9701CC6B2082EE6DB25
:100E500015B9FFF786FF01E0FFF762FF204670BD7E
:100E6000000C0140988121420080214210B5FFF71B
:100E70007BFE10BD70B504460026FFF7B0FEA02033
:100E8000FFF790FFFFF721FF2012FFF78BFFFFF71F
:100E90001CFF2546E11704EB11610912A4EB0121A7
:100EA000C8B2FFF77FFFFFF710FFFFF798FEA12002
:100EB000FFF778FFFFF709FF0020FFF7A0FF0646C6
:100EC000FFF7D6FE304670BD70B504460E46FFF7FC
:100ED00086FEA020FFF766FFFFF7F7FE2012FFF760
:100EE00061FFFFF7F2FE2546E11704EB11610912DD
:100EF000A4EB0121C8B2FFF755FFFFF7E6FE30462D
:100F0000FFF750FFFFF7E1FEFFF7B2FE0A2000F007
:100F100081F870BD2DE9F04105460E4617460024C4
:100F200009E0E20026FA02F2D1B22A1990B2FFF7E4
:100F3000CBFF601CC4B2BC42F3DBBDE8F0812DE9FD
:100F4000F04107460C460026002509E03602391913
:100F5000491B491E88B2FFF78DFF0644681CC5B2C5
:100F6000A542F3DB3046BDE8F08110B5FF20FFF766
:100F700081FF0446552C01D1002010BD5521FF20D2
:100F8000FFF7A2FFFF20FFF775FF0446552C01D1A4
:100F90000020F2E70120F0E770B506460C46154642
:100FA00008E03046721C96B2FFF764FF04F8010BAC
:100FB000681E85B2002DF4D170BD70B505460C4693
:100FC000164606E021782846FFF77EFF681C85B2AA
:100FD000641C3000A6F101018EB2F3D170BD000097
:100FE00010B504466FF0040004F0A1FBE11704EB18
:100FF0005171C1F3C701264A11701046007800EB09
:101000004001C1EBC0104FF6FF7101EAC000214959
:10101000088010BD01461F4A12884A434FF0E02362
:101020005A6100229A6101221A6100BF4FF0E0224A
:10103000106900F001021AB100F48032002AF5D0E4
:1010400000224FF0E0231A619A6170470146104A6E
:1010500012784A434FF0E0235A6100229A6101223C
:101060001A6100BF4FF0E022106900F001021AB1CE
:1010700000F48032002AF5D000224FF0E0231A61FC
:101080009A61704700E0401E0028FCD170470000C4
:101090005E0200206002002008B503208DF80000E9
:1010A00001208DF8010000208DF8020001208DF84C
:1010B0000300684604F0F1FA08BDF0B503460C469B
:1010C0001546642093FBF0F0C6B2642093FBF0F762
:1010D00000FB1730C1B2132E02DD01F16400C1B272
:1010E0000846CF1701EB977701EBA707BAB20720A5
:1010F00092FBF0F700FB172082B25719601EDFF851
:1011000048C31CF80000384482B2CF1701EB977730
:10111000BF10A1EB87071FB9032C01DA501E82B262
:10112000072092FBF0F700FB1720C0B2F0BD01468C
:10113000CA1701EB92729210A1EB820292B964205D
:1011400091FBF0F200FB121050B94FF4C87091FB04
:10115000F0F200FB121008B9012070470020FCE7F4
:101160000120FAE70020F8E770B5002600240025EA
:10117000B64806883604001D00880644B448B6FB0D
:10118000F0F4B4480088A0423CD0B2490C8040F250
:10119000B27510E02846FFF7CAFF40B1B4F5B77F3B
:1011A00002D3A4F5B77404E0681C85B206E0A4F28B
:1011B0006D14681C85B2B4F5B67FEBD800BFA648A5
:1011C0008580002516E0A4498888FFF7B0FF30B17C
:1011D000012D04D11D2C01D31D3C09E00CE09F48DA
:1011E000405DA04203D89D48405D241A00E003E022
:1011F000681C85B21C2CE6D200BF681C9649887119
:10120000601CC8719248B6FBF0F100FB11644FF40A
:101210006160B4FBF0F0904908704FF46160B4FB7A
:10122000F0F100FB11403C21B0FBF1F08A4948701D
:101230004FF46160B4FBF0F100FB11403C21B0FBC6
:10124000F1F201FB1200844988700B46DA79997932
:101250009888FFF732FF80490872002070BD2DE9A1
:10126000F05F06460F4690469946DDE90AAB00243A
:1012700040F2B270864203DB40F63300864202DD64
:101280000120BDE8F09F40F2B2750AE02846FFF762
:101290004EFF10B17248044401E072480444681CD7
:1012A00085B2B542F2DB781EC7B2002510E06B486C
:1012B000405D40F2A321484304EBC0143046FFF7E1
:1012C00036FF18B1012D01D161480444681C85B274
:1012D000BD42ECDBA8F1010040F2A321484304EB3E
:1012E000C014C9EB4910C0EB092004EB0014CAEB91
:1012F0000A1004EB80045C4404F066FC204604F011
:1013000030FC0121080704F0ACFB012005F023FEAE
:1013100004F05AFC0020B4E71CB50024FFF7BCFE23
:10132000042005F0E0FD45F25001884243D0012140
:101330004FF0C05004F095FB012005F00CFE05F0C5
:101340009DFD012004F0EDFA04E0601CC4B20A2007
:10135000FFF760FE412004F04CFA0028F5D0FA2C8B
:1013600001DB01201CBD4FF4807004F0F6FA01206F
:1013700004F0F9FA04F031FC04F026FC01210846DF
:1013800004F0C6FB04F020FC47F6FF7004F0F6FB07
:1013900004F01AFC002029210A231B22CDE90010A9
:1013A000082140F2DE70FFF75AFF45F25001042099
:1013B00005F08DFD07E004F010FC0121084604F063
:1013C000A7FB04F001FCFFF7CFFE04F07BFB00203D
:1013D000C8E700B51D481438008800F0010008B1C6
:1013E000FFF7C2FE19481438008800F0020038B137
:1013F00016481438008820F0020014491439088077
:1014000012481438008840F6FA7108400F49143920
:10141000088000BF0D481438008800F02000002824
:10142000F8D000BD70B50346002409E013F8015B55
:1014300011F8016BB54201D0002070BD601CC4B230
:101440009442F3DB0120F8E7CDA300081828004000
:101450008051010062020020B01B0020D9A30008C7
:101460000085E2018033E10130B5C0EB001301EBF0
:101470004303FE4C23800AE012F8013BFC4CFB4D79
:101480002D886355F94B1B885B1CF84C238013781F
:10149000002BF1D130BDF0B50024C0EB001501EBFD
:1014A0004505F24E35800CE0651CACB212F8015BCC
:1014B000EF4EEE4F3F88F555EC4D2D886D1CEB4EF1
:1014C00035809C42F0DBF0BDF0B504460E46154673
:1014D000002700223346D018411013E034F81100E1
:1014E000A84202D10F463846F0BD34F81100A84298
:1014F00004DA481C82B2D018411003E0481E83B2BF
:10150000D01841109A42E9DD4FF0FF30ECE7704708
:10151000704770B5D74800780B2881F0D780DFE896
:1015200010F00B005C00BF007901F5014B08620868
:1015300079089008A708BE080020CF490870CF4856
:1015400000780C280CD10520CA490870CA490870D7
:101550000020CB498870C8700120CA4908703BE060
:10156000C64800780E280ED1C7480078012806D159
:10157000C6480078401CC549087001F0A8B8012091
:10158000C349087028E0BD480078032817D1BE4839
:101590000078012805D1BD480078401EBB4908707D
:1015A000EBE70620B3490870B34908700020B4493E
:1015B0008870C870B7490870B74908700CE0AF4828
:1015C0000078072808D10120AA490870AA490870A4
:1015D000AB4988700020C870CFE70120A649087089
:1015E000A64800780C280AD10020A2490870A24918
:1015F0000870FF20A24988700020C8704FE09F4803
:1016000000780E280FD19E48C078401E9C49C870B3
:101610000846C078A1490978884240DD9F48007893
:101620009749C8703BE09548007803280ED194484C
:10163000C078401C9249C8700846C078974909781C
:1016400088422CDD00208E49C87028E08B48007845
:10165000072824D18A48C078012813D18849087006
:1016600002208449087084490870002404E00020A6
:101670008B490855601CC4B2062CF8DB0020894950
:10168000487007E000207E490870032079490870FF
:101690007949087001207A4988700020C8706CE789
:1016A000022075490870754800780C2809D101207E
:1016B0007049087070490870714988700020C870BE
:1016C000A7E06E4800780E280ED1764840780928A9
:1016D00006DA74484078401CC0B27249487000E095
:1016E00000207049487094E06448007803280ED1C7
:1016F0006C484078002806DD6A484078401EC0B239
:101700006849487000E009206649487081E05B48FC
:101710000078072869D162480078634909788842CF
:101720002BD15F48407860494978884225D15C4890
:1017300080785D49897888421FD15948C0785A49D4
:10174000C978884219D156480079574909798842A1
:1017500013D1534840795449497988420DD1012029
:101760004749087003204349087043490870012025
:10177000434988700020C8704BE04948007898BB06
:1017800047484078062844D14548807860BB4448A3
:10179000C07803283DD14248007928BB40484079B1
:1017A000092836D100240DE03F4D02203C49085560
:1017B0002946085515F8011B04F1C800FFF784FB02
:1017C000601CC4B2062CEFDB01202D4908700320F9
:1017D000284908702849087001202949887000208C
:1017E000C87002202F49487013E0244800780F2861
:1017F0000FD12C480078052806DA2A480078401CCA
:10180000C0B22849087000E0002026490870002076
:101810004870B2E6032018490870184800780C2870
:1018200012D11748007828B10220124908701249D5
:10183000087004E001200F4908700F49087000206B
:101840000F498870C87060E00C4800780E2832D1CB
:101850000B48C078401E0A49C8700846C0780F4936
:101860000978884223DC0648C0781FE06215002012
:10187000531C00205215002053150020691500202C
:101880005A1500204415002045150020461500205B
:101890004715002048150020491500204A15002052
:1018A000F614002054150020FC14002068BB002012
:1018B000FC49C87029E0FC48007803280FD1F9489A
:1018C000C078401CF749C8700846C078F7490978C5
:1018D00088421ADDF5480078F249C87015E0F248F0
:1018E0000078072811D10420F1490870F1490870E7
:1018F000EC48C078EB4908710846C078401C8870F5
:101900000020C8700120EC49087036E60420E9493F
:101910000870E448807810287ED2DFE810F07D005F
:1019200010002501B701AE02EA022603290465046E
:10193000A204DE041A0556059205CE051706DA48FC
:1019400000780C281ED1D748407880B10020D549B6
:101950004870002405E0D948005DD9490855601C4D
:10196000C4B2062CF7DB0020D6490870FBE0032048
:10197000CF490870CF4908700120CA4988700020FB
:10198000C870F0E0C84800780E2846D1C5484078B5
:1019900090B1C448C07803280ED1CB48C0786428E1
:1019A00006DAC948C078401CC0B2C749C87000E018
:1019B0006420C549C870D6E0BA484078C8B1B94873
:1019C000C078052815D1BF480078BD49085C0928B2
:1019D00009DABC480078085C401CC0B2B9490978F3
:1019E000B74A505400E00020B6490978B44A505430
:1019F000B9E0AC48C078401EAA49C8700846C07813
:101A0000AA490978884203DCA648C078002802D198
:101A10000020A449C870A6E0F6E3A3480078032894
:101A200042D1A048407890B19E48C07803280ED19A
:101A3000A548C078002806DDA348C078401EC0B283
:101A4000A149C87000E000209F49C8708BE095480C
:101A50004078C8B19348C078052815D199480078D6
:101A60009749085C002809DD96480078085C401E0C
:101A7000C0B294490978924A505400E00920914933
:101A800009788F4A50546EE08648C078401C8549DA
:101A9000C8700846C07885490978884263DD834864
:101AA00000788049C8705EE07F480078072841D1FF
:101AB0007C48007890B17B48407878B97948C07804
:101AC000022803D07748C078042800D110E2012012
:101AD0007449487000207B49087044E071480078E0
:101AE00008B370484078F0B100206E49487008464D
:101AF000C078C0B10846C078012834D00846C07804
:101B0000052811D16E4D00240BE015F8011B04F1DE
:101B1000C800FFF7D9F96A48005D68490855601C9C
:101B2000C4B2062CF1DB1EE06748C1780320FFF742
:101B3000CBF918E05C4800780F2814D15948407858
:101B400088B15848C07805280DD15E48007805282E
:101B500006DA5C480078401CC0B25A49087000E0C0
:101B6000002058490870B1E74F4800780C2812D17E
:101B70004C48407818B100204A49487085E003205D
:101B80004B4908704B490870012046498870084647
:101B90000079C87079E0444800780E2824D1414883
:101BA000407878B13F48C17847480830405C6E289B
:101BB00001D1792100E06E213A48C27842480830CC
:101BC000815462E03748C078401E3649C8700846E4
:101BD000C07836490978884202DC3248C07848BB70
:101BE00000203049C87050E02F480078032822D1E7
:101BF0002C48407878B12B48C17833480830405C95
:101C00006E2801D1792100E06E212648C2782E4845
:101C10000830815439E02348C078401C2149C870FD
:101C20000846C0782149097888422EDD1F4800788F
:101C30001C49C87029E01C480078072825D119489C
:101C4000007850B11748407838B91648C078042851
:101C500003D001201349487017E012480078A0B162
:101C60001048407888B1184D083500200D4948705B
:101C7000002407E015F8011B04F10800FFF724F920
:101C8000601CC4B2042CF5DB00BF1FE706480078D7
:101C90000C2827D103484078C0B100200149487082
:101CA000EAE000005A150020691500204A150020BE
:101CB000521500205315002044150020FC1400206C
:101CC000F614002054150020BA1B00200320FE4902
:101CD0000870FE4908700120FD49887008460079A7
:101CE000C870C9E0FB4800780E284ED1F84840780B
:101CF000A0B3F748C078002811D0F548C078012873
:101D00000ED1F548407C1E2806DAF348407C401C82
:101D1000C0B2F149487400E01E20EF494874ABE0BE
:101D2000EB48C07802280ED1EB48807C632806DAA5
:101D3000E948807C401CC0B2E749887400E0632019
:101D4000E549887498E0E448C07C032807DAE24853
:101D5000C07C401CC0B2E049C87401E003E003202D
:101D6000DD49C87488E0DA48C078401ED849C87098
:101D70000846C078D9490978884202DCD448C0783E
:101D8000F8B90020D249C87076E0D248007803281C
:101D900044D1CF48407880B3CD48C07888B1CC4892
:101DA000C07801280ED1CC48407C012806DDCA4805
:101DB000407C401EC0B2C849487400E00120C649BA
:101DC000487459E0C248C178C3481030405C0028CC
:101DD0000CDDBF48C178C0481030405C401EC0B226
:101DE000BB49CA78BC491031885400E00020B8498A
:101DF000CA78B949103188543EE0FFE7B448C0784A
:101E0000401CB349C8700846C078B4490978884274
:101E100032DDB2480078AE49C8702DE0AD48007898
:101E2000072829D1AA48007870B1A948407858B944
:101E3000A748C078032806DCA548C07818B101205F
:101E4000A349487018E0B5E3A1480078A0B1A048C4
:101E5000407888B1A04D103500209D49487000247D
:101E600007E015F8011B04F11000FFF72DF8601CC6
:101E7000C4B2052CF5DB00BF9CE3964800780C2823
:101E80000BD10320904908709049087001209049B7
:101E9000887008460079C8702AE08E4800780E28BD
:101EA00011D18B48C078401E8949C8700846C07857
:101EB0008A490978884202DC8548C078C0B9002088
:101EC0008349C87014E08348007803280FD1804804
:101ED000C078401C7E49C8700846C0787F490978A0
:101EE000884205DD7D4800787949C87000E000BF70
:101EF00060E3784800780C280BD103207249087001
:101F00007249087001207249887008460079C870CB
:101F10002AE0704800780E2811D16D48C078401E24
:101F20006B49C8700846C0786C490978884202DC61
:101F30006748C078C0B900206549C87014E065489A
:101F4000007803280FD16248C078401C6049C870EF
:101F50000846C07861490978884205DD5F48007805
:101F60005B49C87000E000BF24E35A4800780C28A1
:101F700012D15748407818B1002055494870F6E012
:101F80000320514908705149087001205049887058
:101F900008460079C870EAE04E4800780E287BD1E8
:101FA0004B484078F0B34A48C078032822D04848CC
:101FB000C07804281ED04648C07806281AD0444865
:101FC000C17845482830405C63280CDA4048C17825
:101FD00041482830405C401CC0B23D49CA783E4967
:101FE0002831885400E063203949CA783A492831B9
:101FF0008854BCE03648C07803281BD13448C178E7
:1020000035482830405C32280DDA3148C1783248F2
:102010002830405C401CC0B22D49CA782E49283176
:10202000885401E025E032202949CA782A4928311C
:1020300088549CE02648C078042819D12448C178E7
:1020400025482830405C1E280CDA2148C1782248F7
:102050002830405C401CC0B21D49CA781E49283156
:10206000885400E01E201A49CA781B492831885438
:102070007DE01748C078401E1549C8700846C078F2
:1020800016490978884202DC1148C07840BB00201C
:102090000F49C8706BE0FFE70E48007803283DD178
:1020A0000B48407850B30A48C07806285FD00848EB
:1020B000C17809482830405C002819DD0448C178FF
:1020C00005482830405C0CE05215002053150020D4
:1020D0005A15002069150020BA1B00204A1500205F
:1020E0001BE0401EC0B2FD49CA78FD49885400E09B
:1020F0000020FA49CA78FA49885438E0F748C0788D
:10210000401CF649C8700846C078F64909788842EC
:102110002DDDF4480078F149C87028E0F2480078D5
:10212000072824D1ED48007850B1EC48407838B900
:10213000EA48C078072803DC0120E849487016E027
:10214000E648007898B1E548407880B1E44D002039
:10215000E2494870002407E015F8011B04F128004B
:10216000FEF7B2FE601CC4B2082CF5DB00BF21E212
:10217000DD4800780C280BD10320DC490870DC49CD
:1021800008700120D549887008460079C8702AE097
:10219000D54800780E2811D1D048C078401ECF49CC
:1021A000C8700846C078CF490978884202DCCB481D
:1021B000C078C0B90020C949C87014E0CA48007886
:1021C00003280FD1C548C078401CC449C8700846D0
:1021D000C078C4490978884205DDC2480078BF4903
:1021E000C87000E000BFE5E1BF4800780C280CD1C2
:1021F0000320BE490870BE4908700120B7498870A5
:1022000008460079C8702BE0BAE1B74800780E287C
:1022100011D1B248C078401EB049C8700846C07895
:10222000B0490978884202DCAC48C078C0B90020C7
:10223000AA49C87014E0AC48007803280FD1A74819
:10224000C078401CA549C8700846C078A5490978DF
:10225000884205DDA3480078A049C87000E000BFAF
:10226000A8E1A14800780C280BD103209F490870F1
:102270009F49087001209949887008460079C87004
:102280002AE0994800780E2811D19448C078401E61
:102290009249C8700846C07892490978884202DCA1
:1022A0008E48C078C0B900208C49C87014E08E48B0
:1022B000007803280FD18948C078401C8749C8702E
:1022C0000846C07887490978884205DD8548007846
:1022D0008249C87000E000BF6CE1834800780C2898
:1022E0000BD10320814908708149087001207B4986
:1022F000887008460079C8702AE07B4800780E286C
:1023000011D17648C078401E7449C8700846C0781C
:1023100074490978884202DC7048C078C0B900204E
:102320006E49C87014E07048007803280FD16B48DC
:10233000C078401C6949C8700846C0786949097866
:10234000884205DD674800786449C87000E000BF36
:1023500030E1654800780C280BD1032063490870F0
:102360006349087001205D49887008460079C8708B
:102370002AE05D4800780E2811D15848C078401EE8
:102380005649C8700846C07856490978884202DC28
:102390005248C078C0B900205049C87014E0524873
:1023A000007803280FD14D48C078401C4B49C870B5
:1023B0000846C0784B490978884205DD49480078CD
:1023C0004649C87000E000BFF4E0474800780C2898
:1023D0000BD10320454908704549087001203F4949
:1023E000887008460079C8702AE03F4800780E28B7
:1023F00011D13A48C078401E3849C8700846C078A4
:1024000038490978884202DC3448C078C0B90020D5
:102410003249C87014E03448007803280FD12F489F
:10242000C078401C2D49C8700846C0782D490978ED
:10243000884205DD2B4800782849C87000E000BFBD
:10244000B8E0294800780C280BD1032027490870F0
:102450002749087001202149887008460079C87012
:102460002AE0214800780E2811D11C48C078401E6F
:102470001A49C8700846C0781A490978884202DCAF
:102480001648C078C0B900201449C87014E0164836
:10249000007803280FD11148C078401C0F49C8703C
:1024A0000846C0780F490978884205DD0D48007854
:1024B0000A49C87000E000BF7CE00B4800780C2897
:1024C00018D10320094908700949087001200349FF
:1024D000887008460079C87037E000005A1500205F
:1024E000E21B00204A15002069150020521500202B
:1024F00053150020FE4800780E2811D1FD48C07801
:10250000401EFC49C8700846C078FB4909788842DB
:1025100002DCF848C078C0B90020F649C87014E061
:10252000F348007803280FD1F248C078401CF149E5
:10253000C8700846C078F0490978884205DDEE4841
:102540000078EC49C87000E000BF33E0E84800784C
:102550000C280BD10320E9490870E94908700120D3
:10256000E449887008460079C87008E0E0480078BF
:102570000E2804D0DE480078032800D000BF19E000
:10258000DB4800780C280BD10320DC490870DC49BB
:1025900008700120D749887008460079C87008E0A3
:1025A000D34800780E2804D0D1480078032800D002
:1025B00000BF00BF00BF8AE00520D1490870CC48A9
:1025C00000780C2805D10020CC490870CC4908704F
:1025D00008E0C74800780E2804D0C54800780328D2
:1025E00000D000BF73E00620C5490870C0480078DD
:1025F0000C2805D10020C1490870C149087008E0C5
:10260000BB4800780E2804D0B9480078032800D0D1
:1026100000BF5CE00720BA490870B54800780C2874
:1026200005D10020B5490870B549087008E0B048E8
:1026300000780E2804D0AE480078032800D000BFF0
:1026400045E00820AE490870A94800780C2805D15B
:102650000020AA490870AA49087008E0A448007838
:102660000E2804D0A2480078032800D000BF2EE036
:102670000920A34908709E4800780C2805D1002045
:102680009E4908709E49087008E0994800780E2815
:1026900004D097480078032800D000BF17E00A2034
:1026A00097490870924800780C2805D1002093497A
:1026B00008709349087008E08D4800780E2804D00F
:1026C0008B480078032800D000BF00E000BF00BFA7
:1026D00000208749087070BD704770477047704789
:1026E00070472DE9F04104460F461646A01900F048
:1026F000FF0825460AE0454500D105E081A239469C
:10270000284602F08AFE00BF681CC5B2022DF2DD29
:10271000A119C8B27CA2394602F07FFEBDE8F08163
:1027200070B504460D46012C1BD178A20321084642
:1027300002F073FE77A20A21032002F06EFE77A258
:102740001021032002F069FE2DB176A2172103208B
:1027500002F063FE32E075A21721032002F05DFE55
:102760002CE0022C14D169A20321084602F055FE88
:1027700070A20A21032002F050FE6FA21021032054
:1027800002F04BFE6DA21721032002F046FE15E079
:10279000032C13D15DA20321084602F03EFE65A280
:1027A0000A21032002F039FE63A21021032002F067
:1027B00034FE5CA21721032002F02FFE70BD70B51D
:1027C0000F204D4908704B48C078032190FBF1F071
:1027D0005C49087048480078032190FBF1F05949A2
:1027E0000978884201DD032007E04348007803218F
:1027F00090FBF1F201FB1200401CC4B2012C01D18C
:1028000002F098F8C4EB041042004F484D4B1B787F
:102810005A2606FB03014D4804F0F5FE4C480078AB
:1028200048490978884202D000204A49087149483D
:10283000007948B9454A0021084602F0EEFD4548B6
:102840000079401C434908713E48007840490870AF
:102850002848007808B1012000E0002005462946FC
:102860000120FFF75DFF2348C078032190FBF1F2C0
:1028700001FB1200C5B22A4600210846FFF731FFCE
:1028800070BD10B53348007970B9334A002108464D
:10289000FEF7EAFD2D4A0021084602F0BEFD2D4854
:1028A0000079401C2B4908712A4840782949097849
:1028B0002A4A5054002406E02848005D3030274959
:1028C0000855601CC4B2062CF6DB2248007828B9F3
:1028D0002048807810B101201E49C87001231F4A8A
:1028E0000C21022002F097FE00201A49C87037E040
:1028F000691500205A1500204A15002052150020A5
:102900005315002020200000A1B70000B7B5BBD8A8
:102910000000000020A1C4200000000020A1C5206C
:1029200000000000C9E8B6A800000000B2E9BFB48A
:1029300000000000202B2000202D2000C8B7C8CFA9
:102940000000000050150020B1060020531C00209C
:10295000511500205415002038060020F6140020E0
:1029600008460078012804D10846807808B1012083
:10297000C8700123FB4A0D21022002F04CFE00200A
:10298000F949C87008460078022804D108468078C2
:1029900008B10120C8700123F24A521C0E21022006
:1029A00002F039FE0020F049C8700846007803287C
:1029B00004D10846807808B10120C8700123E94A93
:1029C000921C0F21022002F026FE0020E649C8706A
:1029D00008460078042804D10846807808B1012010
:1029E000C8700123DF4AD21C1021022002F013FE1E
:1029F0000020DD49C87008460078052804D1084643
:102A0000807808B10120C8700123D64A121D112117
:102A1000022002F000FE0020D349C870002408E024
:102A2000D048401E005D3038CE49491E0855601C14
:102A3000C4B2062CF4DB10BD10B50120CB490870E0
:102A4000C948007970B9CA4A00210846FEF70CFD52
:102A5000C84A0021084602F0E0FCC3480079401C47
:102A6000C1490871C448C078032190FBF1F201FB11
:102A70001200C4B2224600210846FFF732FE10BD04
:102A800070B5034600200DE00A25B1FBF5F605FB05
:102A9000161404F13005ECB21C540A25B1FBF5F113
:102AA000451CE8B29042EFDB70BD2DE9F0410546D0
:102AB00088461646324641462846FFF7E1FF002485
:102AC0000BE02F5DA819401E001B00782855A8199F
:102AD000401E001B0770601CC4B206EBD671B4EB3D
:102AE000610FEEDBBDE8F0811CB59F48007970B93D
:102AF000A24A00210846FEF7B7FC9E4A002108467C
:102B000002F08BFC98480079401C974908719C485A
:102B10000078D8B99B480078C0B99BA20321084629
:102B200002F07BFC9AA20A21032002F076FC9AA212
:102B30001021032002F071FC99A21721032002F05A
:102B40006CFC99A21021002002F067FC99A20021E0
:102B5000084602F062FC99480078A8B30020974923
:102B600008701420964908700322084601786846C8
:102B7000FFF79BFF9DF80000302802D120208DF840
:102B800000009DF80100302802D120208DF80100BE
:102B900003236A460821022002F03DFD14208949E2
:102BA00008700222084601786846FFF77EFF9DF80C
:102BB0000000302802D120208DF8000002236A4650
:102BC0001721184602F027FD7F4890F829100222AD
:102BD0006846FFF76AFF9DF80000302802D12020E8
:102BE0008DF8000002236A461721012002F013FD30
:102BF000754890F8581003226846FFF756FF9DF875
:102C00000000302802D120208DF800009DF801003E
:102C1000302802D120208DF8010003236A460821C4
:102C2000012002F0F8FC1CBD10B568480078684926
:102C30000978884209D04C48007910B100204A49EF
:102C400008716348007861490870614800780B2872
:102C500033D2DFE800F006090C0F12222526292CBA
:102C60002F00FFF741FF29E0FFF7E6FE26E0FFF720
:102C700008FE23E0FFF7A3FD20E03F48807800280E
:102C80000ADD3D488078112806DA3B498978491EDB
:102C9000504A52F82100804710E0FFF721FD0DE077
:102CA0000CE0FFF71CFD09E0FFF718FD06E0FFF759
:102CB00014FD03E0FFF710FD00E000BF00BF10BDF2
:102CC0007CB54548007810B10020434908700520C4
:102CD000264908702848C078032190FBF1F03F494D
:102CE000087022480078032190FBF1F03B490978F5
:102CF000884201DD032007E01C480078032190FB97
:102D0000F1F201FB1200401CC4B2C4EB04104200FB
:102D10003348324B1B785A2606FB0301154804F052
:102D200072FC304800782D490978884202D0002092
:102D30000D4908710C48007948B90E4A002108462F
:102D400002F06BFB08480079401C074908712348D2
:102D50000078244908700848407808B1022044E00F
:102D600042E00000F7140020541500204A1500200E
:102D7000BF050020531C00205A15002054040020D9
:102D80004B1500204C150020B9CAD5CF000000001B
:102D9000B3CCD0F200000000B1E0B3CC00000000E2
:102DA000C9E8D6C300000000BFC9D2D4BFAAC3C5BA
:102DB00021000000B1EAD7BC000000004D15002042
:102DC0004E15002046150020BA1B0020F5140020E7
:102DD0005315002004150020441500205015002034
:102DE000920800205115002001200446FB4800787D
:102DF00008B1012000E00020054629462046FFF7E3
:102E00008FFCF648C078032190FBF1F201FB120021
:102E1000C5B22A4600210846FFF763FCEF48C07898
:102E200002283ADCED48C078B0B9EC48007870B1BF
:102E3000EA48407828B1EAA21621002002F0EDFA13
:102E40000AE0E9A21621002002F0E7FA04E0E6A277
:102E50001621002002F0E1FAE048C078012816D1DE
:102E6000DE48007870B1DD48407828B1DCA2162138
:102E7000012002F0D2FA0AE0DBA21621012002F0C2
:102E8000CCFA04E0D8A21621012002F0C6FAD8A29A
:102E90001221022002F0C1FAF9E0D048C0780328DC
:102EA00008D1CE48007828B1CC48407810B1012034
:102EB000D249C870D248407828B9D2A21421002043
:102EC00002F0ABFA1EE0CE48C17803226846FFF755
:102ED000ECFD9DF80000302809D120208DF800007D
:102EE0009DF80100302802D120208DF80100032335
:102EF0006A461321002002F08EFBC4A21621002096
:102F000002F08BFA0020BD49C870C2A21321012033
:102F100002F083FAB148007800287DD0002406E052
:102F2000BF48005D3030BE490855601CC4B2062C55
:102F3000F6DBB248007860B9B048807848B1A7485D
:102F4000407830B1A548C078052802D10120AB49AE
:102F5000C8700123B24A1321022002F05CFB00205A
:102F6000A649C8700846007801280BD10846807829
:102F700040B19A48407828B19848C078052801D1D6
:102F80000120C8700123A64A521C1421022002F01D
:102F900042FB00209949C8700846007802280BD1EE
:102FA0000846807840B18D48407828B18B48C07879
:102FB000052801D10120C8700123994A921C1521CE
:102FC000022002F028FB00208C49C87008460078D7
:102FD00003280BD10846807840B18048407828B15A
:102FE0007E48C078052801D10120C87001238C4A91
:102FF000D21C1621022002F00EFB00207F49C8706F
:103000000846007804280DD10846807850B17348EE
:10301000407838B1714800E034E0C078052801D12B
:103020000120C87001237E4A121D1721022002F0E0
:10303000F2FA00207149C8700846007805280BD1C3
:103040000846807840B16548407828B16348C07828
:10305000052801D10120C8700123714A521D182191
:10306000022002F0D8FA00206449C870002406E06B
:103070006B48005D30386A490855601CC4B2062CA4
:10308000F6DB04E067A21321022002F0C6F97CBD42
:1030900070B56648007810B10020644908700420BB
:1030A000634908704D48C078032190FBF1F06149F5
:1030B00008705F480078032190FBF1F05D490978C2
:1030C000884201DD032007E059480078032190FB86
:1030D000F1F201FB1200401CC4B2022C01D101F03C
:1030E00029FCC4EB041042005348524B1B785A266B
:1030F00006FB0301514804F086FA514800784D4917
:103100000978884202D000203C4908713B48007988
:1031100048B94A4A0021084602F07FF93748007949
:10312000401C3649087143480078454908702B48CF
:10313000407808B1022000E00120044627480078CA
:1031400008B1012000E00020054629462046FFF78F
:10315000E7FA2248C078032190FBF1F201FB12004C
:10316000C5B22A4600210846FFF7BBFA1B48C078C3
:1031700002286BDC1948C07840B91848007828B19B
:103180001648407810B101201C49C8701C48007ACC
:103190006E2805D12BA21821002002F03EF904E090
:1031A00029A21821002002F038F900201349C87024
:1031B0000A48C078012807D10848007820B107489C
:1031C000407808B10120C8700D48407A6E283ED181
:1031D0001CA21821012002F020F93EE05A1500201F
:1031E000D4CBD0D000000000202020200000000020
:1031F00054544BB1E4C6B5C6F70000005415002086
:10320000BA1B0020CEB4C9E8D6C30000B9ABBDEFED
:1032100000000000BCF2CCE5D6D0CEC40000000017
:10322000F61400202A2A2A2A2A2A000044150020FF
:103230004A1500205015002047090020531C00208B
:1032400051150020B7F10000CAC7000029E0AFF215
:1032500008021821012002F0E0F80020FC49C870A3
:10326000FC48C078022807D1FA48007820B1F94814
:10327000407808B10120C870F748807A6E2806D1DE
:10328000AFF240021821022002F0C7F805E0AFF2C9
:1032900048021821022002F0C0F80020EC49C87052
:1032A00040E0EC48C078032808D1EA48007828B10B
:1032B000E848407810B10120E549C870E648C07A76
:1032C0006E2806D1AFF284021821002002F0A5F882
:1032D00005E0AFF28C021821002002F09EF80020D9
:1032E000DB49C870DB48C078042807D1D94800788A
:1032F00020B1D848407808B10120C870D648007B7A
:103300006E2806D1AFF2C4021821012002F085F820
:1033100005E0AFF2CC021821012002F07EF8002077
:10332000CB49C87070BD70B5CC48007810B1002092
:10333000CA4908700420CA490870C648C0780321E9
:1033400090FBF1F0C7490870C5480078032190FB55
:10335000F1F0C4490978884201DD032007E0C04844
:103360000078032190FBF1F201FB1200401CC4B273
:10337000022C01D101F0DEFAC4EB04104200BA487D
:10338000B84B1B785A2606FB0301B84804F03BF9FA
:10339000B7480078B3490978884202D00020AC4988
:1033A0000871AB48007948B9B04A0021084602F0DC
:1033B00034F8A7480079401CA5490871A94800784D
:1033C000AB490870A348407808B1022000E0012012
:1033D0000446A048007808B1012000E0002005461E
:1033E00029462046FFF79CF99A48C078032190FBB4
:1033F000F1F201FB1200C5B22A4600210846FFF790
:1034000070F99448C078022856DC9348007C6E28F6
:1034100006D1AFF2D0121721002001F0FEFF05E027
:10342000AFF2DC121721002001F0F7FF8948C078C5
:10343000012808D18748007828B18648407810B123
:1034400001208349C8708448417C02228948FFF7E3
:103450002CFB88480078302802D12020854908704C
:103460000223844A1721012002F0D5F80020784970
:10347000C8707848C078022807D17648007820B113
:103480007448407808B10120C8707348817C0222DA
:103490007848FFF70AFB77480078302802D12020CF
:1034A000744908700223734A1721184602F0B3F8D2
:1034B00000206749C87030E06648C07803282CDBDC
:1034C0006448007828B16348407810B10120604911
:1034D000C8706148C07C40B967A21521002001F086
:1034E0009CFF00205A49C87017E05B48C17C01224C
:1034F0006048FFF7DAFA01235E4A1821002002F043
:103500008AF800205249C8705DA2152101F085FF9C
:103510005CA21921002001F080FF70BD70B54F48FA
:10352000007810B100204D49087006204C49087001
:103530004848C078032190FBF1F04A490870484898
:103540000078032190FBF1F046490978884201DDBB
:10355000032007E042480078032190FBF1F201FBD1
:103560001200401CC4B2012C01D101F0E3F9C4EBFC
:103570000410420044483B4B1B785A2606FB0301CB
:103580003A4804F040F83A480078364909788842C9
:1035900002D000202E4908712D48007948B9334ADD
:1035A0000021084601F039FF29480079401C2849CC
:1035B00008712C4800782E4908702648407808B1D8
:1035C000022000E0012004462248007808B10120D2
:1035D00000E00020054629462046FFF7A1F81D48D7
:1035E000C078032190FBF1F201FB1200C5B22A461C
:1035F00000210846FFF775F81648C078022854DC09
:103600001548007E632805D120A21721002001F073
:1036100004FF04E01FA21721002001F0FEFE0E4867
:10362000407E632805D119A21721012001F0F5FE83
:1036300004E018A21721012001F0EFFE0648807E69
:1036400063282BD111A21721022001F0E6FE45E0EC
:10365000541500205A150020BA1B002044150020E4
:103660004A15002050150020DE090020531C0020C0
:1036700051150020A5150020B2BBD6D8CAD4000031
:1036800020202000B4CE0000750A0020B3A3B1D5DD
:1036900000000000B3A3BFAA00000000AFF20C02BC
:1036A0001721022001F0B9FE18E0F848C07802287E
:1036B00014DDF648C078052810DCF548C07E632884
:1036C00006D1AFF238021721002001F0A6FE05E076
:1036D000AFF240021721002001F09FFE70BD70B5CF
:1036E000EC48007810B10020EA4908700120EA494E
:1036F0000870E648C078032190FBF1F0E7490870B4
:10370000E5480078032190FBF1F0E449097888420C
:1037100001DD032007E0E0480078032190FBF1F28F
:1037200001FB1200401CC4B2022C01D101F002F9CD
:10373000C4EB04104200DA48D84B1B785A2606FB2B
:103740000301D84803F05FFFD748007948B9D54A4C
:103750000021084601F061FED3480079401CD2499F
:103760000871CA48407808B1022000E001200446F0
:10377000C648007808B1012000E00020054629462F
:103780002046FEF7CDFFC148C078032190FBF1F23F
:1037900001FB1200C5B22A4600210846FEF7A1FF30
:1037A000BB4890F820006F2806D1AFF218121721FD
:1037B000002001F032FE05E0AFF2301217210020A8
:1037C00001F02BFEB24890F821006F2806D1AFF22D
:1037D0003C121721012001F020FE05E0AFF2541247
:1037E0001721012001F019FE70BD70B5A9480078BD
:1037F00010B10020A74908700720A7490870A34806
:10380000C078032190FBF1F0A4490870A248007829
:10381000032190FBF1F0A1490978884201DD0320E2
:1038200007E09D480078032190FBF1F201FB1200B4
:10383000401CC4B2022C01D101F07CF8C4EB04108E
:1038400042009A48954B1B785A2606FB030195487F
:1038500003F0D9FE9648007890490978884202D052
:103860000020914908719048007948B98D4A00219B
:10387000084601F0D2FD8C480079401C8A49087145
:10388000864800788A4908708048407808B102204C
:1038900000E0012004467D48007808B1012000E0E6
:1038A0000020054629462046FEF73AFF7748C078B3
:1038B000032190FBF1F201FB1200C5B22A46002160
:1038C0000846FEF70EFF7148C078022869DC6F4891
:1038D000C07840B96D48007828B16C48407810B184
:1038E00001207149C8706A4890F828100222714876
:1038F000FFF7DBF86F480078302802D120206D49AF
:10390000087002236B4A1821002001F084FE002079
:103910006549C8705D48C078012807D15B480078C8
:1039200020B15A48407808B10120C870584890F832
:10393000291002225F48FFF7B8F85E480078302867
:1039400002D120205B49087002235A4A1821012025
:1039500001F061FE00205449C8704C48C07802282C
:1039600007D14A48007820B14848407808B1012082
:10397000C870474890F82A1002224E48FFF795F881
:103980004C480078302802D120204A490870022390
:10399000484A1821184601F03EFE00204249C870EE
:1039A000AEE03A48C07802286EDD3848C078052875
:1039B0006ADC3648C078032808D13448007828B13A
:1039C0003248407810B101203749C870304890F82B
:1039D0002B1002223748FFF768F836480078302865
:1039E00002D12020334908700223324A18210020D6
:1039F00001F011FE00202C49C8702448C07804282A
:103A000007D12248007820B12048407808B1012031
:103A1000C8701F4890F82C1002222648FFF745F87E
:103A200024480078302802D120202249087002233F
:103A3000204A1821012001F0EEFD00201A49C8702B
:103A40001248C078052807D11048007820B10F48E7
:103A5000407808B10120C8700D4890F82D1002225E
:103A60001448FFF722F813480078302802D12020AC
:103A70001049087002230F4A1821184601F0CBFDA7
:103A800000200949C8703BE016E000005A150020EC
:103A9000BA1B0020441500204A15002050150020B4
:103AA000480B0020531C002054150020850B0020DB
:103AB00051150020A5150020FE48C078072808D120
:103AC000FC48007828B1FB48407810B10120FA4941
:103AD000C870FA4890F82F100222F948FEF7E5FF67
:103AE000F7480078302802D12020F54908700223D9
:103AF000F34A1821012001F08EFD0020EE49C87024
:103B000070BD70B5EF48007810B10020ED49087025
:103B10000520ED490870E748C078032190FBF1F0DB
:103B2000EA490870E8480078032190FBF1F0E74982
:103B30000978884201DD032007E0E348007803218B
:103B400090FBF1F201FB1200401CC4B2C4EB041064
:103B50004200DF48DD4B1B785A2606FB0301DD4897
:103B600003F051FDD348407808B1022000E0012065
:103B70000446D048007808B1012000E00020054646
:103B800029462046FEF7CCFDCA48C078032190FBA9
:103B9000F1F201FB1200C5B22A4600210846FEF7E9
:103BA000A0FDC448C078022827DCC44890F8301033
:103BB0000122C348FEF779FF0123C14A18210020E2
:103BC000FDF769FCBD4890F831100322BC48FEF7B0
:103BD0006CFFBB480078302808D12020B849087015
:103BE00008464078302801D1202048700323B44A89
:103BF00016210120FDF74FFC18E0AE48C0780228DE
:103C000014DDAC48C078052810DCAC4890F83500CD
:103C100030B9AFF6D01218210220FDF725FC05E0DF
:103C2000AFF6DC1218210220FDF71EFCA94A002184
:103C3000084601F0F2FB70BD70B5A248007810B1E3
:103C40000020A049087002209F4908709948C07858
:103C5000032190FBF1F09D4908709B4800780321F7
:103C600090FBF1F099490978884201DD032007E0D3
:103C700095480078032190FBF1F201FB1200401CF3
:103C8000C4B2C4EB041042009348904B1B785A26F0
:103C900006FB03018F4803F0B6FC8648407808B164
:103CA000022000E0012004468248007808B101208B
:103CB00000E00020054629462046FEF731FD7D48FC
:103CC000C078032190FBF1F201FB1200C5B22A4635
:103CD00000210846FEF705FD784890F838100222CA
:103CE0007748FEF7E2FE76480078302802D120209F
:103CF000734908700223724A17210020FDF7CBFB9D
:103D00006E4890F8391003226D48FEF7CEFE6C48DD
:103D10000078302808D1202069490870084640788A
:103D2000302801D1202048700323654A1621012044
:103D3000FDF7B1FB614890F83A1003226048FEF7A6
:103D4000B4FE5F480078302808D120205C49087014
:103D500008464078302801D1202048700323584A73
:103D600016210220FDF797FB5A4A0021084601F070
:103D700054FB70BD70B55348007810B10020514914
:103D800008700620504908704A48C078032190FB0B
:103D9000F1F04E4908704C480078032190FBF1F097
:103DA0004A490978884201DD032007E04648007847
:103DB000032190FBF1F201FB1200401CC4B2012C64
:103DC00001D100F0B7FDC4EB0410420043483F4B63
:103DD0001B785A2606FB03013E4803F014FC3548C5
:103DE000407808B1022000E0012004463148007804
:103DF00008B1012000E00020054629462046FEF7D4
:103E00008FFC2C48C078032190FBF1F201FB1200DB
:103E1000C5B22A4600210846FEF763FC2548C07853
:103E200002282EDC254890F8401002222448FEF794
:103E30003CFE23480078302802D120202049087019
:103E400002231F4A17210020FDF725FB1B4890F88D
:103E5000421003221A48FEF728FE1948007830283D
:103E600008D120201649087008464078302801D132
:103E7000202048700323124A16210220FDF70BFB75
:103E80007BE00C48C078022863DD0A48C07805282A
:103E90005FDC0A4890F8431003220948FEF705FE4C
:103EA0000748007830281FD12020054908700846AF
:103EB000407815E05A15002054150020BA1B002048
:103EC000A5150020441500204A150020501500209B
:103ED000760C0020531C00202B0D0020860D0020A6
:103EE000302801D1202048700323FE4A16210020EB
:103EF000FDF7D1FAFC4890F844100322F948FEF788
:103F0000D4FDF8480078302808D12020F549087001
:103F100008464078302801D1202048700323F14A18
:103F200016210120FDF7B7FAEF4890F8451002225C
:103F3000EC48FEF7BAFDEB480078302802D120208B
:103F4000E84908700223E74A17211846FDF7A3FA4B
:103F500013E0E54890F846100222E248FEF7A5FD7E
:103F6000E0480078302802D12020DE490870022382
:103F7000DC4A17210020FDF78EFADC4A00210846B2
:103F800001F04BFA70BD70B5D948007810B100202F
:103F9000D74908700620D7490870D748C078032150
:103FA00090FBF1F0D5490870D2480078032190FBCE
:103FB000F1F0D2490978884201DD032007E0CD48BD
:103FC0000078032190FBF1F201FB1200401CC4B207
:103FD000012C01D100F0AEFCC4EB04104200C84833
:103FE000C64B1B785A2606FB0301C04803F00BFBA7
:103FF000C148407808B1022000E001200446BE48D4
:10400000007808B1012000E000200546294620463E
:10401000FEF786FBB848C078032190FBF1F201FB64
:104020001200C5B22A4600210846FEF75AFBB248E4
:10403000C078022834DCAC4890F849100322A94823
:10404000FEF733FDA7480078302808D12020A54985
:10405000087008464078302801D12020487003239A
:10406000A04A16210120FDF716FA9F4890F84A1041
:1040700003229C48FEF719FD9A480078302808D1A1
:1040800020209849087008464078302801D1202027
:1040900048700323934A16210220FDF7FCF970E0D3
:1040A0009548C078022852DD9348C07805284EDC38
:1040B0008D4890F84B1003228A48FEF7F6FC894899
:1040C0000078302808D120208649087008464078BA
:1040D000302801D1202048700323824A1621002075
:1040E000FDF7D9F9804890F84C1003227D48FEF77F
:1040F000DCFC7C480078302808D120207949087001
:1041000008464078302801D1202048700323754AA2
:1041100016210120FDF7BFF9734890F84D100322D6
:104120007048FEF7C2FC6F480078302808D1202084
:104130006C49087008464078302801D1202048702A
:104140000323684A16210220FDF7A5F919E0664805
:1041500090F84E1003226348FEF7A7FC61480078F0
:10416000302808D120205F49087008464078302860
:1041700001D12020487003235A4A16210020FDF760
:104180008AF95A4A0021084601F047F970BD70B516
:104190005748007810B1002055490870042055494F
:1041A00008705548C078032190FBF1F0534908701E
:1041B00050480078032190FBF1F05049097888427B
:1041C00001DD032007E04B480078032190FBF1F26A
:1041D00001FB1200401CC4B2022C01D100F0AAFB6A
:1041E000C4EB041042004748444B1B785A2606FB98
:1041F00003013E4803F007FA3F48407808B1022027
:1042000000E0012004463C48007808B1012000E0AD
:104210000020054629462046FEF782FA3648C07837
:10422000032190FBF1F201FB1200C5B22A460021E6
:104230000846FEF756FA3048C078022842DC2A4881
:1042400090F8501002222748FEF72FFC25480078EE
:10425000302802D12020234908700223214A172147
:104260000020FDF718F9204890F8511003221D484E
:10427000FEF71BFC1B480078302808D12020194984
:10428000087008464078302801D120204870032368
:10429000144A16210120FDF7FEF8134890F8521039
:1042A00002221048FEF701FC0E480078302802D1A7
:1042B00020200C49087002230A4A17211846FDF7EE
:1042C000EAF848E00C48C078022844DD0A48C07883
:1042D000042840DC044890F8531003220148FEF7FC
:1042E000E4FB11E0A5150020BA1B0020531C0020A0
:1042F000441500204A1500205A15002050150020B2
:10430000590E00202C0F0020FE480078302808D1DC
:104310002020FC49087008464078302801D1202030
:1043200048700323F74A16210020FDF7B4F8F64839
:1043300090F854100222F348FEF7B7FBF1480078DA
:10434000302802D12020EF4908700223ED4A1721BE
:104350000120FDF7A0F8ED4A0021084601F05DF8C4
:1043600070BD70B5EA48007810B10020E8490870C7
:104370000320E8490870E848C078032190FBF1F079
:10438000E6490870E3480078032190FBF1F0E34927
:104390000978884201DD032007E0DE480078032128
:1043A00090FBF1F201FB1200401CC4B2012C01D1C0
:1043B00000F0C0FAC4EB04104200D948D74B1B7878
:1043C0005A2606FB0301D14803F01DF9D248407874
:1043D00008B1022000E001200446CF48007808B16F
:1043E000012000E00020054629462046FEF798F906
:1043F000C948C078032190FBF1F201FB1200C5B25D
:104400002A4600210846FEF76CF9C348C078022806
:104410003CDCBD4890F858100222BA48FEF745FB34
:10442000B8480078302802D12020B649087002230D
:10443000B44A17210020FDF72EF8B34890F8591020
:104440000222B048FEF731FBAE480078302802D196
:104450002020AC4908700223AA4A17210120FDF749
:104460001AF8A94890F85A100222A648FEF71DFB38
:10447000A4480078302802D12020A24908700223E5
:10448000A04A17211846FDF706F817E0A248C078A1
:10449000032813D19C4890F85B1002229948FEF73C
:1044A00004FB98480078302802D1202095490870F4
:1044B0000223944A17210020FCF7EDFF934A0021C4
:1044C000084600F0AAFF70BD70B59148007810B1A1
:1044D00000208F49087002208E4908708E48C078ED
:1044E000032190FBF1F08D4908708A480078032180
:1044F00090FBF1F089490978884201DD032007E04B
:1045000084480078032190FBF1F201FB1200401C6B
:10451000C4B2C4EB041042008248804B1B785A2678
:1045200006FB0301794803F06EF87B48407808B138
:10453000022000E0012004467748007808B10120FD
:1045400000E00020054629462046FEF7E9F87248BB
:10455000C078032190FBF1F201FB1200C5B22A469C
:1045600000210846FEF7BDF86B48C07802280DDC34
:10457000654890F8601001226248FEF796FA012320
:10458000604A18210020FCF786FF00E000BF5F4A68
:104590000021084600F041FF70BD70B55C4800780E
:1045A00010B100205A49087007205A4908705A482B
:1045B000C078032190FBF1F0584908705548007805
:1045C000032190FBF1F055490978884201DD032071
:1045D00007E050480078032190FBF1F201FB120044
:1045E000401CC4B2022C01D100F0A4F9C4EB0410A9
:1045F00042004D48494B1B785A2606FB03014348AD
:1046000003F001F84448407808B1022000E001209E
:1046100004464148007808B1012000E0002005462A
:1046200029462046FEF77CF83B48C078032190FBE2
:10463000F1F201FB1200C5B22A4600210846FEF73E
:1046400050F83548C078022841DC2F4890F86810AF
:1046500002222C48FEF729FA02232A4A16210020BA
:10466000FCF719FF284890F8691002222548FEF748
:104670001CFA24480078302808D1202021490870ED
:1046800008464078302801D12020487002231D4A76
:1046900016210120FCF7FFFE1B4890F86A10022249
:1046A0001848FEF702FA17480078302808D1202071
:1046B0001449087008464078302801D120204870FD
:1046C0000223104A16211846FCF7E5FE6BE012485B
:1046D000C07802284DDD1048C078052849DC0A481A
:1046E00090F86B1002220748FEF7DFF905480078C2
:1046F00030281DD120200349087008464078302812
:1047000016D113E0A5150020BA1B0020531C002071
:10471000441500204A1500205A150020501500208D
:10472000C30F00203C10002097100020202048706C
:104730000223774A16210020FCF7ADFE754890F859
:104740006C1002227248FEF7B0F9714800783028E8
:1047500008D120206E49087008464078302801D1E1
:104760002020487002236A4A16210120FCF793FE9C
:1047700019E0684890F86F1002226548FEF795F935
:1047800063480078302808D1202061490870084625
:104790004078302801D12020487002235C4A16213D
:1047A0000120FCF778FE5C4A0021084600F035FE47
:1047B00070BD70B55948007810B100205749087095
:1047C0000320574908705748C078032190FBF1F047
:1047D0005549087052480078032190FBF1F0524986
:1047E0000978884201DD032007E04D480078032165
:1047F00090FBF1F201FB1200401CC4B2C4EB0410A8
:1048000042004A48484B1B785A2606FB030142489F
:1048100002F0F9FE4348407808B1022000E0012090
:1048200004464048007808B1012000E00020054619
:1048300029462046FDF774FF3A48C078032190FBD3
:10484000F1F201FB1200C5B22A4600210846FDF72D
:1048500048FF314A0021084600F0DFFD70BD70B509
:104860002E48007810B100202C49087003202C49F4
:1048700008702C48C078032190FBF1F02A49087099
:1048800027480078032190FBF1F0274909788842F6
:1048900001DD032007E022480078032190FBF1F2BC
:1048A00001FB1200401CC4B2C4EB041042002048BB
:1048B0001D4B1B785A2606FB0301174802F0A3FE86
:1048C0001848407808B1022000E00120044615484D
:1048D000007808B1012000E0002005462946204666
:1048E000FDF71EFF0F48C078032190FBF1F201FB9A
:1048F0001200C5B22A4600210846FDF7F2FE064A1C
:104900000021084600F089FD70BD70477047000027
:10491000A5150020BA1B0020531C002044150020C0
:104920004A1500205A15002050150020881100203B
:1049300001120020002000BF04E02021FE4A115493
:10494000411CC8B27928F8DB704708B500200090F8
:104950007820FCF78FFAF94908707920FCF78AFA79
:10496000F74908700023012208460178684600F0E4
:104970001EFE01236A4619460220FCF78CFDF1A2B7
:1049800002210846FCF770FD00230222EB48017863
:10499000684600F00CFE02236A4603211846FCF725
:1049A0007AFD08BD70471CB5002000900190E6A27A
:1049B0000A21FCF759FDE7A200210120FCF754FD74
:1049C000E74800680521B0FBF1F4002309222146E5
:1049D000684600F0ECFD6A4609210120FCF744FD21
:1049E000E0A213210120FCF73FFDE0A200210220FC
:1049F000FCF73AFD00230922DE480168684600F012
:104A0000D6FD6A4606210220FCF72EFDDAA210210F
:104A10000220FCF729FD00230922D84801686846D6
:104A200000F0C5FD6A4613210220FCF71DFDD4A24B
:104A300000210320FCF718FD00230922C848016863
:104A4000684600F0B4FD6A4606210320FCF70CFD21
:104A5000C9A210210320FCF707FD00230922CA4840
:104A60000168684600F0A3FD6A4613210320FCF7A5
:104A7000FBFC1CBD00B593B00020119012900F906C
:104A800010900D900E900B900C9009900A9007904A
:104A900008900590069003900490019002900123E5
:104AA0000422BA48018811A800F081FD01230422E4
:104AB000B74801880FA800F07AFD01230422B54809
:104AC00001880DA800F073FD01230422B24801887B
:104AD0000BA800F06CFD01230422B048018809A84E
:104AE00000F065FD01230422AD48018807A800F00D
:104AF0005EFD01230422AB48018805A800F057FDA4
:104B000001230422A848018803A800F050FD0123D6
:104B10000422A648018801A800F049FD11AA02213B
:104B20000120FCF7A1FC0FAA02210846FCF79CFC1F
:104B30000DAA02210320FCF797FC0BAA0C210120EF
:104B4000FCF792FC09AA0C210220FCF78DFC07AAB5
:104B50000C210320FCF788FC05AA18210120FCF792
:104B600083FC03AA18210220FCF77EFC01AA18216D
:104B70000320FCF779FC704A0021084600F04DFC48
:104B800013B000BD08B50020009089480078401C93
:104B9000874908700846007842F20F71884202DDAA
:104BA0000020834908700023042281480178684668
:104BB00000F0FDFC04236A4609210020FCF76BFC91
:104BC00004236A4609210120FCF765FC04236A4698
:104BD00009210220FCF75FFC04236A46162100200D
:104BE000FCF759FC04236A4616210120FCF753FC0C
:104BF00008BD704708B5002000906E48017800237A
:104C00000222684600F0D3FC6A460D210120FCF721
:104C10002BFC69A20F210120FCF726FC6548417896
:104C200000230222684600F0C2FC6A4613210120DC
:104C3000FCF71AFC62A215210120FCF715FC5D4867
:104C4000017800230222684600F0B1FC6A460D217B
:104C50000220FCF709FC58A20F210220FCF704FCFB
:104C60005448417800230222684600F0A0FC6A46BE
:104C700013210220FCF7F8FB51A215210220FCF7BA
:104C8000F3FB08BD10B588B00020079018224D49ED
:104C900001A802F086FC01AC46488188002304226A
:104CA00007A800F084FC042307AA00210120FCF7D8
:104CB000F2FB404881790023022207A800F077FC2C
:104CC000022307AA06210120FCF7E5FB3948C17938
:104CD0000023022207A800F06AFC022307AA0A2187
:104CE0000120FCF7D8FB3348007A00EB40000219A2
:104CF00004210220FCF7B8FB2E4801780023022291
:104D000007A800F054FC022307AA00210320FCF7A7
:104D1000C2FB284841780023022207A800F047FC84
:104D2000022307AA03210846FCF7B5FB2148817836
:104D30000023022207A847E0531C0020EB140020A8
:104D4000EA1400202E000000202020202020202017
:104D50000000000020202020202020203A00000019
:104D60004800002028202029000000007772697484
:104D7000653A0000500000206F6B3A00540000209C
:104D800072656164203A00004C000020220000207F
:104D90002400002026000020280000202A000020F7
:104DA0002C0000202E0000203000002032000020C7
:104DB00068150020B01B0020D0A1CAB1000000007F
:104DC000B7D60000E8A3000800F0F1FB022307AA11
:104DD00006210320FCF75FFB154A0021084600F07E
:104DE0001CFB08B010BD38B500240020009011480D
:104DF000008800EB4010C0F3073401230222214653
:104E0000684600F0D4FB6A4600210120FCF72CFB29
:104E100009A203210120FCF727FB38BD704770472A
:104E200070477047704770477047704770477047CA
:104E3000531C0020661500205600000070B50022AB
:104E4000002100200023674CA468C4F30322664CB1
:104E5000247844EA0211654C24786CB9012008E0FA
:104E6000634C245C8C4202D1604C207003E0441CF3
:104E7000E0B21028F4DD5CE05C4C2478112C1ED2EA
:104E8000DFE804F01D090A0B0C0E0F1011131415A6
:104E90001618191A1B0000BF00BF00BF01230FE046
:104EA00000BF00BF00BF02230AE000BF00BF00BF79
:104EB000042305E000BF00BF00BF082300E000BFDF
:104EC00000BF4C4C494D2D78645DFF2C08DA494CED
:104ED000464D2D78645D641C464D444E3678AC5585
:104EE000444C424D2D78645D0A2C22DB994220D13E
:104EF0003E4C2478404D2C7000243E4D3B4E36787D
:104F0000AC553A4D2C703D4C3B4D2D78645D3A4D7F
:104F10002C702C4624783A4D2C70374C2478394D1F
:104F20002C70354C2478384D2C70334C2478374D08
:104F30002C70374C25782478641C354E3470032D42
:104F400002D1002435462C70314C247834B1012C28
:104F500013D0022C22D0032C41D130E000242D4D5F
:104F60002C602D4DC5F8B8412A4D083D2C60012418
:104F70002D1F2C601C4D2C7032E00024254D2C6020
:104F8000254DC5F8B8410124224D083D2C60002470
:104F90002D1F2C600224144D2C7021E000241D4D87
:104FA0002C6001241C4DC5F8B8410024194D083D62
:104FB0002C602D1F2C6004240B4D2C7010E001245C
:104FC000144D2C600024144DC5F8B841114D083D16
:104FD0002C602D1F2C600824034D2C7000E000BFB6
:104FE00000BF70BD001001409115002092150020F7
:104FF0006E150020421C0020931500207F15002014
:10500000691500206A1500206B1500206C15002022
:1050100090150020BC8121420080214270B50246DB
:105020000C46FF25FF2309E012F8010B80EA050179
:105030000648405C80EA03050548435C2000A4F173
:105040000106B4B2F0D143EA052070BDFDA300080B
:10505000FDA4000801E0411EC8B20028FBDC704737
:1050600000B54FF08830FA4908600120F94908601E
:105070000020F949C1F884013220FFF7EBFFFF223D
:1050800012E0F34808300068C3B203F003000328BD
:1050900008D10120EF49091D08604FF03330EC4979
:1050A000086003E0501EC2B2002AEADC00BF00BD67
:1050B00000B54FF08830E64908600120E5490860F6
:1050C0000020E549C1F884013220FFF7C3FFFF2229
:1050D00012E0DF4808300068C3B203F00800082877
:1050E00008D10120DB49091D08604FF03330D84951
:1050F000086003E0501EC2B2002AEADC00BF00BD17
:1051000030B504460025FFF7ABFF0020D149086009
:105110004FF08830CE490860CD480830006885B22D
:105120004FF033300860281204EB0020C8490C31DE
:1051300008600020C849C1F888010120C54908312C
:10514000086030BD30B504460025FFF789FF012017
:10515000C04908604FF08830BD490860BC4808303D
:10516000006885B24FF033300860281204EB00204D
:10517000B7490C3108600020B749C1F88801012007
:10518000B4490831086030BD70B506460C46154676
:105190003046FFF7B5FF2046FFF7B2FF2846FFF77E
:1051A000D1FF70BD10B50020AA49103108600A2057
:1051B000FBF730FF0120A849C1F890010A20FBF756
:1051C00029FF0020A3490C3108600120A1491431B6
:1051D0000860A249086010BD00B54FF49040A04996
:1051E0000860402200210846FFF7CEFF9C4908785E
:1051F00042220988C1F30721FFF7C6FF412200219F
:105200001E20FFF7C1FF432200211E20FFF7BCFF35
:105210009820FFF797FFA120FFF794FF8120FFF769
:1052200091FF00BD10B5024600200BE00B7814780A
:10523000A34204D14B785478A34200D105E0431C2B
:1052400098B22332B0F57A7FF0DB00BFB0F57A7FF9
:1052500000DB002010BD10B50246002007E00B78EF
:105260001478A34200D105E0431C98B22332B0F574
:105270007A7FF4DB00BFB0F57A7F00DB002010BD41
:105280002DE9FF4F82B082468B4690460025A94605
:10529000002001900090474640460599FFF7C2FF65
:1052A0000646002466E06F48C07858B1C6EBC600D9
:1052B00000EB80003844C01C10F81400C04300F01C
:1052C000FF0907E0C6EBC60000EB80003844C01CB5
:1052D00010F81490CAEB0A100BEB401060490968F3
:1052E0000844C4EB041100EB4105E8B20190C5F39A
:1052F000072000902422DDE90010FFF745FFB020D1
:10530000FFF720FF4846FFF7FBFEB220FFF71AFF2A
:105310005448C07868B1C6EBC60000EB8000384442
:10532000C01C012101EB4401405CC04300F0FF09B7
:105330000AE0C6EBC60000EB80003844C01C012127
:1053400001EB440110F801906D1CE8B20190C5F327
:10535000072000902422DDE90010FFF715FFB020A0
:10536000FFF7F0FE4846FFF7CBFEB220FFF7EAFE5C
:10537000601C84B2102C96DB06B0BDE8F08F2DE9DE
:10538000FF4F82B00746884615460026B3460020E8
:1053900001900090AA4628460599FFF75CFF8146D8
:1053A000002435E02F48C07850B1C9EBC90000EBAC
:1053B00080005044C01C005DC04300F0FF0B07E0BC
:1053C000C9EBC90000EB80005044C01C10F804B0C9
:1053D000C7EB071008EB4010214909680844C4EBEB
:1053E000041100EB4106F0B20190C6F307200090D3
:1053F0002422DDE90010FFF7C7FEB020FFF7A2FE70
:105400005846FFF77DFEB220FFF79CFE601C84B279
:10541000102CC7DB06B0BDE8F08F2DE9F041064641
:105420000D461446DFF8408027782EE0802F1DDAE5
:105430002346424629463046FFF7A1FF641C2778E1
:10544000681CC5B21E2D20DB0025701CC6B21CE0F6
:10545000000801408001224200002242A081214236
:105460009C15002054150020EA7700082346424688
:1054700029463046FFF704FFA41C2778A81CC5B2B4
:105480001E2D02DB0025701CC6B2002FCED1BDE858
:10549000F0812DE9FC4F05460E4690461C46DDF88E
:1054A0002C900027BA46BB4600200190009000BF18
:1054B0002BE099F800B0B7FBF4F004FB1070C5EBDB
:1054C000051100EB41007049096800EB010A0AF080
:1054D000FF000190CAF3072000902422DDE90010AC
:1054E000FFF752FEB020FFF72DFE5846FFF708FEEB
:1054F000B220FFF727FE09F10109701CC6B2A642CF
:1055000002DB0026681CC5B27F1C04FB08F0B84211
:10551000CFD8BDE8FC8F2DE9FC4F06460F469046DC
:105520009946DDF82CB000240025A2460020019009
:105530000090344622E03D461DE0A8B2C4EB0411C1
:1055400000EB41005049096800EB010A0AF0FF0036
:105550000190CAF3072000902422DDE90010FFF734
:1055600013FEB020FFF7EEFD5846FFF7C9FDB2204D
:10557000FFF7E8FD6D1C4D45DFD3641C4445DAD3CD
:10558000BDE8FC8F70B5034600200DE00A25B1FB95
:10559000F5F605FB161404F13005ECB21C540A258F
:1055A000B1FBF5F1451CE8B29042EFDB70BD2DE98F
:1055B000F0430546894616461F4632464946284668
:1055C000FFF7E0FF00240DE015F80480A819401E45
:1055D000001B00782855A819401E001B80F8008089
:1055E000601CC4B206EBD671B4EB610FECDB87B183
:1055F000002408E0A819001B10F8010CA919091BC8
:105600000870601CC4B2BC42F4DB2E20A919C91B6F
:105610000870BDE8F0832DE9F04706460D461446B4
:105620001F46DFF868A094F800904FF0000827E0CC
:10563000B9F1800F10DA2346524629463046FFF76B
:105640009EFE641C94F80090681CC5B21E2D13DBEE
:105650000025701CC6B20FE023465246294630464C
:10566000FFF70EFEA41C94F80090A81CC5B21E2DD6
:1056700002DB0025701CC6B208F1010000F0FF0833
:10568000B845D5DBBDE8F0879C150020EA77000817
:1056900031490143314A1160704770B50021002340
:1056A0000F22C47804B32D4C246804F4E064C4F5DC
:1056B000E064210AC1F10403CA40447804FA03F10A
:1056C0008478144021430901254C0678A1550478BB
:1056D00004F01F050124AC4005786D11AD0005F103
:1056E000E025C5F8004109E0047804F01F05012415
:1056F000AC401C4D0678761145F8264070BD1A4A1C
:105700000A400243154B1B1F1A60704739B1134AF8
:10571000121D12680243114B1B1D1A6006E00F4A4E
:10572000121D126882430D4B1B1D1A60704704281E
:1057300008D14FF0E021096941F004014FF0E02267
:10574000116107E04FF0E021096921F004014FF0F9
:10575000E0221161704700000000FA050CED00E046
:1057600000E400E080E100E080FFFF1FDF48006808
:1057700040F00100DD49086008464068DC49084007
:10578000DA49486008460068DA490840D7490860A5
:105790000846006820F4802008600846406820F42D
:1057A000FE0048604FF41F0088607047CF490968C9
:1057B00021F48031CD4A11601146096821F480211D
:1057C0001160B0F5803F03D0B0F5802F0ED106E018
:1057D000C649096841F48031C44A116007E0C349F1
:1057E000096841F4A021C14A116000E000BF00BF78
:1057F000704710B501460022002300204A11012AFB
:1058000002D1BA4C236806E0022A02D1B74C236ABF
:1058100001E0B64C636A01F01F02012494401C4071
:105820000CB1012000E0002010BD38B50020009030
:105830000024002500BF3120FFF7DBFF054600985C
:10584000401C00900098B0F5A06F01D0002DF2D060
:105850003120FFF7CEFF08B1012400E000242046EC
:1058600038BD01460020A14A106820F0F80040EA47
:10587000C10010607047A0490860704702460020D0
:105880009A4B586820F47C1042EA01031843974B66
:105890005860704798490866704701460020934A4F
:1058A000506820F003000843506070478F484068FC
:1058B00000F00C007047014600208C4A506820F030
:1058C000F00008435060704701460020874A506846
:1058D00020F4E06008435060704701460020834A8E
:1058E000506820F4605040EAC1005060704729B110
:1058F0007E4A527A02437D4B5A7204E07B4A527AC6
:1059000082437A4B5A7270477B49D831086070479E
:1059100001460020754A506820F44040084350601A
:1059200070470021714A20321170704A82F82010AD
:10593000012802D004280AD104E001216B4A203258
:10594000117005E00521694A2032117000E000BFA6
:1059500000BF70476949086070476449096A01439C
:10596000624A11627047654944390860704730B532
:1059700000210022002400235C4D6D6805F00C011D
:1059800021B1042905D0082923D105E05C4D05602B
:1059900022E05B4D05601FE0544D6D6805F4701208
:1059A000524D6D6805F48034022505EB92421CB916
:1059B000544D554305600BE04C4D6D6805F40035C2
:1059C0001DB1504D5543056002E04D4D55430560F6
:1059D00002E04B4D056000BF00BF444D6D6805F00F
:1059E000F0010909484D6B5C0568DD4045603F4D9D
:1059F0006D6805F4E061090A434D6B5C4568DD4064
:105A000085603A4D6D6805F46051C90A3E4D6B5C86
:105A10004568DD40C560354D6D6805F44041890B32
:105A20003A4D6B5CC568B5FBF3F5056130BD29B136
:105A30002E4A526902432D4B5A6104E02B4A5269A7
:105A400082432A4B5A61704729B1284A926902431E
:105A5000264B9A6104E0254A92698243234B9A615E
:105A6000704729B1214AD2690243204BDA6104E030
:105A70001E4AD26982431D4BDA61704729B11B4A25
:105A8000D2680243194BDA6004E0184AD2688243B4
:105A9000164BDA60704729B1144A12690243134B5E
:105AA0001A6104E0114A12698243104B1A6170476F
:105AB00012494039086070470F49C86470470B4964
:105AC000C87170470948406A40F0807007494862D1
:105AD000704701460020054A92680A400AB1012039
