:020000040800F2
:1000000008280020DD060108FD080108FF08010896
:1000100003090108070901080B0901080000000095
:100020000000000000000000000000000F090108AF
:100030001109010800000000130901081509010851
:10004000F7060108F7060108F7060108CFDA0008ED
:10005000F7060108F7060108F7060108F706010888
:10006000F7060108F7060108F7060108F706010878
:10007000F7060108F7060108F7060108F706010868
:10008000F7060108F7060108F7060108F706010858
:10009000F7060108F7060108F7060108F706010848
:1000A000F7060108F7060108F7060108F706010838
:1000B000F7060108C5C40008F7060108F70601089D
:1000C000F7060108F7060108F7060108F706010818
:1000D000F706010825CA0008F7060108F706010817
:1000E000F7060108F7060108F706010800F002F814
:1000F00000F05EF80AA090E8000C82448344AAF164
:100100000107DA4501D100F053F8AFF2090EBAE861
:100110000F0013F0010F18BFFB1A43F0010318473B
:1001200094440100B444010010F8013B0A4413F068
:10013000030408BF10F8014B1D1108BF10F8015B44
:10014000641E05D010F8016B641E01F8016BF9D133
:10015000002D15D010F8014B03F00C030C2BA1EB74
:1001600004040ABF10F8013BA4EB8314A4EB03249E
:1001700005F1010314F8016B5B1E01F8016BF9D561
:10018000914238BF10F8013BD1D3704700230024BF
:1001900000250026103A28BF78C1FBD8520728BF97
:1001A00030C148BF0B6070471FB51FBD10B510BDF3
:1001B00010F028FC1146FFF7F7FF0CF02AF810F0BA
:1001C00046FC03B4FFF7F2FF03BC10F04BFC000049
:1001D000002000BF04E02021F74A1154411CC8B29E
:1001E0007928F8DB704730B5C0EB001301EB43030F
:1001F000F24C23800AE012F8013BEF4CEF4D2D88C2
:100200006355EE4B1B885B1CEC4C23801378002B52
:10021000F1D130BDEA4800780C2816D10520E94913
:100220000870E94908700020E8498870C870E849FA
:10023000C8700120E74908700020E74908700120D4
:10024000E6490870E649087051E0DD4800780B285F
:1002500017D1E4480078C0F34010002847D00020B0
:10026000D8490870D8490870D8498870C870D849EA
:10027000C8700120D7490870D8490870D84908705B
:1002800035E0CF48007890B3D7480078C0F3C0007D
:1002900068BBD5480078C0F3001040BBD248007856
:1002A000C0F3401018BBD0480078C0F38010F0B9FC
:1002B000CD48007820F040004030CB490870084617
:1002C000007820F02000203008700846007820F0E8
:1002D0001000103008700846007820F00800083040
:1002E00008700120BD4908700320BD490870002036
:1002F000B34908707047B24800780C2805D1002037
:10030000B0490870B049087008E0AD4800780E2880
:1003100004D0AB480078032800D000BF7047A8483D
:1003200000780C2805D10020A6490870A64908705D
:1003300008E0A34800780E2804D0A14800780328DC
:1003400000D000BF70479E4800780C2805D10020DF
:100350009C4908709C49087008E0994800780E286C
:1003600004D097480078032800D000BF704770B5CC
:100370009E4D9F4E92480078102803D090480078F8
:100380000B2846D18E480078102829D199A2032144
:1003900001200DF0E1FE9FA2032102200DF0DCFE02
:1003A000924D934E002403E0305D2855601CC4B28A
:1003B000C82CF9DB00240DE0295D9E4A1278521EFC
:1003C0004FF4807303EB0222224490B20DF0F8F850
:1003D000601CC4B2C82CEFDB41F270700DF0D0F994
:1003E0000020784908707849087078498870C8708A
:1003F000012078490870794908707949087000200F
:100400008D4908708D4908708D4908708D490870B4
:1004100035E06B48007890B373480078C0F3C000B3
:1004200068BB71480078C0F3001040BB6E4800788C
:10043000C0F3401018BB6C480078C0F38010F0B9CE
:100440006948007820F0400040306749087008464D
:10045000007820F02000203008700846007820F056
:100460001000103008700846007820F008000830AE
:10047000087001205949087003205949087000206C
:100480004F49087070BD5A484D4909780C291ED152
:1004900000214C4A11704C4A11704C4A9170D17035
:1004A00001214B4AD1704D4A11704D4A1170002103
:1004B000614A1170614A1170614A1170614A11708C
:1004C0006149097821F008015F4A117018E23C493E
:1004D00009780E296DD15B49097831B1012915D010
:1004E000022932D0032965D14EE055490978491CCB
:1004F000C9B2534A1170117011460978182901DDEB
:100500000021117000214D4A1170FEE04C4909781C
:10051000042202EBC101415C491CCAB24849097876
:10052000042303EBC10142544549097800EBC101A2
:100530000979632908DD63224149097803EBC10188
:1005400042540321264A1170DFE03D490978052213
:1005500002EBC101415C491CCAB239490978052343
:1005600003EBC10142543649097800EBC1014979D6
:100570003B2908DD3B223249097803EBC101425493
:100580000321174A1170C0E02D490978062202EBB9
:10059000C101425C2D4991F85B108A4258DA2B491F
:1005A00091F8592026490978062303EBC1014254EA
:1005B00071E0ABE070E000002F210020C4130020A8
:1005C000D0140020BD130020BE130020BF13002054
:1005D0001C1A0020B4130020470000204600002011
:1005E0004500002057000020560000208018002001
:1005F000481900202020202020CAFDBEDDD5FDD4D2
:10060000DAB1A3B4E62C20202020202020202020B6
:10061000202000002020202020202020202020C773
:10062000EBC9D4BAF22E2E2E20202020202020200C
:1006300020200000D2130020B6130020B7130020A2
:10064000490000204F00002053000020271A0020FE
:10065000F8490978062202EBC101415C491CCAB283
:10066000F4490978062303EBC1014254F1490978A2
:1006700000EBC1018A79F04991F85A108A420ADDEB
:10068000ED4991F85A20EB49097803EBC101425436
:100690000321EA4A117038E0E6490978022202EBA8
:1006A000C101425CE44991F82A108A4209DAE24920
:1006B00091F82A20DF490978022303EBC101425453
:1006C00022E0DC490978022202EBC101415C491CAD
:1006D000CAB2D8490978022303EBC1014254D54973
:1006E000097800EBC1018978D34A92F82820914219
:1006F0000ADDD14991F82820CE49097803EBC101E0
:1007000042540321CD4A117000BFDFE6CC4909787D
:1007100003297DD1CB49097831B1012917D00229AC
:100720003BD0032975D15EE0C2490978002907DD75
:10073000C0490978491EC9B2BE4A1170117002E061
:100740001821BC4A11700021BF4A1170A4E0B949B8
:10075000097800EBC1010979002913DDB549097851
:10076000042202EBC101415C491ECAB2B1490978B9
:10077000042303EBC1014254AE49097803EBC101E4
:10078000425409E00022AB490978042303EBC1017C
:1007900042540321A94A11707EE0A649097800EB72
:1007A000C1014979002913DDA2490978052202EB2C
:1007B000C101415C491ECAB29E490978052303EB79
:1007C000C10142549B49097803EBC101425409E03D
:1007D000002298490978052303EBC1014254032103
:1007E000964A117058E09349097800EBC1018A7963
:1007F000914991F85B108A4216DD8E4909780622EC
:1008000002EBC101415C491ECAB28A49097801E084
:1008100043E016E0062303EBC10142548549097801
:1008200003EBC10142540BE0834991F859208149FF
:100830000978062303EBC101425403217F4A11705A
:100840002AE07C49097800EBC1018A787A4991F85D
:100850002A108A4213DD77490978022202EBC1018E
:10086000415C491ECAB273490978022303EBC101F6
:1008700042547049097803EBC10142540BE06E49C0
:1008800091F82A206B490978022303EBC1014254F5
:1008900003216A4A117000BF3BE3694909780729BF
:1008A00013D10621694A1170694A11700121694A00
:1008B00091700021D170684AD1700121674A11708E
:1008C000674A11705D4A117023E35D4909780F2969
:1008D00017D10121634A11705E4A51705949097854
:1008E000491CC9B2574A117011701146097805297F
:1008F00001DB002111700121594A11704F4A11701A
:1009000007E34F4909780A2959D157490978C90994
:10091000A9BB55490978C1F3400191B953490978F8
:10092000C1F3C00169B95049097821F00201891C5D
:100930004D4A117058223F49097800EBC101CA7035
:1009400030E049490978C1F34001C9B14749097804
:10095000C1F3C001A1B94449097821F00201424A1A
:1009600011704249097821F0080108313F4A11709D
:100970004A223049097800EBC101CA7012E017E041
:100980003949097821F00201374A1170374909784D
:1009900021F00801354A117000222649097800EB40
:1009A000C101CA7001212E4A1170244A1170B0E2AF
:1009B00001212B4A11700321204A1170A9E220491C
:1009C000097804295BD128490978C90989BB2649D6
:1009D0000978C1F3801161BB234909788908C943AB
:1009E000214A127861F382021F490A700978C1F323
:1009F000800161B10F49097800EBC101497841F0EC
:100A000001020C49097800EBC1014A700BE0094969
:100A1000097800EBC101497801F00E020549097817
:100A200000EBC1014A7001210D4A1170034A117097
:100A30006FE21DE049000020271A00204500002039
:100A4000D01400204F000020B7130020BD13002059
:100A5000BE130020BF1300201C1A0020B413002076
:100A60004600002013000020550000205300002005
:100A70000121FE4A11700321FD4A117049E2FD492E
:100A8000097808293DD1FC490978C90989BBFA4987
:100A90000978C1F3801161BBF7490978C908C943D6
:100AA000F54A127861F3C302F3490A700978C1F379
:100AB000C00161B1F149097800EBC101497841F009
:100AC0000202EE49097800EBC1014A700BE0EB49E4
:100AD000097800EBC101497801F00D02E749097876
:100AE00000EBC1014A700121E04A1170E04A117027
:100AF0000FE2FFE70121DD4A11700321DC4A11708A
:100B000007E2DC4909780D293DD1DB490978C9099B
:100B100089BBD9490978C1F3801161BBD6490978ED
:100B20000909C943D44A127861F30412D2490A7000
:100B30000978C1F3001161B1D049097800EBC10116
:100B4000497841F00402CD49097800EBC1014A70AF
:100B50000BE0CA49097800EBC101497801F00B02AA
:100B6000C649097800EBC1014A700121BF4A1170E2
:100B7000BF4A1170CDE1FFE70121BC4A117003218A
:100B8000BB4A1170C5E1BB490978012952D1BA4964
:100B90000978C90981BBB8490978C1F3801159BBEB
:100BA000B749097851B90121B54A1170B24909789C
:100BB00021F020012031B04A117027E0B0490978B6
:100BC00001290AD10221AE4A1170AB49097821F0FE
:100BD00020012031A84A117018E0A949097802299A
:100BE0000BD10321A64A1170A349097821F02001F5
:100BF0002031A14A117009E015E00021A04A1170CE
:100C00009D49097821F020019B4A11709C490A787E
:100C10009A49097800EBC101CA710121934A117008
:100C2000934A117075E10121904A11700321904A95
:100C300011706EE18F490978052969D18E490978CB
:100C4000C909E9BB8C4909788909C9438A4A1278DC
:100C500061F3861288490A700978C1F3801161B185
:100C60008649097800EBC101497841F008028349BF
:100C7000097800EBC1014A700BE08049097800EB6C
:100C8000C101497801F007027C49097800EBC101F4
:100C90004A7079490978C1F3801161B376490978BE
:100CA00021F00401744A11701146097821F00801FD
:100CB00011701146097821F010011170002100E037
:100CC0001FE06F4A11706C49097821F020016A4ACF
:100CD000117000226949097800EBC101CA716749A6
:100CE000097800EBC101497801F0080263490978ED
:100CF00000EBC1014A7001215C4A11705C4A11701D
:100D000007E10121594A11700321594A117000E18C
:100D10005849097809297DD15A490978E9BB012147
:100D2000584A11705449097821F080018031524AA3
:100D300011701146097821F00201117052490978A9
:100D400021F00801504A11704B49097821F0040143
:100D5000494A11701146097821F0080111701146B5
:100D6000097821F0100111700021454A11704249A3
:100D7000097821F02001404A117000223F4909788A
:100D800000EBC101CA713C49097821F040013A4A9F
:100D900011705A223949097800E009E000EBC101DD
:100DA000CA7000223549097800EBC1014A70A1E000
:100DB00034490978012948D10221324A11702E495B
:100DC000097821F0800180312B4A11701146097891
:100DD00021F0020111702C49097821F008012A4AFA
:100DE00011702549097821F00401234A1170114638
:100DF000097821F0080111701146097821F01001DD
:100E0000117000211E4A11701B49097821F0200140
:100E1000194A00E074E0117000221849097800EBCB
:100E2000C101CA711449097821F04001124A1170B8
:100E300047221249097800EBC101CA7000220F490C
:100E4000097800EBC1014A7054E000210D4A11708D
:100E50000949097821F08001074A11701146097883
:100E600021F002011170084909780FE046000020C6
:100E700045000020D014002055000020490000202B
:100E80001A0000201B0000205300002021F0080160
:100E9000F84A1170F849097821F00401F64A1170F6
:100EA0001146097821F0080111701146097821F0E6
:100EB000100111700021F14A1170EF49097821F0F9
:100EC0002001ED4A11700022ED49097800EBC101C3
:100ED000CA71E949097821F04001E74A11700022FE
:100EE000E749097800EBC101CA70E549097800EBD0
:100EF000C1014A700121E34A1170E34A117008E010
:100F0000E249097829B10121DE4A11700321DE4A44
:100F100011707047DE490878DC4909780C2926D120
:100F2000DC490978C1F3401129B90021DA4A11706E
:100F3000DA4A117009E0D7490978C1F3401121B1AB
:100F40000A21D54A1170D54A11700021D44A9170F6
:100F5000D1700121D34AD1700021D34A1170D34AF4
:100F600011700121C74A1170C74A117081E0C74949
:100F700009780E2923D120B1C949C978491EC84A28
:100F8000D170C749CA78411E8A4202DCC449C97877
:100F900011B90021C24AD170C5490978C1F3C00115
:100FA000002966D1C249097821F008010831C04AF8
:100FB00011700121B34A1170B34A117059E0B3495D
:100FC000097803291FD158B1B549C978491CB44AD9
:100FD000D1701146CA78411E8A4201DDB04AD170F3
:100FE000B3490978C1F3C001002942D1B049097859
:100FF00021F008010831AE4A11700121A14A117097
:10100000A14A117035E0A149097891B3A84909783E
:10101000C1F3C00169BBA6490978C1F3001141BB06
:10102000A3490978C1F3401119BBA1490978C1F35B
:101030008011F1B99E49097821F0400140319C4A64
:1010400011701146097821F02001203111701146EC
:10105000097821F01001103111701146097821F042
:101060000801083111700121864A11700321864A56
:1010700011700021854A11707047844800780C284F
:1010800010D10320844908708449087001208449E4
:10109000887008460079C87001207A4908707A493A
:1010A000087056E0794800780E2806D1012075496D
:1010B00008700320744908704BE0744800780328D6
:1010C00006D101206F49087003206F49087040E085
:1010D0006E480078072806D101206A49087003206D
:1010E0006949087035E06948007890B37048007825
:1010F000C0F3C00068BB6E480078C0F3001040BB6E
:101100006B480078C0F3401018BB69480078C0F302
:101110008010F0B96648007820F040004030644903
:1011200008700846007820F020002030087008463B
:10113000007820F01000103008700846007820F089
:1011400008000830087001204E49087003204E49FD
:10115000087000204D49087070474C4800780C28F2
:1011600010D103204C4908704C49087001204C49AB
:10117000887008460079C8700120424908704249C9
:10118000087056E0414800780E2806D101203D49FC
:10119000087003203C4908704BE03C480078032865
:1011A00006D101203749087003203749087040E014
:1011B00036480078072806D10120324908700320FC
:1011C0003149087035E03148007890B338480078EC
:1011D000C0F3C00068BB36480078C0F3001040BBC5
:1011E00033480078C0F3401018BB31480078C0F392
:1011F0008010F0B92E48007820F0400040302C4993
:1012000008700846007820F020002030087008465A
:10121000007820F01000103008700846007820F0A8
:10122000080008300870012016490870032016498C
:101230000870002015490870704770B51348007891
:101240000C2837D11648407818B10020144948704E
:101250000AE0032010490870104908700120104965
:10126000887008460079C870012006490870064950
:10127000087004E253000020550000201A000020EE
:10128000490000204600002045000020D014002026
:10129000C613002057000020BD130020BE130020FD
:1012A000BF1300201C1A0020B8130020BB1300201D
:1012B00056000020FE4800780E2872D1FD48407884
:1012C00000286FD0FB48C07818B1FA48C0780128D0
:1012D00016D1F848C178F848405C0F280ADAF5487A
:1012E000C178F548405C401CC0B2F249CA78F24966
:1012F000885400E00F20EF49CA78EF4988547EE017
:10130000EC48C078022816D1EA48C178EA48405C27
:1013100014280ADAE748C178E748405C401CC0B2AC
:10132000E449CA78E449885400E01420E149CA78C5
:10133000E149885463E0DF48C078032816D1DD48CE
:10134000C178DD48405C5A280ADADA48C178DA48C0
:10135000405C401CC0B2D749CA78D749885400E0E5
:101360005A20D449CA78D449885448E0D148C07832
:10137000042818D1CF48C178CF48405C96280ADAB3
:10138000CC48C178CC48405C401CC0B2C949CA783E
:10139000C949885400E09620C649CA78C64988548D
:1013A0002DE03FE01AE0C348C078072827D1C148A4
:1013B000C178C148405C08280ADABE48C178BE48F6
:1013C000405C401CC0B2BB49CA78BB49885400E0AD
:1013D0000820B849CA78B849885410E0B548C078A0
:1013E000401EB449C8700846C078B449097888429C
:1013F00002DCB048C07810B90020AE49C870B048CF
:101400000078C0F3C00000280BD1AD48007820F070
:1014100008000830AA4908700120AA490870AA49A2
:1014200008702CE1A2480078032872D1A1484078C6
:1014300000286FD09F48C07818B19E48C078012816
:1014400016D19C48C1789C48405C0A280ADD99481E
:10145000C1789948405C401EC0B29649CA78964906
:10146000885400E00A209349CA78934988547CE064
:101470009048C078022816D18E48C1788E48405CCA
:101480000F280ADD8B48C1788B48405C401EC0B2F3
:101490008849CA788849885400E00F208549CA786D
:1014A0008549885461E08348C078032816D1814873
:1014B000C1788148405C1E280ADD7E48C1787E489C
:1014C000405C401EC0B27B49CA787B49885400E02A
:1014D0001E207849CA787849885446E07548C07813
:1014E000042818D17348C1787348405C5A280ADD33
:1014F0007048C1787048405C401EC0B26D49CA78DF
:101500006D49885400E05A206A49CA786A4988546B
:101510002BE03DE01AE06748C078072825D16548F0
:10152000C1786548405C04280ADD6248C178624899
:10153000405C401EC0B25F49CA785F49885400E0F1
:1015400004205C49CA785C4988540EE05948C07848
:10155000401C5849C8700846C078584909788842E4
:1015600003DD564800785349C87055480078C0F3E9
:10157000C00000280BD15248007820F00800083045
:101580004F49087001204F4908704F49087076E0B4
:101590004748007807283CD146480078B0B1454814
:1015A000407898B94348C07807280FDC4148C07894
:1015B000052803D13F48C078062807D001203D49BF
:1015C0004870404908704049087058E03948007830
:1015D000C0B138484078A8B1374D0020354948702F
:1015E000002407E015F8011B04F168000BF0E8FF88
:1015F000601CC4B2082CF5DB012032490870324966
:1016000008703CE001202F49087003202E49087023
:1016100035E02748007890B329480078C0F3C0002F
:1016200068BB27480078C0F3001040BB244800780E
:10163000C0F3401018BB22480078C0F38010F0B906
:101640001F48007820F0400040301D4908700846CF
:10165000007820F02000203008700846007820F044
:101660001000103008700846007820F0080008309C
:1016700008700120134908700320134908700020E6
:101680000B49087070BD0A4800780C2822D103204D
:101690000E4908700E4908700120064988700846F6
:1016A0000079C87001200749087007490870A0E058
:1016B000D0140020BF1300208F1A0020B813002080
:1016C000560000204600002045000020BD130020E9
:1016D000BE130020F74800780E2823D1F648C078C2
:1016E000401EF549C8700846C078F4490978884218
:1016F00002DCF148C07810B90020EF49C870F0480A
:101700000078C0F3C000002873D1ED48007820F0C5
:1017100008000830EA4908700120EA490870EA49DF
:10172000087066E0E3480078032821D1E248C078D9
:10173000401CE149C8700846C078E04909788842F1
:1017400003DDDE480078DC49C870DD480078C0F36E
:10175000C00000284DD1DA48007820F00800083099
:10176000D74908700120D7490870D749087040E070
:10177000D0480078072806D10120D24908700320FC
:10178000D149087035E0CB48007890B3CC48007858
:10179000C0F3C00068BBCA480078C0F3001040BB6B
:1017A000C7480078C0F3401018BBC5480078C0F3A4
:1017B0008010F0B9C248007820F040004030C049A5
:1017C00008700846007820F0200020300870084695
:1017D000007820F01000103008700846007820F0E3
:1017E0000800083008700120B64908700320B64987
:1017F00008700020AF490870704770B5AD48007898
:101800000C2817D1AC48407818B10020AA4948707C
:101810000AE00320AD490870AD4908700120A649CF
:10182000887008460079C8700120A6490870A6494A
:101830000870F0E09F4800780E283DD19E4840781F
:10184000B0B19D48C178A348405C63280ADA9A4841
:10185000C178A048405C401CC0B29749CA789D49F5
:10186000885400E063209449CA789A49885410E06B
:101870009148C078401E9049C8700846C0788F498A
:101880000978884202DC8C48C07810B900208A4967
:10189000C8708B480078C0F3C0000028C9D18848C0
:1018A000007820F00800083085490870012085493B
:1018B000087085490870AEE07E48007803283BD167
:1018C0007D484078B0B17C48C1788248405C0028AF
:1018D0000ADD7948C1787F48405C401EC0B2764935
:1018E000CA787C49885400E000207349CA78794955
:1018F00088540EE07048C078401C6F49C870084694
:10190000C0786E490978884203DD6C4800786A49DE
:10191000C8706B480078C0F3C00000287BD16848CD
:10192000007820F0080008306549087001206549FA
:101930000870654908706EE05E480078072834D169
:101940005D48007870B15C48407858B95A48C07812
:10195000032807DC0120584948705A4908705A4941
:10196000087058E054480078C0B153484078A8B196
:10197000584D002050494870002407E015F8011B1D
:1019800004F158000BF01CFE601CC4B2042CF5DB03
:1019900001204C4908704C4908703CE0012049493D
:1019A000087003204849087035E04248007890B339
:1019B00043480078C0F3C00068BB41480078C0F3DA
:1019C000001040BB3E480078C0F3401018BB3C48B4
:1019D0000078C0F38010F0B93948007820F040005A
:1019E0004030374908700846007820F02000203049
:1019F00008700846007820F0100010300870084683
:101A0000007820F008000830087001202D49087087
:101A100003202D49087000202649087070BD70B55C
:101A2000244800780C2817D12348407818B10020AA
:101A3000214948700AE003202449087024490870AD
:101A400001201D49887008460079C87001201D4991
:101A500008701D49087033E1164800780E287DD1C2
:101A600015484078002856D01348C07838B112483D
:101A7000C078022803D01048C07804282CD10E4822
:101A8000C17814480838405C63280CDA0A48C178E9
:101A900010480838405C401CC0B20749CA780D495C
:101AA0000839885400E063200349CA780949083995
:101AB000885441E0D0140020BF130020B813002048
:101AC000560000204600002045000020BD130020E5
:101AD000BE1300207F1A0020F948C078012803D0E7
:101AE000F748C078032827D1F548C178F548405C0D
:101AF00078280ADAF248C178F248405C401CC0B24B
:101B0000EF49CA78EF49885400E07820EC49CA7858
:101B1000EC49885410E0EA48C078401EE849C87093
:101B20000846C078E8490978884202DCE448C07871
:101B300010B90020E249C870E4480078C0F3C00042
:101B4000002888D1E148007820F008000830DF49FB
:101B500008700120DE490870DE4900E001E00870ED
:101B6000AEE0DD48007803283BD1D5484078B0B1DD
:101B7000D348C178D348405C01280ADDD048C178F9
:101B8000D048405C401EC0B2CD49CA78CD49885487
:101B900000E00120CA49CA78CA4988540EE0C84802
:101BA000C078401CC649C8700846C078C649097844
:101BB000884203DDC4480078C149C870C348007832
:101BC000C0F3C00000287BD1C048007820F0080096
:101BD0000830BE4908700120BD490870BD49087031
:101BE0006EE0BD480078072834D1B548007870B160
:101BF000B348407858B9B248C078042807DC0120BF
:101C0000AF494870B2490870B249087058E0AC4812
:101C10000078C0B1AA484078A8B1AA4D0020A849D0
:101C20004870002407E015F8011B04F150000BF088
:101C3000C7FC601CC4B2052CF5DB0120A449087068
:101C4000A44908703CE00120A14908700320A14983
:101C5000087035E0A048007890B39C480078C0F345
:101C6000C00068BB99480078C0F3001040BB97489B
:101C70000078C0F3401018BB94480078C0F380107F
:101C8000F0B99248007820F0400040308F49087049
:101C90000846007820F020002030087008460078C0
:101CA00020F01000103008700846007820F008007E
:101CB00008300870012086490870032085490870A3
:101CC00000208549087070BD70B5834800780C28E5
:101CD00017D17B48407818B10020794948700AE054
:101CE00003207E4908707E4908700120744988707D
:101CF00008460079C8700120754908707549087058
:101D000062E1754800780E287ED16D484078002841
:101D100068D06B48C07801280BD06948C078042887
:101D200007D06748C078052803D06548C0780628E2
:101D30001AD16348C17863480838405C78280CDAC7
:101D40005F48C1785F480838405C401CC0B25C49BD
:101D5000CA785C490839885400E078205849CA7824
:101D60005849083988544EE05548C07802281AD19D
:101D70005348C17853480838405C96280CDA5048DC
:101D8000C17850480838405C401CC0B24C49CA7801
:101D90004C490839885400E096204949CA78494995
:101DA000083988542FE04648C07803282BD144488E
:101DB000C17844480838405CF0280CDA4048C178C3
:101DC00040480838405C401CC0B23D49CA783D4993
:101DD0000839885400E0F0203949CA78394908396F
:101DE000885410E03648C078401E3549C87008460F
:101DF000C07835490978884202DC3148C07810B98A
:101E000000202F49C87000E012E030480078C0F38D
:101E1000C00000280BD12D48007820F008000830C1
:101E20002A49087001202A4908702A490870CBE025
:101E300029480078032855D121484078E8B1204846
:101E4000C07848B31E48C1781E480838405C012855
:101E50000CDD1B48C1781B480838405C401EC0B2EE
:101E60001749CA7817490839885400E001201449F5
:101E7000CA781449083988540EE01148C078401CCB
:101E80000F49C8700846C0780F490978884203DDB9
:101E90000D4800780A49C8700C480078C0F3C000AB
:101EA0000028C4D10948007820F00800083007490C
:101EB00008700120064908700649087084E0000097
:101EC000BF130020771A0020B8130020560000200E
:101ED0004600002045000020D0140020BD13002043
:101EE000BE130020FA480078072837D1F948007857
:101EF00088B1F848407870B9F648C07806280ADCFE
:101F0000F448C07838B10120F2494870F2490870AD
:101F1000F249087058E0EF480078C0B1ED484078C9
:101F2000A8B1EF4D0020EB494870002407E015F8F8
:101F3000011B04F148000BF043FB601CC4B2082CE9
:101F4000F5DB0120E4490870E44908703CE0012019
:101F5000E14908700320E149087035E0DC48007869
:101F600090B3E0480078C0F3C00068BBDD4800785B
:101F7000C0F3001040BBDB480078C0F3401018BB32
:101F8000D8480078C0F38010F0B9D648007820F027
:101F900040004030D34908700846007820F0200007
:101FA000203008700846007820F0100010300870CB
:101FB0000846007820F00800083008700120C64963
:101FC00008700320C54908700020C149087070BD21
:101FD00070B5BF4800780C2817D1BE48407818B1BA
:101FE0000020BC4948700AE00320BF490870BF497F
:101FF00008700120B749887008460079C870012030
:10200000B5490870B5490870B1E1B14800780E28AB
:102010007ED1B048407800287BD0AE48C078D0B997
:10202000AC48C178AE480838405C63280CDAA9484F
:10203000C178AB480838405C401CC0B2A549CA789A
:10204000A7490839885400E06320A249CA78A44906
:102050000839885478E09F48C078022803D09D480A
:10206000C07803281AD19B48C1789D480838405C45
:1020700078280CDA9748C17899480838405C401CA9
:10208000C0B29449CA7896490839885400E078204B
:102090009049CA7892490839885455E08D48C078EB
:1020A00004281AD18B48C1788D480838405CF02844
:1020B0000CDA8848C1788A480838405C401CC0B2B5
:1020C0008449CA7886490839885400E0F02081495B
:1020D000CA7883490839885436E07E48C078052894
:1020E00003D07C48C07806282ED17A48C1787C4835
:1020F0000838405C1E280FDA7648C17878480838DE
:10210000405C401CC0B27349CA787549083901E087
:102110002DE008E0885400E01E206E49CA7870491E
:102120000839885410E06B48C078401E6949C8706F
:102130000846C0786E490978884202DC6548C07854
:1021400010B900206349C87066480078C0F3C00029
:1021500000280BD16348007820F00800083061495E
:10216000087001205C4908705C490870FFE058481D
:102170000078032874D157484078E8B35548C078B0
:1021800058B15448C078042807D05248C078052870
:1021900003D05048C07806281AD14E48C17850481C
:1021A0000838405C01280CDD4A48C1784C480838A2
:1021B000405C401EC0B24749CA7849490839885432
:1021C00000E001204349CA7845490839885433E082
:1021D0004048C078022803D03E48C07803282BD15D
:1021E0003C48C1783E480838405C00280EDD39483C
:1021F000C1783B48083800E00FE0405C401EC0B2A8
:102200003449CA7836490839885400E000203149F9
:10221000CA783349083988540EE02E48C078401CEB
:102220002C49C8700846C07831490978884203DDD6
:102230002F4800782749C8702A480078C0F3C000AA
:1022400000280BD12748007820F0080008302549E5
:1022500008700120204908702049087087E0FFE7D6
:102260001B48007807284CD11A48007890B11948CB
:10227000407878B91748C07806280BDC1548C07834
:10228000012807D0012013494870134908701349E9
:1022900008706CE00F480078C8B10E484078B0B1C3
:1022A0000F4D083D00200B494870002407E015F849
:1022B000011B04F140000BF083F9601CC4B2082C30
:1022C000F5DB012004490870044908704FE011E073
:1022D000D0140020BF13002046000020450000203D
:1022E0006F1A002056000020BD130020BE130020EE
:1022F000B81300200120FE4908700320FD49087032
:1023000035E0FD48007890B3FC480078C0F3C00089
:1023100068BBFA480078C0F3001040BBF74800786B
:10232000C0F3401018BBF5480078C0F38010F0B936
:10233000F248007820F040004030F049087008462C
:10234000007820F02000203008700846007820F047
:102350001000103008700846007820F0080008309F
:1023600008700120E24908700320E249087000204B
:10237000E149087070BD70B5DF4800780C2817D1AE
:10238000DF48407818B10020DD4948700AE003209A
:10239000DC490870DC4908700120D949887008467A
:1023A0000079C8700120D2490870D24908701EE136
:1023B000D14800780E2860D1D1484078002838D024
:1023C000CF48C078B0B9CE48C178D048405C6328C7
:1023D0000ADACB48C178CD48405C401CC0B2C8493D
:1023E000CA78CA49885400E06320C549CA78C749F9
:1023F00088542FE0C248C078012803D0C048C07874
:10240000022827D1BE48C178C048405C78280ADA43
:10241000BB48C178BD48405C401CC0B2B849CA78CE
:10242000BA49885400E07820B549CA78B749885439
:1024300010E0B348C078401EB149C8700846C07863
:10244000B3490978884202DCAD48C07810B9002051
:10245000AB49C870A9480078C0F3C0000028A6D1D5
:10246000A648007820F008000830A4490870012030
:102470009F4908709F490870B9E09F480078032879
:1024800046D19F48407808B39D48C07838B19C48F1
:10249000C078012803D09A48C078022825D19848EE
:1024A000C1789A48405C01280ADD9548C178974870
:1024B000405C401EC0B29249CA789449885400E0FA
:1024C00001208F49CA78914988540EE08C48C07821
:1024D000401C8B49C8700846C0788D4909788842ED
:1024E00003DD8B4800788649C87084480078C0F3C3
:1024F000C00000287BD18148007820F00800083017
:102500007E49087001207A4908707A4908706EE0A7
:1025100079480078072834D17948007870B1784834
:10252000407858B97648C078022807DC0120744901
:1025300048706F4908706F49087058E0704800781B
:10254000C0B16F484078A8B1704D00206C49487008
:10255000002407E015F8011B04F138000BF030F8F7
:10256000601CC4B2032CF5DB01206149087061498D
:1025700008703CE001205E49087003205D49087046
:1025800035E05D48007890B35C480078C0F3C00047
:1025900068BB5A480078C0F3001040BB5748007829
:1025A000C0F3401018BB55480078C0F38010F0B954
:1025B0005248007820F040004030504908700846EA
:1025C000007820F02000203008700846007820F0C5
:1025D0001000103008700846007820F0080008301D
:1025E0000870012042490870032042490870002009
:1025F0004149087070BD10B53F4800780C2817D1CC
:102600003F48407818B100203D4948700AE0032057
:102610003C4908703C4908700120394988700846D7
:102620000079C8700120324908703249087009E108
:10263000314800780E2841D131484078D0B1304837
:10264000C078012827D13148383890F83100F02877
:102650000ADA2E48383890F83100401CC0B22B49B5
:10266000383981F8310000E0F0202849383981F804
:10267000310010E02248C078401E2149C870084649
:10268000C07823490978884202DC1D48C07810B917
:1026900000201B49C87019480078C0F3C00000280A
:1026A000C5D11648007820F008000830134908709A
:1026B00001200F4908700F490870C3E00E480078E8
:1026C000032851D10E48407860B30D48C0780128E6
:1026D00037D10E48383890F8310001281DDD0B48FD
:1026E000383890F83100401EC0B20849383911E03E
:1026F0004600002045000020D01400205600002095
:10270000BF130020BD130020BE1300205F1A00205D
:10271000B813002081F8310000E00120FE4981F863
:1027200031000EE0FD48C078401CFC49C8700846E6
:10273000C078FB490978884203DDF9480078F749F9
:10274000C870F8480078C0F3C00000287AD1F54876
:10275000007820F008000830F24908700120F249A2
:102760000870F24908706DE0F1480078072833D10D
:10277000EA480078A0B1E948407888B9E748C078CD
:10278000012806D1E5494870E7490870E749087013
:1027900058E00120E44908700320E449087051E042
:1027A000DE48007888B1DD48407870B10020DB4910
:1027B0004870D94890F8311031200AF001FF01200B
:1027C000D9490870D94908703CE00120D649087001
:1027D0000320D649087035E0D548007890B3D14839
:1027E0000078C0F3C00068BBCE480078C0F300108A
:1027F00040BBCC480078C0F3401018BBC9480078F3
:10280000C0F38010F0B9C748007820F04000403095
:10281000C44908700846007820F020002030087075
:102820000846007820F01000103008700846007844
:1028300020F00800083008700120BB490870032010
:10284000BA4908700020BA49087010BD70B5B84880
:1028500000780C2817D1B148407818B10020AF4952
:1028600048700AE00320B3490870B349087001209A
:10287000AA49887008460079C8700120AA490870E2
:10288000AA4908705FE1AA4800780E287ED1A348C3
:102890004078002864D0A148C078032822D09F48FF
:1028A000C07804281ED09D48C07806281AD09B48BE
:1028B000C17899482830405C63280CDA9748C17881
:1028C00095482830405C401CC0B29449CA7892496F
:1028D0002831885400E063209049CA788E49283115
:1028E00088544EE08D48C07803281AD18B48C178AF
:1028F00089482830405C32280CDA8848C1788648FC
:102900002830405C401CC0B28449CA7882492831D2
:10291000885400E032208149CA787F4928318854A0
:102920002FE07E48C07804282BD17C48C1787A48B3
:102930002830405C1E280CDA7848C1787648283068
:10294000405C401CC0B27549CA787349283188542C
:1029500000E01E207149CA786F492831885410E080
:102960006E48C078401E6D49C8700846C0786C49F2
:102970000978884202DC6948C07810B900206749AC
:10298000C87068480078C0F3C00000E00EE000287E
:102990000BD16448007820F00800083061490870C5
:1029A00001206149087061490870CCE060480078F6
:1029B000032843D159484078F0B15848C0780628D8
:1029C00029D05648C17854482830405C00280CDD96
:1029D0005248C17850482830405C401EC0B24F4930
:1029E000CA784D492831885400E000204B49CA7804
:1029F0004949283188540EE04848C078401C47496E
:102A0000C8700846C07846490978884203DD4448C2
:102A100000784249C87043480078C0F3C0000028DD
:102A2000C3D14048007820F0080008303D490870C4
:102A300001203D4908703D49087084E03C48007819
:102A4000072835D13548007870B13448407858B9F6
:102A50003248C078072807DC0120304948703249E5
:102A60000870324908706EE02C480078C8B12B48D5
:102A70004078B0B1284D28350020284948700024FE
:102A800007E015F8011B04F128000AF099FD601C0D
:102A9000C4B2082CF5DB01202349087023490870D3
:102AA00051E00120204908700320204908704AE0C5
:102AB0001F48007870B31B480078C0F3C00048BBC3
:102AC00018480078C0F3001020BB16480078C0F307
:102AD0004010F8B913480078C0F38010D0B91148FD
:102AE000007820F0400040300E4908700846007819
:102AF00020F02000203008700846007820F01000F8
:102B0000103008700846007820F00800083008707F
:102B1000012013E017E00000271A0020BF13002057
:102B2000B813002056000020460000204500002079
:102B3000D0140020BD130020BE130020F9490870F6
:102B40000320F94908700020F849087070BDF74863
:102B500000780C2810D10320F5490870F549087059
:102B60000120F549887008460079C8700120ED49B8
:102B70000870ED4908708EE0EC4800780E2823D1EB
:102B8000ED48C078401EEC49C8700846C078EB4953
:102B90000978884202DCE848C07810B90020E6498C
:102BA000C870E7480078C0F3C000002873D1E4483B
:102BB000007820F008000830E14908700120D94968
:102BC0000870D949087066E0D8480078032821D1F8
:102BD000D948C078401CD849C8700846C078D74941
:102BE0000978884203DDD5480078D349C870D448B5
:102BF0000078C0F3C00000284DD1D148007820F003
:102C000008000830CE4908700120C6490870C6493E
:102C1000087040E0C5480078072806D10120C14966
:102C200008700320C049087035E0C048007890B3B0
:102C3000C3480078C0F3C00068BBC1480078C0F347
:102C4000001040BBBE480078C0F3401018BBBC4821
:102C50000078C0F38010F0B9B948007820F0400047
:102C60004030B74908700846007820F02000203036
:102C700008700846007820F01000103008700846F0
:102C8000007820F00800083008700120A54908707D
:102C90000320A54908700020A44908707047A34884
:102CA00000780C2810D10320A1490870A1490870B0
:102CB0000120A149887008460079C870012099490F
:102CC0000870994908708EE0984800780E2823D142
:102CD0009948C078401E9849C8700846C0789749FE
:102CE0000978884202DC9448C07810B900209249E3
:102CF000C87093480078C0F3C000002873D1904892
:102D0000007820F0080008308D49087001208549BE
:102D100008708549087066E084480078032821D14E
:102D20008548C078401C8449C8700846C0788349EB
:102D30000978884203DD814800787F49C87080485F
:102D40000078C0F3C00000284DD17D48007820F005
:102D5000080008307A4908700120724908707249E9
:102D6000087040E071480078072806D101206D49BD
:102D7000087003206C49087035E06C48007890B307
:102D80006F480078C0F3C00068BB6D480078C0F39E
:102D9000001040BB6A480078C0F3401018BB684878
:102DA0000078C0F38010F0B96548007820F040004A
:102DB0004030634908700846007820F02000203039
:102DC00008700846007820F010001030087008469F
:102DD000007820F008000830087001205149087080
:102DE000032051490870002050490870704770B5A1
:102DF0004E4800780C2817D14F48407818B1002071
:102E00004D4948700AE00320494908704949087053
:102E100001204949887008460079C870012041495D
:102E20000870414908704BE1404800780E2860D195
:102E300041484078A0B34048C078002846D03E487A
:102E4000C07801280ED13F48407C1E2806DA3D4854
:102E5000407C401CC0B23B49487400E01E20394908
:102E6000487433E03448C07802280ED13548807C5D
:102E7000632806DA3348807C401CC0B2314988742C
:102E800000E063202F49887420E02E48C07C03288E
:102E900007DA2C48C07C401CC0B22A49C87401E043
:102EA00003E003202749C87410E02348C078401E7F
:102EB0002149C8700846C07820490978884202DC58
:102EC0001D48C07810B900201B49C8701C48007804
:102ED000C0F3C0000028A6D11948007820F00800EF
:102EE00008301749087001200E4908700E49087013
:102EF000E6E00E480078032868D10F484078D8B340
:102F00000D48C07818B30C48C078012820D10D486E
:102F1000407C012818DD0B48407C401EC0B20949A6
:102F2000487412E04600002045000020D014002024
:102F3000BD130020BE130020BF130020B8130020D3
:102F400056000020271A00200120FE4948742AE07C
:102F5000FD48C178FB481030405C00280DDDFA4880
:102F6000C178F8481030405C401EC0B2F649CA78BB
:102F7000F4491031885401E006E00020F249CA7893
:102F8000F049103188540EE0EF48C078401CEE49FB
:102F9000C8700846C078ED490978884203DDEB48DF
:102FA0000078E949C870EA480078C0F3C0000028FA
:102FB0009ED1E748007820F008000830E449087006
:102FC0000120E4490870E449087079E0E34800789A
:102FD00007283FD1DC480078C0B1DB484078A8B969
:102FE000D948C07803280ADCD748C07838B1012016
:102FF000D5494870D7490870D749087060E001206A
:10300000D44908700320D449087059E0CE480078AC
:10301000C8B1CD484078B0B1CA4D10350020CA497A
:103020004870002407E015F8011B04F110000AF0B5
:10303000C7FA601CC4B2052CF5DB0120C549087035
:10304000C54908703CE00120C24908700320C2490C
:10305000087035E0C148007890B3BD480078C0F3EF
:10306000C00068BBBA480078C0F3001040BBB84845
:103070000078C0F3401018BBB5480078C0F380104A
:10308000F0B9B348007820F040004030B0490870F3
:103090000846007820F020002030087008460078AC
:1030A00020F01000103008700846007820F008006A
:1030B000083008700120A74908700320A64908704D
:1030C0000020A649087070BD70B5A44800780C288F
:1030D00017D19D48407818B100209B4948700AE0FC
:1030E00003209F4908709F49087001209649887005
:1030F00008460079C8700120964908709649087002
:10310000E3E0964800780E2836D18F48407878B1B1
:103110008D48C1788B480830405C6E2801D17921F8
:1031200000E06E218848C27886480830815410E05B
:103130008548C078401E8449C8700846C0788349D5
:103140000978884202DC8048C07810B900207E49A6
:10315000C8707F480078C0F3C0000028D0D17C48F8
:10316000007820F00800083079490870012079497A
:10317000087079490870A8E078480078032834D1AD
:103180007148407878B17048C1786E480830405C2A
:103190006E2801D1792100E06E216B48C278694820
:1031A000083081540EE06848C078401C6649C870F9
:1031B0000846C07865490978884203DD634800788D
:1031C0006149C87062480078C0F3C00000287CD113
:1031D0005F48007820F0080008305D490870012041
:1031E0005C4908705C4908706FE05C48007807280B
:1031F00035D15548007870B15348407858B9524895
:10320000C078042807D001204F4948705149087000
:103210005149087059E04C480078C8B14A48407894
:10322000B0B1484D0835002047494870002407E0F8
:1032300015F8011B04F108000AF0C2F9601CC4B2C1
:10324000042CF5DB012043490870434908703CE039
:1032500001204049087003203F49087035E03F488D
:10326000007890B33A480078C0F3C00068BB384893
:103270000078C0F3001040BB35480078C0F3401020
:1032800018BB33480078C0F38010F0B9304800789C
:1032900020F0400040302E4908700846007820F0A9
:1032A0002000203008700846007820F01000103010
:1032B00008700846007820F00800083008700120E7
:1032C000244908700320244908700020234908700D
:1032D00070BD70B5214800780C2823D11A48407879
:1032E00068B1002018494870002405E01E48005DC0
:1032F0001E490855601CC4B2062CF7DB09E0032008
:10330000174908701749087001200F49887000207C
:10331000C87001200F4908700F4908700020144937
:103320000870C2E10D4800780E2866D10648407842
:1033300058B30548C078032827D10248C0786428CC
:103340001FDA17E0271A0020BF130020B81300204F
:10335000560000204600002045000020D014002028
:10336000BD130020BE1300206E1300206813002040
:103370001C1A0020FE48C078401CC0B2FC49C8702E
:1033800000E06420FA49C8708FE1FA48407808B339
:10339000F848C07805281DD1F7480078F749085C3F
:1033A000092809DAF4480078085C401CC0B2F249E8
:1033B0000978F24A505400E00020EF490978EF4ABA
:1033C0005054ED4800781146095CEB480278401DE6
:1033D00081546AE1E748C078401EE649C870084653
:1033E000C078E7490978884203DCE248C0780028C1
:1033F00097D10020DF49C87057E1E24800780328E0
:1034000070D1DC48407890B1DA48C07803280ED1FA
:10341000D748C078002806DDD548C078401EC0B225
:10342000D349C87000E00020D149C8704CE0D148B1
:10343000407808B3CF48C07805281DD1CE48007821
:10344000CE49085C002809DDCB480078085C401EA6
:10345000C0B2C9490978C94A505400E00920C64998
:103460000978C64A5054C44800781146095CC248DD
:103470000278401D815427E0BE484078A8B1BD487D
:10348000C07858B1BB48C078012807D0B948C07887
:10349000022803D0B748C078042806D10120BA49D1
:1034A00008700320B94908700EE0B248C078401C8B
:1034B000B049C8700846C078B1490978884203DD30
:1034C000AF480078AB49C870B148007820F00800D8
:1034D0000830AF4908700120AB490870AB4908704B
:1034E000E3E0FFE7A748007807286FD1A1480078FC
:1034F000E0B1A0484078C8B99E48C078022803D0FF
:103500009C48C078042805D101209F4908700320F9
:103510009E4908700120974948700020964908701C
:1035200001209949087099490870BEE091480078D7
:10353000002857D08F484078002853D000208D496C
:1035400048700846C078B8B992A2122100200AF04B
:1035500003FE09F045FD4EF660200AF011F94EF623
:1035600060200AF00DF901208D4908708D4A122162
:1035700000200AF0F1FD2FE07E48C07801280FD12D
:1035800089A212210AF0E8FD09F058FD41F270709D
:103590000AF0F6F8834A122101200AF0DDFD1BE053
:1035A0007448C078052812D1744D00240BE015F83A
:1035B000011B04F1C8000AF003F87048005D7D4962
:1035C0000855601CC4B2062CF1DB05E011E0684828
:1035D000C178032009F0F4FF01206B4908706B49A2
:1035E000087062E00120684908700320674908708C
:1035F0005BE0644800780F2821D15E484078B8B17C
:103600005C48C078052813D15B480078052806DAA5
:1036100059480078401CC0B25749087000E00020AB
:1036200055490870012058490870584908703CE015
:1036300001205549087003205449087035E051486D
:10364000007890B352480078C0F3C00068BB50487F
:103650000078C0F3001040BB4D480078C0F3401024
:1036600018BB4B480078C0F38010F0B94848007888
:1036700020F040004030464908700846007820F0AD
:103680002000203008700846007820F0100010302C
:1036900008700846007820F0080008300870012003
:1036A00039490870032039490870002035490870ED
:1036B00070BD344800780C2817D12E48007828B106
:1036C00002203D4908703D49087004E001203A4954
:1036D00008703A490870002026498870C870012097
:1036E0002949087029490870C7E0264800780E2843
:1036F00023D12048C078401E1E49C8700846C078B3
:103700001F490978884202DC1A48C07810B90020A5
:103710001849C8701E480078C0F3C0000028E3D1E3
:103720001B48007820F00800083019490870012073
:1037300015490870154908709FE012480078032861
:103740004AD10C48C078401C0A49C8700846C07865
:103750000B490978884203DD094800780549C8709B
:103760000B480078C0F3C000002834D1084827E097
:10377000271A0020BF1300201C1A00206813002005
:10378000B8130020D014002046000020450000207F
:1037900056000020D4CBD0D0D6D02E2E2E00000044
:1037A000B413002008060008D4CBD0D0D6D02E2EDB
:1037B0002E2E00006E130020BD130020BE1300202B
:1037C000007820F008000830FE4908700120FE490A
:1037D0000870FE49087050E0FD480078072816D1AF
:1037E0000420FC490870FC490870FC48C078FB497B
:1037F00008710846C078401C88700020C8700120FD
:10380000F7490870F0490870F049087035E0F04851
:10381000007890B3EB480078C0F3C00068BBE9487B
:103820000078C0F3001040BBE6480078C0F34010B9
:1038300018BBE4480078C0F38010F0B9E148007884
:1038400020F040004030DF4908700846007820F042
:103850002000203008700846007820F0100010305A
:1038600008700846007820F0080008300870012031
:10387000D54908700320D54908700020D449087044
:10388000704770B50220D4490870D14800780C28E0
:103890000ED10120CF490870CF490870CF498870F8
:1038A0000020C8700120C8490870C849087032E17A
:1038B000C74800780E282FD1CA480078CA49085C4A
:1038C000092809DAC7480078085C401CC0B2C5491D
:1038D0000978C54A505400E00020C2490978C24A1C
:1038E0005054C04800781146095CBE480278401D1B
:1038F0008154B4480078C0F3C0000028D7D1B14843
:10390000007820F008000830AE4908700120AE4968
:103910000870AE490870FEE0AD48007803282FD14A
:10392000B0480078B049085C002809DDAD4800784F
:10393000085C401EC0B2AB490978AB4A505400E065
:103940000920A8490978A84A5054A6480078114689
:10395000095CA4480278401D81549A480078C0F35D
:10396000C0000028A3D19748007820F00800083054
:103970009449087001209449087094490870CAE07D
:1039800093480078072878D19748007897490978B4
:1039900088422BD19448407894494978884225D16F
:1039A000914880789149897888421FD18E48C078A3
:1039B0008E49C978884219D18B4800798B49097999
:1039C000884213D1884840798849497988420DD185
:1039D00001208249087003207E4908707E490870E2
:1039E00001207E4988700020C87094E07E480078ED
:1039F000D0BB7D484078062838D17B48807898BB7A
:103A00007948C078032831D17748007960BB76487F
:103A1000407909282AD1002411E0744D022072490E
:103A200008552946085502216E48401D015515F8D4
:103A3000011B04F1C80009F0C3FD601CC4B2062CD0
:103A4000EBDB012065490870032062490870624978
:103A500008700120614988700020C87001205A490F
:103A600008705A49087056E000E006E00120564907
:103A700008700320554908704DE0554800780F281C
:103A800013D158480078052806DA56480078401CBB
:103A9000C0B25449087000E000205249087001206B
:103AA000494908704949087035E04948007890B3A1
:103AB00044480078C0F3C00068BB42480078C0F3B7
:103AC000001040BB3F480078C0F3401018BB3D4891
:103AD0000078C0F38010F0B93A48007820F0400038
:103AE0004030384908700846007820F02000203027
:103AF00008700846007820F0100010300870084662
:103B0000007820F008000830087001202E49087065
:103B100003202E49087070BD2D4909780C290FD15A
:103B200000212C4A11702C4A1170FF212B4A9170F0
:103B30000021D1700121244A1170244A1170CDE076
:103B4000234909780E2921D12449C978491E234ADD
:103B5000D1701146C978264A1278914203DD244972
:103B600009781E4AD17017490978C1F3C0010029AC
:103B7000E5D11449097821F008010831114A117082
:103B80000121114A1170114A1170A7E010490978FA
:103B900003293AD11149C978491C104AD1701146FC
:103BA000C978134A1278914202DD00210B4AD17084
:103BB00004490978C1F3C0010029C0D1014909783D
:103BC00018E00000560000204600002045000020BC
:103BD000D0140020BD130020BE130020BF1300200E
:103BE000B41300201C1A0020681300206E1300205C
:103BF000B813002021F008010831FE4A117001219C
:103C0000FD4A1170FD4A117068E0FD4909780729E5
:103C10002ED1FC49C97801291CD1FA4A1170022120
:103C2000F94A1170F94A1170002003E00021F84AA6
:103C30001154401C0628F9DB0121EF4A1170EF4AAC
:103C40001170002003E00022F2490A54401C0628AB
:103C5000F9DB07E00021EB4A11700321EA4A1170F9
:103C6000EA4A11700121E74A91700021D17035E0D4
:103C7000E349097891B3DF490978C1F3C00169BB11
:103C8000DC490978C1F3001141BBDA490978C1F375
:103C9000401119BBD7490978C1F38011F1B9D54951
:103CA000097821F040014031D24A1170114609785B
:103CB00021F02001203111701146097821F0100106
:103CC000103111701146097821F008010831117086
:103CD0000121C94A11700321C84A1170704710B5FB
:103CE000C74800780C282BD10120CB490870CB485D
:103CF0000078F0B9CA480078D8B9CA480078C0F34B
:103D00008000B0B90520C0490870C0490870002083
:103D1000BC498870C8700120C34908700020BD49A3
:103D2000491FC8700120B4490870B449087001F0F7
:103D3000B5BE0120B04908700320B0490870F6E70D
:103D4000AF4800780E285CD1B8480078012804D12B
:103D5000B7480088401CB6490880B0480078002861
:103D6000E5D1AF4800780028E1D1AE480078C0F333
:103D700080000028DBD1AF480078C0F34010002855
:103D8000D5D1AD480078052818DAAB480078401C3A
:103D9000A949087008460078022805D10020A749E3
:103DA00008700120A6490870A3480078032808D1AC
:103DB0000020A2490870A249087002E001209E4933
:103DC00008708C48007820F0080008308949087095
:103DD00000240EE098490978491E4FF4807202EBE6
:103DE0000121214488B209F0C1FB96490855601CA5
:103DF000C4B2C82CEEDB01207F4908707F490870EF
:103E000095E77F480078032842D188480078012848
:103E100004D187480088401E854908807F48007883
:103E200010BB7F480078F8B97E480078C0F3800066
:103E3000D0B980480078C0F34010A8B90620724974
:103E400008707249087000206E498870C8707E49F9
:103E500008707E4908706F49491FC8700120664983
:103E600008706649087062E762480078C0F3C000D5
:103E70000028C5D15F48007820F0080008305D496F
:103E8000087001205C49087003205C4908704EE707
:103E90005B480078072822D1604800780028AFD11D
:103EA0005F4800780028ABD15E480078C0F38000FE
:103EB0000028A5D15F480078C0F3401000289FD1AA
:103EC000012051490870514908704E4988700020FE
:103ED000C8700120484908704849087027E74848D9
:103EE0000078102850D14D48007878B94C480078B7
:103EF00060B94C480078C0F3800038B94D4800786C
:103F0000C0F3401010B95248007830B901203A4946
:103F1000087003203949087009E701203F490870FB
:103F20004C4908704C48007820F00100401C4A4978
:103F300008703C48007820F08000803039490870D3
:103F400000204649086001204549C1F8A8014548BC
:103F5000007840B14448007820F0010042490870E0
:103F60000020424908704248007820F04000404953
:103F7000087000203F49087001201F4908701F4940
:103F800008702A490870D2E61D4800780B2830D105
:103F900022480078A0B92248007888B921480078E2
:103FA000C0F3800060B92A48007848B132480078F0
:103FB00030B10120184908700F4908700F49087086
:103FC0001648007838B91648007820B915480078A6
:103FD000C0F3800038B11E48007820B11548007841
:103FE000C0F3401020B1012003490870032045E0D0
:103FF00047E0B3E1560000204600002045000020C5
:10400000D0140020BF130020BD130020BE130020D9
:1040100068130020211A0020D31300200100002083
:104020000000002053000020B4130020B51300202E
:104030001A15002057000020D21300204618002037
:104040004718002080180020B6130020B713002066
:104050002A15002050180020580000208481214299
:10406000008021422B1500205A0000203A00002039
:10407000590000202100002023000020FE49087084
:1040800055E60020FD490870FD490870FD4800789C
:1040900020F00100FB490870FB48007820F0040084
:1040A000F94908700020F9490870F9490870F94980
:1040B0000870F9490870F94908700120F84908604A
:1040C000F848007820F00100F6490870F6480078BA
:1040D00020F08000F4490870F448007820F0800057
:1040E000F2490870EF48007820F00200ED490870AE
:1040F0000020EF490870EF490870EF490870EF4958
:104100000870EF490870E0480078C0F3001080B1F3
:10411000EC4890F84900EC490870EA4890F84C00E7
:10412000EA490870D748007820F00200801CD54981
:104130000870D548007820F01000D3490870D148A5
:10414000007820F00400CF490870CF48007820F0B4
:104150000800CD490870CB48007820F00800C94914
:1041600008700020D6490870D9490870CD480078F9
:1041700020F00400CB4908700846007820F00800C1
:1041800008700020D34908700120D349086000203E
:10419000D2490870C348007820F01000C149087067
:1041A0000020CF4908700120CE49C1F8B00100209D
:1041B000CD490870BB48007820F04000B94908702C
:1041C0000846007820F0200008700020C7490870D9
:1041D0000120C449C1F8AC01AA48007820F01000C1
:1041E000A84908700846007820F0200008700846AA
:1041F000007820F0400008700120BD4908600020D0
:10420000BC490870BC490870BC490870BC480078BB
:1042100020F02000BA4908700020BA490870BA4955
:1042200008700120B949C1F89801B548007820F01C
:104230004000B34908709348007820F0800091490D
:1042400008700020B2490870AD48007820F0800066
:10425000AB490870AF48007820F00800AD490870FD
:104260000120AA49C1F89C01AB4800785A2818D10E
:10427000AA480078A8B9AA48007890B9914890F85F
:104280004A00A64908708F4890F84D00401DA44987
:104290000870A048007820F0400040309D49087028
:1042A0001BE09D480078472817D19E480078A0B9A8
:1042B0009D48007888B9834890F84B009949087068
:1042C000804890F84E00401D97490870914800784A
:1042D00020F0400040308F4908708F480078A0B926
:1042E0008E48007888B98E48007870B98D4800787B
:1042F00058B98D48007840B97348007828B9734898
:10430000007810B90020894908700020824908709F
:104310008048007820F080007E49087008460078C8
:1043200020F00400087001206B491039086000205B
:104330007F49C1F8A8017F49087001207E490870B3
:104340004D49087000207D4908705E4890F82900AA
:104350007B49087000207B49C870E8E47A480078FF
:104360000A286AD146480078002867D06448007857
:10437000C009002862D162480078C0F3801000288C
:10438000F8D141480078C0F380000028F2D14748B6
:104390000078C0F340100028ECD16C480078002869
:1043A000E3D03848007800F001000028E2D16848E6
:1043B0000078C0F3400000283DD13A48007800F072
:1043C0000100C8BB30480078C0F3C000A0BB35482E
:1043D000007820F00100401C324908703248007813
:1043E00020F08000304908703048007820F08000CC
:1043F0002E4908702B48007820F00200801C2949C3
:1044000008700320534908705148007820F00400D8
:104410004F4908701C48007820F008001A490870BD
:104420001848007820F00400164908700846007803
:1044300020F00800087007E101E0C7E10AE119482F
:10444000007800F00100A8B10F480078C0F3C00068
:1044500080B91448007820F0010012490870124811
:10446000007820F08000104908701048007820F093
:10447000800071E095E00000450000200000002071
:104480000100002059000020530000204A000020B5
:104490004B0000204C0000204D0000204E0000206A
:1044A000B001224254000020560000205700002096
:1044B0004618002047180020160000201700002092
:1044C000D9130020271A00202800002029000020EE
:1044D0004B180020DA130020948121424C18002050
:1044E000D5130020000021424D180020D6130020D3
:1044F000A00121424A180020491800204818002035
:10450000550000201A0000204E1800200000224212
:10451000D7130020580000201B000020340000208A
:104520003600002035000020370000205018002001
:1045300000802142D813002046000020B51300203F
:10454000100000201C1A0020D01400202A15002082
:104550005A00002038000020FE490870FE4800780C
:1045600020F00200FC490870FC48007820F00800A8
:104570000830FA490870FA48007820F00400001D5D
:10458000F74908700846007820F0080008700320FA
:10459000F4490870F448007820F00400F2490870EB
:1045A00052E0ED48007820F00100EB490870EF4838
:1045B000007820F08000ED490870E648007820F08F
:1045C0008000E4490870E448007820F00200E249E5
:1045D00008700020E6490870E6490870E64908704E
:1045E000E6490870DD48007820F00800DB490870D3
:1045F000DB48007820F00400D949087008460078AC
:1046000020F008000870D5480078C0F3001080B191
:10461000DB4890F84900DB490870D94890F84C0015
:10462000D9490870CE48007820F00200801CCC499F
:104630000870CA48007820F01000C84908700020AF
:10464000CB490870CB4908700120D0490870D04987
:104650000870B7E0CF48007800287DD1CE480078B8
:10466000C009002878D1CC480078C0F38010002819
:1046700072D1BA480078C0F3800000286CD1B548E8
:104680000078C0F34010002866D1C44800780028A4
:1046900062D0B2480078C0F3C00000285CD1C048A6
:1046A000007888BB0120BE4908700020BD49087011
:1046B000BD490870BD4908600120BD49C1F8A80185
:1046C000A648007820F080008030A4490870AC48EB
:1046D00090F82900B74908700120B7490870B74819
:1046E000007840B1A048007820F001009E49087091
:1046F0000020B34908709A48007820F0400098499B
:1047000008700020AF4908709348007800F001005D
:1047100028BB9148007820F00100401C8E490870A9
:104720009248007820F0800090490870894800780D
:1047300020F08000874908708748007820F0020048
:10474000801C8549087003208649087086480078D7
:1047500020F00400844900E02EE0087026E07E4846
:10476000007820F001007C4908708048007820F033
:1047700080007E4908707748007820F080007549F5
:1047800008707548007820F002007349087073487B
:10479000007820F008007149087000207449087002
:1047A0007449087074490870744908700120774989
:1047B00008707749087005E00120744908700320EB
:1047C0007349087000208049C87059E47F48007818
:1047D00004287DD16F480078D0B36F480078C009B5
:1047E000B0BB6D480078C0F3801088BB5B48007890
:1047F000C0F3800060BB57480078C0F3401038BB5E
:104800006648007820B35648007800F00100F8B9F7
:1048100055480078C0F34000A8BB6D480088654942
:104820000978884215DA4C4800786FEA90004A49C6
:10483000097860F38201484801700078C0F3800075
:1048400008B34548007820F00800434908701AE092
:104850001FE0414800786FEA90003F49097860F313
:1048600082013D4801700078C0F3800028B13A48C9
:10487000007820F00800384908700120434908708A
:1048800003204349087001204049087040490870DE
:10489000D9E040480078E8BB3F480078C009C8BB71
:1048A0003D480078C0F38010A0BB2C480078C0F3CE
:1048B000800078BB27480078C0F3401050BB3748D1
:1048C000007838B325480078C0F3C00010BB00E082
:1048D000BDE03348007898BB0120314908700020C2
:1048E000304908703049087030490860012030496B
:1048F000C1F8A8011948007820F0800080301749DD
:1049000008701F4890F829002A49087001202A4998
:10491000087000E091E02948007840B11248007822
:1049200020F00100104908700020254908700C484B
:10493000007820F040000A490870002021490870E2
:10494000234800881B490978884256DA02480078D3
:1049500040E00000570000205400002053000020D9
:1049600059000020380000205A0000205600002086
:1049700046180020471800201600002017000020CD
:10498000271A0020280000202900002046000020CF
:104990004500002001000020550000202A150020BD
:1049A000000000201800002019000020848121420E
:1049B0000080214210000020501800202B150020FC
:1049C0003A000020210000201C1A0020D0140020F2
:1049D0001A1500206FEA9000FE49097860F3820101
:1049E000FC4801700078C0F3800000B3F9480078FB
:1049F00020F00800F749087019E0F64800786FEADF
:104A00009000F449097860F38201F248017000785F
:104A1000C0F3800028B1EF48007820F00800ED498D
:104A200008700120EC4908700320EC49087001204F
:104A3000E9490870E949087005E00120E649087075
:104A40000320E64908700020E549C87085E4E54880
:104A5000007808287ED1E4480078D0B3E348007895
:104A6000C009B0BBE1480078C0F3801088BBE048C3
:104A70000078C0F3800060BBDE480078C0F34010CF
:104A800038BBDD48007820B3DC48007800F0010036
:104A9000F8B9DB480078C0F34000A8BBD9480088CB
:104AA000D9490978884215DACA4800786FEA1010A7
:104AB000C849097860F30411C64801700078C0F352
:104AC000001008B3C348007820F02000C1490870E6
:104AD0001AE01FE0BF4800786FEA1010BD4909785E
:104AE00060F30411BB4801700078C0F3001028B1D6
:104AF000B848007820F02000B64908700120B64977
:104B000008700320B54908700120B3490870B34903
:104B1000087097E0B4480078F0BBB4480078C0094A
:104B2000D0BBB2480078C0F38010A8BBB048007872
:104B3000C0F3800080BBAF480078C0F3401058BB82
:104B4000AD48007840B3AA480078C0F3C00018BB55
:104B5000AE4800E07AE0007898BB0120AB490870CD
:104B60000020AB490870AB490870AB4908600120D0
:104B7000AA49C1F8A8019E48007820F08000803042
:104B80009B490870A64890F829009F4908700120A9
:104B9000A4490870A44800E04EE0007840B198486D
:104BA000007820F001009649087000209F490870A5
:104BB0009248007820F040009049087000209C49FD
:104BC00008709048008890490978884214DA814832
:104BD00000786FEA10107F49097860F304117D486E
:104BE00001700078C0F3001000B37A48007820F01C
:104BF00020007849087019E0764800786FEA1010B4
:104C00007449097860F30411724801700078C0F3A8
:104C1000001028B16F48007820F020006D4908701E
:104C200001206D49087003206C49087001206A4911
:104C300008706A49087005E0012067490870032080
:104C40006649087000206649C870BEE5654800786E
:104C50000D2876D16448007878B364480078C0099C
:104C600058BB62480078C0F3801030BB60480078C1
:104C7000C0F3800008BB5F480078C0F34010E0B983
:104C80005D480078C8B15D48007800F00100A0B927
:104C90005B480078C0F3400048B94E4800786FEA9E
:104CA00090104C49097860F386114A480170012040
:104CB000494908704949087067E0FFE74A480078A9
:104CC000F0BB4A480078C009D0BB48480078C0F320
:104CD0008010A8BB46480078C0F3800080BB4548E0
:104CE0000078C0F3401058BB4348007840B34048B8
:104CF0000078C0F3C00018BB4448007878BB01209E
:104D000042490870002042490870424908704249EF
:104D1000086001204149C1F8A8013548007820F019
:104D2000800080303249087001203E4908703E48BA
:104D3000007858B13248007820F00100304901E095
:104D40001DE026E008700020384908702B480078E4
:104D500020F04000294908700020354908701D489E
:104D600000786FEA90101B49097860F386111948A2
:104D700001700120184908701849087005E00120E9
:104D80001549087003201549087000201449C8709F
:104D90001BE51448007801287ED114480078C0092A
:104DA000002816D111480078C0F38010002810D1D7
:104DB0000F480078C0F3800000280AD10D48007821
:104DC000C0F3401028B90C48007810B10B480078A7
:104DD00030E062E054000020460000204500002042
:104DE0001C1A0020D01400200100002055000020D3
:104DF00053000020570000202A15002059000020F1
:104E00005A0000201A150020100000200000002089
:104E100018000020190000208481214200802142D6
:104E2000271A0020501800202B1500203A000020DF
:104E30002100002000F0010078BBFE480078C0F39C
:104E4000C00050BBFC48007840B3FC480078C0F379
:104E5000400038BBFA48007820B3FA48007820F0C8
:104E60001000F84908700846007820F0200008700B
:104E70000846007820F040000870F348007820F0E1
:104E80002000F14908700020F0490870F0490870CE
:104E90000120F049087002E09AE08FE003E003206F
:104EA000ED4908704EE0ED480078E8BB0120EB4981
:104EB00008700020EA490870EA490870EA49086069
:104EC0000120EA49C1F8A801DA48007820F0800002
:104ED0008030D84908700120E5490870E54800781D
:104EE00040B1D648007820F00100D4490870002075
:104EF000E1490870CF480078C0F3C000A0B1D148A4
:104F0000007820F01000CF4908700846007820F0A3
:104F1000200008700846007820F040000870CA4859
:104F2000007820F0200000E00CE0C7490870002065
:104F3000C6490870C64908700120C6490870032098
:104F4000C5490870BF480078C0F3401020B1BD4883
:104F50000078C0F38010C0B9BA4800786FEA10102A
:104F6000B849097860F30411B64801700078C0F3BD
:104F7000001030B1C14890F83100401CB4490870AD
:104F800016E00020B249087012E0AE48007820F028
:104F90001000AC4908700846007820F02000087026
:104FA0000846007820F0400008700020A8490870EA
:104FB0000120A8490870A849087005E00120A5490A
:104FC00008700320A44908700020AD49C8703DE571
:104FD000AC48007805287DD197480078E8B39A4816
:104FE0000078C009C8BB93480078C0F38000A0BB1C
:104FF000A5480078C0F3401078BBA448007860B39F
:105000009048007800F0010038BB8C480078C0F36D
:10501000400048B98B4800786FEAD0108949097878
:1050200060F3C7118748017086480078C00990B3C3
:105030008548007820F0400040308349087094484B
:10504000007820F00400924908700846007820F0AB
:10505000100008700846007800E029E020F04000C9
:1050600008707948007820F020007749087075486A
:10507000007820F01000734908700846007820F08E
:10508000200008700846007820F0400008700020DA
:105090006F49087006E0FFE76B48007820F0400099
:1050A0006949087001206B4908706B49087073E109
:1050B00061480078002874D163480078C00900284E
:1050C0006FD15C480078C0F38000002869D16E4839
:1050D000007800E064E1C0F34010002861D16B4823
:1050E000007800285DD05D48007818BB01205B493E
:1050F000087000205A4908705A4908705A490860D7
:1051000001205A49C1F8A8014A48007820F08000DF
:10511000803048490870012055490870554800788A
:1051200040B14648007820F0010044490870002052
:105130005149087044480078C0F3801090B3554836
:10514000007878BB5448007860BB5448007848BB6E
:105150005348007830BB3C48007820F040003A4982
:1051600008700020364908703648007820F080002A
:10517000344908702F48007820F008002D49087045
:105180000846007820F0100008702E48007820F0C3
:1051900004002C4908700846007820F008000870C8
:1051A000EEE0F3E0FFE7234800786FEAD000214902
:1051B000097860F3C3011F4801700078C0F3C00094
:1051C000B0B300201E4908703148007820F0040078
:1051D0002F4908700846007820F010000870084633
:1051E000007820F0400008701748007820F0200078
:1051F000154908701348007820F010001149087014
:105200000846007820F0200008700846007820F05A
:105210004000087000200E4908700648007820F011
:105220001000044908700748007820F0040039E0B5
:1052300074E0000053000020010000205A0000200C
:105240004E18002059000020550000201A000020B0
:105250002100002046000020450000200000002022
:105260001800002019000020848121420080214282
:10527000501800202B1500203A000020271A00208B
:105280001C1A0020D0140020570000202A150020EE
:105290005400002046180020471800202600002057
:1052A00027000020FE4908700846007820F008001A
:1052B0000870FC48007820F00400FA4908700320C8
:1052C000F9490870F94890F84200F9490870F74820
:1052D00090F84300F7490870F748007820F0010083
:1052E000F5490870F548007820F08000F34908700F
:1052F000F348007820F08000F1490870EE4800780B
:1053000020F00200EC4908700020EE490870EE49D8
:105310000870EE490870EE49087031E0ED480078F9
:1053200020F04000EB490870DD48007820F00400D0
:10533000DB4908700846007820F008000870E6484D
:105340000078C0F3001080B1D84890F84900E349D4
:105350000870D64890F84C00E1490870D0480078B1
:1053600020F00200801CCE490870DB48007820F055
:105370001000D94908700020D2490870D24908703D
:105380000120D8490870D849087005E00120D549A6
:1053900008700320D44908700020D449C8707DE308
:1053A000D348007809287DD1D248007800287AD0E7
:1053B000C9480078C0F38000002874D1C048007844
:1053C000C0F3401000286ED1CB48007800286AD086
:1053D000B348007800F00100002864D1B14800789B
:1053E000C0F34000F0BBBC480078C0F30010A8B187
:1053F000AE4890F84900B9490870AC4890F84C00A4
:10540000B7490870A648007820F00200801CA44923
:1054100008700020AB490870AB490870AE480078AE
:1054200020F01000AC4908709D48007820F004007E
:105430009B490870A848007820F00800A649087029
:105440009748007820F0080095490870AB4800782C
:1054500050BB0846007820F08000803008709D48DE
:10546000007800E091E020F08000803099490870D9
:105470005A20A2490870A248007820F08000A04974
:1054800008708A4890F840009E490870874890F854
:105490004500C0EB001080009B490860834890F8ED
:1054A000440002E095E2CCE00CE01E309749087021
:1054B00003207D4908707B48007820F0040079497A
:1054C000087062E08D4800785A2828D17448007826
:1054D00020F080008030724908707E48007820F00B
:1054E000800080307B4908704720844908708448D8
:1054F000007820F00400824908706C4890F846005B
:10550000C0EB0010800082490860032066490870E3
:105510006448007820F004006249087035E00020FB
:1055200068490870684908707A4908607A490860D3
:105530007A4908605D4890F84B00794908705B48EB
:1055400090F84E00401D774908706D48007820F0B3
:10555000400040306A4908700846007820F080001A
:1055600008700846007820F0040008704C48007865
:1055700020F080004A4908705648007820F08000EA
:105580005449087000205D49087052480078C009ED
:10559000F0B34948007820F00100474908704748B7
:1055A000007820F08000454908704548007820F0D8
:1055B0008000434908704048007820F002003E49CE
:1055C00008700846007820F004000870084600784B
:1055D00020F0100008700846007820F040000870A5
:1055E0002F48007820F010002D49087008460078F8
:1055F00020F0200008700846007820F04000087075
:105600000020494908703348007820F0200000E06D
:1056100011E0304908700020444908702D48007896
:1056200020F040002B4908701D48007820F08000D1
:1056300080301B49087001202A4908702A490870E7
:10564000C3E12C480078002829D123480078C0F312
:1056500080000028F8D11A480078C0F340100028D4
:10566000F2D125480078002819D031480078A8B92F
:1056700001202F49087000202E4908702E4908701B
:105680002E49086001202E49C1F8A801124800786F
:1056900020F0800080301049087053E061E08EE116
:1056A000590000205A00002038000020271A00204E
:1056B0002600002027000020540000205600002073
:1056C0005700002046180020471800201600002030
:1056D0001700002055000020530000202800002063
:1056E0002900002046000020450000201C1A002050
:1056F000D0140020010000202A1500201B000020EB
:10570000580000202A0000202C0000202B00002040
:105710003000002004000020080000200C000020C1
:105720003500002037000020210000201A00002052
:105730000000002018000020190000208481214270
:10574000008021420120F7490870F748007840B1F5
:10575000F648007820F00100F44908700020F44970
:105760000870F4480078E8BBF348007820F0800027
:105770008030F1490870F148007820F080008030D6
:10578000EE4908705A20EB490870ED48007820F087
:105790008000EB490870EB4890F84000EA49087037
:1057A000E84890F84500C0EB00108000E749086029
:1057B000E44890F844001E30E54908700320E549AC
:1057C0000870DA48007820F00400D8490870E248F0
:1057D0000078C0F30010E8B3DA4890F84900DF49D8
:1057E000087000E011E0D74890F84C00DC490870E0
:1057F000D148007820F00200801CCF4908700020BA
:10580000D8490870D849087064E0CA4800785A2816
:105810002AD1C948007820F080008030C64908703D
:10582000C648007820F080008030C44908704720C6
:10583000C0490870C248007820F00400C0490870D0
:10584000C04890F84600C0EB00108000C7490860CF
:10585000032000E03EE0BF490870B448007820F023
:105860000400B249087035E00020BE490870BE4906
:105870000870BF490860BF490860BF490860B14867
:1058800090F84B00BD490870AE4890F84E00401D9E
:10589000BB490870AA48007820F040004030A84971
:1058A00008700846007820F08000087008460078EC
:1058B00020F004000870A048007820F080009E4985
:1058C00008709E48007820F080009C4908700020F5
:1058D0009849087099480078C009E0B3A948007851
:1058E00020F00100A7490870A748007820F0800048
:1058F000A5490870A548007820F08000A3490870E9
:10590000A048007820F002009E4908700846007800
:1059100020F0040008700846007820F0100008709D
:105920000846007820F0400008708348007820F096
:105930001000814908700846007820F020000870A7
:105940000846007820F04000087000209049087058
:105950007A48007800E02CE020F0200077490870B9
:1059600000208C4908707548007820F04000734989
:1059700008707148007820F0800080306E4908700F
:105980000120854908707448007820F008007249A9
:1059900008700846007820F010000870664800780B
:1059A00020F00400644908700846007820F00800E0
:1059B00008700120794908707949087005E00120D4
:1059C0007649087003207649087000207549C87030
:1059D00064E0754800780F2860D174480078E0BB17
:1059E00073480078C8BB5C480078C0F38000A0BB57
:1059F00066480078C0F3401078BB5248C07A7928D6
:105A000046D16C48007840B30120464908704D48A3
:105A100090F85100401C684908704A4890F85200BC
:105A200066490870474890F8530065490870454832
:105A300090F85400634908704748007820F004004B
:105A4000001D454908703F4890F850005E490870B5
:105A500001205E4908703B4800E019E090F86F00B3
:105A600064214843424908604FF4967041490860F8
:105A7000642041490860012048490870484908707D
:105A800000205349086001205249C1F8A80105E0EF
:105A900001204249087003204149087010BD10B52B
:105AA0004D4800780B283CD2DFE800F0060C1218B5
:105AB0001EC3C9DBE1E7ED00002048490870FEF78E
:105AC0000EF9E7E0012045490870FEF725F8E1E00E
:105AD000022042490870FDF7D4FEDBE003203F4975
