:020000040800F2
:10000000B00E0020A91B0008990200089B020008FE
:100010009F020008A3020008A702000800000000D9
:10002000000000000000000000000000AB0200081B
:10003000AD02000800000000AF020008B102000895
:10004000C31B0008C31B0008C31B0008C31B000818
:10005000C31B0008C31B0008C31B0008C31B000808
:10006000C31B0008C31B0008C31B0008C31B0008F8
:10007000C31B0008C31B0008C31B0008C31B0008E8
:10008000C31B0008C31B0008C31B0008C31B0008D8
:10009000C31B0008C31B0008C31B0008C31B0008C8
:1000A000C31B0008C31B0008C31B0008C31B0008B8
:1000B000C31B00080D140008C31B0008C31B000865
:1000C000C31B0008C31B0008C31B0008C31B000898
:1000D000C31B000895040008C31B00085B0B000845
:1000E000C31B0008C31B0008C31B0008C31B000878
:1000F000C31B0008C31B0008C31B0008C31B000868
:10010000C31B0008C31B0008C31B0008C31B000857
:10011000C31B0008C31B0008C31B0008C31B000847
:10012000C31B0008C31B0008C31B0008C31B000837
:1001300000F002F800F04AF80AA090E8000C8244AF
:100140008344AAF10107DA4501D100F03FF8AFF28C
:10015000090EBAE80F0013F0010F18BFFB1A43F0A5
:100160000103184740410000604100000A4410F8B4
:10017000014B14F00F0508BF10F8015B240908BFFC
:1001800010F8014B6D1E05D010F8013B6D1E01F8F3
:10019000013BF9D1641E03D0641E01F8015BFBD161
:1001A0009142E4D37047000000230024002500267C
:1001B000103A28BF78C1FBD8520728BF30C148BFCA
:1001C0000B6070471FB51FBD10B510BD03F061FD7A
:1001D0001146FFF7F7FF00F009F803F07FFD03B4C5
:1001E000FFF7F2FF03BC03F083FD000041F61F415F
:1001F000092001F0EDF801F0BFF801F0D9FB01F0A2
:100200003FFC4FF4A06001F0EFFC4FF4165000F0FB
:1002100086F94FF4165000F0FDFC01F07CFA30E056
:1002200000F0FDFA17480078012827D10020154971
:10023000087001F0DFFA01F03FF900241CE0042C03
:1002400007D11148018804F13A00104A22F8101031
:1002500011E0052C07D10E48018904F13A000B4A40
:1002600022F8101007E00B4830F8141004F13A009F
:10027000064A22F81010641C062CE0DB01F0D8FAC4
:1002800000BFCDE74B0000205C000020A40300204D
:10029000180800206C000020704700BFFEE700BF78
:1002A000FEE700BFFEE700BFFEE7704770477047FC
:1002B000704700000CB50020019000906C48006869
:1002C00040F480306A49086000BF6948006800F463
:1002D000003000900198401C0190009818B90198D6
:1002E000B0F5A06FF1D16248006800F4003010B1A1
:1002F0000120009001E0002000900098012843D1E7
:100300005C48006840F010005A49086008460068E0
:1003100020F0030008600846006840F00200086012
:10032000534840685249486008464068486008465B
:10033000406840F4806048600846406820F47C10C3
:1003400048600846406840F4E81048600846006885
:1003500040F08070086000BF4548006800F0007001
:100360000028F9D04248406820F003004049486026
:100370000846406840F00200486000BF3C484068C2
:1003800000F00C000828F9D10CBD10B5FFF792FF62
:1003900010BD10B53648006840F0010034490860CF
:1003A00008464068344908403149486008460068BA
:1003B000324908402E4908600846006820F4802031
:1003C00008600846406820F4FE0048604FF41F00B3
:1003D0008860FFF7DAFF4FF000602949086010BD20
:1003E00010B5002100200022214B5B6803F00C01B6
:1003F00021B1042906D0082928D107E0214B224C3D
:10040000236027E01F4B204C236023E0184B5B68E0
:1004100003F47010164B5B6803F48032022303EB85
:10042000904022B9194B4343174C23600DE0104B09
:100430005B6803F4003323B1144B4343124C236035
:1004400003E0104B4343104C236003E00D4B0E4C74
:10045000236000BF00BF064B5B68C3F303130C4C63
:10046000E15C094B1B68CB40074C236010BD0000CA
:1004700000100240002002400000FFF8FFFFF6FEDF
:1004800008ED00E000127A000000002000093D00A5
:100490000400002010B540F22551FE4802F052F948
:1004A00080B1FC4802F0CEF8C4B2FB480078642862
:1004B00008DAFA48F84909784454F7480078401CAB
:1004C000F549087040F22771F24802F03BF928B371
:1004D000F3480078F349097888420BDCF048027849
:1004E0000078401CEE4B1870EF48815CE94802F040
:1004F000A5F813E00020EA490870EC4908600120E3
:1005000001F092FA002240F22771E24802F035F839
:10051000012240F22551DF4802F02FF810BD10B53E
:1005200086B0044601210C2001F0E8FE0121880379
:1005300001F0E4FE0120ADF8140010208DF8170042
:1005400003208DF8160005A9D94801F01BFC4FF4D3
:100550000070ADF8140018208DF8170005A9D548D3
:1005600001F010FC4FF48060ADF8140004208DF809
:10057000170005A9CF4801F005FC0121880301F00F
:10058000D7FE00214FF4804001F0D2FE01940020FC
:10059000ADF80800ADF80A00ADF80C00ADF8100099
:1005A0000C20ADF80E0001A9BA4801F04EFF25203D
:1005B0008DF8000003208DF801008DF80200012065
:1005C0008DF80300684601F014FB012240F225512A
:1005D000B04801F0D2FF0121AE4801F0C2FF002077
:1005E000B249086006B010BD2DE9F0474FF0000891
:1005F000AA4890F803904F4690F805A04FEA4A6049
:10060000040E00250EE0AC4830F817804FEA282190
:10061000A54AE81C1154281D02F80080A81C85B2C8
:10062000781CC7B2A542EEDBA44800789E4908704A
:100630000320487008468470E01CC4B221469A48E2
:1006400000F066FA0646301297490855601CC4B29D
:100650000E55601C934908700020914908700120D4
:1006600092490860002240F225518A4801F085FF36
:10067000012240F22771874801F07FFFBDE8F08733
:100680002DE9F0418548C4782546407983490979A8
:1006900000EB012086B2884820F815608748007872
:1006A0008149087006204870201288700846C4707E
:1006B000301208714E7106217B4800F029FA074676
:1006C000381279498871CF71082076490870002066
:1006D0007349087001207549086001F0A5F90022EE
:1006E00040F225516B4801F048FF012240F227718A
:1006F000684801F042FFBDE8F08170B56748C478F2
:1007000045796E48007868490870102048702012BA
:1007100088700846C4702812087108464571062181
:1007200000F0F6F9064630125F498871CE71082054
:100730005C49087000205A49087001205B49086034
:10074000002240F22551534801F017FF012240F2E8
:100750002771504801F011FF70BD2DE9F0410546A9
:100760000F464FF04C085448A0F89870B0F89860C5
:1007700000205149A1F89800504800784A49087073
:100780009DB903204870022088703012C8700E7125
:100790000521454800F0BCF9044620124249487141
:1007A0008C7107203F49087023E0012D01D0022DF4
:1007B0001FD1012D03D106203B49487004E0022DD2
:1007C00002D11020384948704FEA282036498870F5
:1007D00081F80380301208714E710621324800F012
:1007E00097F90446201230498871CC7108202D49B0
:1007F000087000202A49087001202C49086001F087
:1008000013F9002240F22551224801F0B6FE0122E0
:1008100040F227711F4801F0B0FEBDE8F0812DE9DC
:10082000F84F0024A146A0461B4806780027A3469F
:10083000002000900A2001F0F7F81748007886425F
:1008400073D1002E71D0042E6FDD14484078032838
:1008500004D0062803D0102868D1BCE000BF082EC1
:1008600072DB0E48007815490978884256D1062176
:100870000A4800F04DF981460848C079074989794E
:1008800000EB01204845F1D10448C078034989783C
:1008900016E00000003801401700002098050020F5
:1008A000160000201800002034050020808121421D
:1008B000000C014000080140A403002014000020A7
:1008C00000EB012087B2834840798249097900EB27
:1008D00001201FFA80FB7F484078032851D1372F31
:1008E00025D100207C49A1F86E00A1F870000A20F3
:1008F000A1F87200FFF778FE04207849087000F034
:100900002EFC0446022C01D0032C08D1012074498E
:1009100008700020734908707349087056E0012C74
:1009200054D100206E49087050E0D1E0CEE03A2F5B
:100930000BD16B480078012803D1FF206649A1F84C
:100940007E00FFF751FE41E044E0442F3ED10020FD
:100950006249087000F003FC0446012C02D1FFF745
:1009600043FE33E0022C01D0032C2FD1214600207E
:10097000FFF7F3FE002400205A4908705A49087016
:1009800024E054484078062820D1062F1CD157492E
:1009900081F800B00A205149087000F021FC04469B
:1009A000012C02D1FFF76CFE10E0022C01D0032CC9
:1009B0000CD121460120FFF7D0FE002400204C4935
:1009C00008704949087001E0FFF75AFE0026002030
:1009D000484908707BE0072E77DB3E4890F8068098
:1009E00008F1090000F0FF0846456EDB3948C07881
:1009F0003849897800EB012087B23648407935497B
:100A0000097900EB012080B20090A8F1020081B2C8
:100A1000304800F07DF88146A8F101002D49095CBD
:100A2000401E2C4A105C01EB0020484549D10025AE
:100A300013E0082000EB45002649085C072101EB84
:100A40004501244A515C00EB01201FFA80FA781915
:100A5000214921F810A0681CC5B200988542E8DB46
:100A6000022F2CD11C488088234908801A48C0884E
:100A70002249088018480089214908800520174923
:100A8000087000F0EBFB0446012C02D1FFF735FEA5
:100A900017E0022C01D0032C13D121460220FFF7CE
:100AA0005CFE00240020124908701649087016499F
:100AB0000870164908700C49087002E005E0FFF75D
:100AC0001CFE002600200B49087000E000BF00BF9C
:100AD000BDE8F88F98050020A40300202F00002017
:100AE00024000020390000203000002022000020D7
:100AF00035000020170000201C0000201E000020F0
:100B000020000020360000203700002038000020A0
:100B100070B502460C46FF25FF2309E012F8010BD1
:100B200080EA05010648405C80EA03050548435C0D
:100B30002000A4F10106B4B2F0D143EA052070BD53
:100B4000A2400008A2410008FE48006820B1FD480C
:100B50000068401EFB490860704710B5FA480078ED
:100B6000401CF949087008460078642804DB00201E
:100B700008700120F549087040F22551F44801F051
:100B8000E1FDB8B10020F0490870F14801F05AFDCC
:100B9000C4B2F0480078642809DAEF48ED490978D2
:100BA0004454EC480078401CEA49087002E00020F8
:100BB000E849087040F22771E54801F0C3FD40B3F1
:100BC0000020E1490870E5480078E5490978884245
:100BD0000BDCE24802780078401CE04B1870E148DA
:100BE000815CDB4801F02AFD13E00020DB4908703E
:100BF000DD490860012000F017FF002240F2277154
:100C0000D34801F0BAFC012240F22551D04801F04E
:100C1000B4FC10BD10B586B004460121092001F0D6
:100C20006DFB0121880401F076FB0220ADF8140071
:100C300010208DF8170003208DF8160005A9CB4869
:100C400001F0A0F84FF48060ADF8140018208DF882
:100C5000170005A9C54801F095F84FF40060ADF8FC
:100C6000140004208DF8170005A9C04801F08AF887
:100C70000121880401F069FB00214FF4802001F07C
:100C800064FB01940020ADF80800ADF80A00ADF84F
:100C90000C00ADF810000C20ADF80E0001A9AC4816
:100CA00001F0D3FB27208DF8000003208DF8010010
:100CB0008DF8020001208DF80300684600F099FFCE
:100CC000012240F22551A24801F057FC0121A04821
:100CD00001F047FC0020A449086006B010BD70B5C3
:100CE00004460D460026A24800789E49087003205D
:100CF0004870200A8870CC70280A08714D7106204F
:100D000097490870084601789648FFF701FF0646A4
:100D1000300A94498871CE710820914908700020EA
:100D20008E49087001209049086000F07DFE002285
:100D300040F22551864801F020FC012240F2277143
:100D4000834801F01AFC70BD70B504460D460026BC
:100D5000874800788349087006204870200A887008
:100D6000CC70280A08714D7106207D49087008462C
:100D700001787C48FFF7CCFE0646300A7949887135
:100D8000CE7108207649087000207449087001204F
:100D90007549086000F048FE002240F225516C4879
:100DA00001F0EBFB012240F22771694801F0E5FBFD
:100DB00070BD2DE9F041002766480078042878DDF1
:100DC00065480078012815D063484078012811D182
:100DD0006148407860490870002404E05E49601C66
:100DE000085C0855641C5B4800788442F6DB0020F0
:100DF0005949085558484078032802D006287DD123
:100E000088E0554885788078461052480178681DFA
:100E100081427EDB5048007855490978884273D179
:100E2000E91C4D48FFF774FE524908804A49281DC5
:100E3000095C494AE81C105C01EB00204D49098817
:100E4000884260D14C480078012815DC10460079B2
:100E50001146C97800EB01204849474A127821F829
:100E6000120008464449097830F8111042480078C9
:100E70004430434A22F810103F480078042812D129
:100E8000354800793449C97800EB01203B493A4A9A
:100E9000127821F8120008463749097830F8110015
:100EA0003749A1F87E0034480078022821D1002477
:100EB0001DE0E7E0042000EB44002749085C032123
:100EC00001EB4401244A515C00EB012081B2601D1A
:100ED0002A4A22F81010E01C114631F8101026485A
:100EE000007844302044264A22F81010641CB44292
:100EF000E0DB002023490870234902E0B9E008E064
:100F000002E0087000E003270020124908701F4922
:100F10000870B2E00F48007808287DDB0E480078A2
:100F200013490978884278D106210B48FFF7F0FD74
:100F3000104908800848C0790749897900EB0120E9
:100F40000C4925E0440000203E0000203400002031
:100F5000004800402A000020FC0500202800002056
:100F60002B000020F606002084812142000C014065
:100F70002900002040000020300000201808002038
:100F8000A4030020390000203C0000203A0000208B
:100F90000988884266D1E4480078052811D1E348E1
:100FA0004079E249097900EB0120E14908800846CF
:100FB0000088E0490988884247D10020DE4908704E
:100FC00043E0D9480078062811D1D8484079D7495C
:100FD000097900EB0120D649488008464088D74966
:100FE0000988884231D10020D54908702DE0CE48CB
:100FF0000078072814D1CD484079CC49097900EB15
:101000000120CB49888008468088CE4909888842DB
:101010001BD10020CC4901E02AE024E0087014E054
:10102000C14800780A2810D1C0484079BF490979E1
:1010300000EB0120BE49C8800846C088C349097832
:10104000884202D10020C2490870BB48007850B9DC
:10105000BB48007838B9BC48007820B90020BC49AA
:10106000087000E003270020BA490870BA490870E8
:1010700003E00020B749087000BF00BF0020B74957
:10108000087007E00120B6490870B4480078401C99
:10109000B24908700020AF4908703846BDE8F081B9
:1010A00010B5B0480078A0490870AE4800780B2809
:1010B00052D2DFE800F0060E17512026323E515181
:1010C0004B0001214803FFF70AFE0120A5490870E3
:1010D00043E0012142F20100FFF701FE0220A14995
:1010E00008703AE005214FF48040FFF7F8FD00203A
:1010F0009C49087031E001214FF4C040FFF7EFFD3B
:101100002BE08C4801880C20FFF71EFE01208A4945
:1011100008700620934908701FE0884801880D2058
:10112000FFF712FE01208649087007208D490870DC
:1011300013E0844801884FF44050FFF705FE01207A
:10114000814908700F208749087006E007214FF495
:101150000050FFF7F9FD00E000BF00BF10BD10B563
:10116000002439E080480078012819D100207E4908
:1011700008707E48007828B9FFF792FF01207B496C
:1011800008700DE076480078012809D1FFF788FF44
:1011900077480078401C7649087000206F49087035
:1011A00073480078052804DB022400207049087089
:1011B00013E00A2000F038FCFFF7FBFD04466B4803
:1011C000007848B958480078022803D0564800787B
:1011D000042801D1012400E0C4E700BF204610BD6F
:1011E00010B5002436E063480078012816D10020AD
:1011F000604908705648007828B9FFF751FF012070
:10120000534908700AE056480078012806D1FFF7D4
:1012100047FF51480078401C4F4908704E480078FD
:10122000032804DB022400204B49087013E00A2045
:1012300000F0FAFBFFF7BDFD04464548007848B9C9
:1012400039480078072803D0374800780A2801D1A8
:10125000012400E0C7E700BF204610BD10B5002400
:101260005EE04448007801283ED1002041490870E2
:101270003748007828B9FFF713FF01203449087078
:1012800032E03748007801282ED12B480078012819
:1012900007D02B480078012803D02B48007801287C
:1012A00022D125480078012805D1224801880C2048
:1012B000FFF74AFD13E022480078012805D11F48B6
:1012C00001880D20FFF740FD09E01F480078012844
:1012D00005D11C4801884FF44050FFF735FD1E48EA
:1012E0000078401C1C4908701B4800780A2804DB61
:1012F000022400201849087013E00A2000F094FB33
:10130000FFF757FD04461248007848B906480078B0
:10131000072803D0044800780A2801D1012400E0FE
:101320009FE700BF204610BD30000020FC050020D4
:10133000F00700201C000020360000201E000020C6
:10134000370000202000002038000020220000206C
:10135000350000202A0000203B0000203D00002036
:101360003C0000202F0000204E000020390000200B
:101370003A0000204F00002008B525208DF800001D
:1013800003208DF8010001208DF802008DF8030084
:10139000684600F02EFC27208DF8000003208DF811
:1013A00001008DF8020001208DF80300684600F06E
:1013B00020FC1D208DF8000000208DF80100012088
:1013C0008DF802008DF80300684600F012FC08BD9D
:1013D0003EB505460C460121022000F09CFFADF809
:1013E0000450ADF800400020ADF80600ADF8020052
:1013F0006946294801F0E6FC01221146264802F020
:1014000058F80121244802F039F83EBD10B50121F9
:10141000214802F0FCFA00283CD001211E4802F0CD
:1014200007FB1E4801880088401C1C4A1080B1F54B
:10143000FA7F05DB0020114608800120184908705A
:1014400018480088401C1749088008460088FA2878
:1014500002D101201449087012480088B0F5FA7FC3
:1014600002D10120114908700E480088B0F5617F53
:1014700002DB00200B4908800D4801880088401CD1
:101480000B4A1080642905DB0020114608800120EA
:101490000849087010BD00000004004054000020FE
:1014A0004B000020580000204E0000204F0000207C
:1014B000560000204D00002037480068374908706A
:1014C0003748D0F83001374908703748D0F808015C
:1014D000364908703648D0F8140136490870344847
:1014E000D0F82001344908703148D0F8240133493C
:1014F00008702B48D0F82801314908703148D0F8DD
:1015000030013149087025480078C0432F490988C7
:1015100060F300012D48018022480078C0432B4928
:10152000098860F341012948018020480078C043C0
:101530002649098860F38201244801801D4800780B
:10154000C0432249098860F3C301204801801A483A
:101550000078C0431D49098860F304111B480180CD
:1015600016480078C0431949098860F345111748A7
:10157000018013480078C0431449098860F386113C
:101580001248018010480078C0431049098860F370
:10159000C7110E48018070472C0122425E000020D6
:1015A000000022425F0000200080224260000020F4
:1015B00000802142610000206200002063000020C2
:1015C0006400002000002142650000205C00002033
:1015D00008B50121102000F091FE0120ADF80000B7
:1015E0000220ADF800000820ADF8000000208DF8C2
:1015F00003006946864800F0C5FB08BD00B591B000
:101600000121084600F06DFE0121480200F076FE3F
:10161000804802F011FA8048069080480790002028
:1016200008900520099000200A9080200B9040002F
:101630000C9080000D9020200E9000020F90002052
:10164000109006A9734802F099FA0121714802F03E
:10165000C0FA0020019001208DF808008DF80900E3
:101660004FF4602003900020049005208DF81400B2
:1016700001A969484C3801F0D0F84FF4404000F01F
:10168000A1FD052301220A2163484C3801F05DF9D0
:10169000052302220B2160484C3801F056F905233E
:1016A00003220D215C484C3801F04FF90523042238
:1016B0000E2159484C3801F048F905231A460F21EC
:1016C00055484C3801F041F9012153484C3801F09C
:1016D000DBF8012150484C3801F0CBF84E484C382B
:1016E00001F0E9F800BF4C484C3801F0E9F8002857
:1016F000F9D149484C3801F0EDF800BF46484C3864
:1017000001F0EDF80028F9D1012143484C3801F0EF
:10171000F0F811B000BD10B5FFF75AFFFFF76EFFEC
:1017200010BD2DE9F0470646002400278325A0467A
:101730003B480168304602F004FC01D2394E0BE010
:10174000681E374A52F82010304602F07BFB03D265
:10175000681E334951F82060002446E0304850F8B4
:101760002410304602F06EFB3ED22D4A601C52F827
:101770002010304602F0E5FB36D8294850F82410F6
:10178000304602F02BFB04D1274830F91400BDE8A5
:10179000F087234A601C52F82010304602F01EFBEE
:1017A00004D12149601C31F91000F0E71C4850F8C1
:1017B0002410304602F0F6FB8146194A601C52F8AC
:1017C0002010304602F0F8FB80464146484602F0C1
:1017D000B8FB03D8144830F9147003E01249601CB8
:1017E00031F910703846D2E7641C832CB6D34FF021
:1017F000FF30CCE7094800880C490880074840883A
:1018000048800648808888800448C088C88070471F
:1018100000100140080002404C2401404008002014
:101820007C0100203188E642740000206C0000201A
:101830005A4840895A4908800846007800F001005B
:1018400018B100205749086002E00120554908609E
:101850005348007800F00200022803D100205249CA
:10186000086002E00120504908604D48007800F00F
:101870000400042804D100204A49091F086003E03D
:1018800001204849091F08604548007800F0080019
:10189000082804D1002043491039086003E00120E2
:1018A0004049103908603E48007800F010001028C8
:1018B00004D100203C49091F086003E001203A4997
:1018C000091F08603648007800F02000202804D165
:1018D000002035490839086003E001203249083901
:1018E00008602F48007800F04000402804D1002014
:1018F0002D490C39086003E001202B490C390860A0
:101900002748007800F08000802804D10020264974
:101910001039086003E0012023491039086020488D
:10192000008800F48070B0F5807F03D100201F494B
:10193000086002E001201D4908601948008800F491
:101940000070B0F5007F04D100201849091F08601D
:1019500003E001201549091F08601148008800F4C0
:101960008060B0F5806F04D100201049083908600C
:1019700003E001200D49083908600948008800F497
:101980000060B0F5006F04D1002008490C390860F0
:1019900003E0012005490C3908607047A4030020CA
:1019A00088030020B0012142A8012242BC812142CB
:1019B00010B56FF0040000F066F92D4800682D495D
:1019C000B0FBF1F02C4908700846007840F2712114
:1019D00048434FF6FF7101EA00102849088010BD06
:1019E0000146254A12784A434FF0E0235A6100220B
:1019F0009A611A46126942F001021A6100BF4FF063
:101A0000E022106900F001021AB100F48032002ACD
:101A1000F5D04FF0E022126922F001024FF0E023EE
:101A20001A6100229A6170470146144A12884A439B
:101A30004FF0E0235A6100229A611A46126942F07F
:101A400001021A6100BF4FF0E022106900F00102AC
:101A50001AB100F48032002AF5D04FF0E02212696A
:101A600022F001024FF0E0231A6100229A617047D0
:101A70000000002000127A008A0300208C0300205E
:101A80003C48806940F004003A4988613A4800685F
:101A90003A49084038490860084600683849084310
:101AA000354908604FF6FF70334908310860314806
:101AB000806940F008002F49886132480068324947
:101AC00008403049086008460068304908432D49FD
:101AD0000860081D006800F47F40091D0860084682
:101AE00000682B4908432749091D08604FF6FF701D
:101AF00024490C3108601F48806940F010001D49DE
:101B00008861244800682449084022490860084642
:101B10000068224908431F490860084640686FF37F
:101B200013004860084640681D4908431949486049
:101B30004FF6FF70C8600F48806940F020000D49E3
:101B400088611848006820F47060164908600846EB
:101B5000006840F40060086012480C30006880B2F1
:101B600010490C310860704730BF704772B670473B
:101B700062B670470010024004080140F00FF0FF09
:101B800003300300000C014000FF0FFF3380800092
:101B9000880033330010014000FFFF00880000334D
:101BA0003383080000140140094880470948004772
:101BB000FEE7FEE7FEE7FEE7FEE7FEE7FEE7FEE7FD
:101BC000FEE7FEE704480549054A064B704700005A
:101BD0009303000831010008B0080020B00E002077
:101BE000B00A0020B00A002031490143314A116097
:101BF000704770B5002100230F22C47804B32D4C28
:101C0000246804F4E064C4F5E064210AC1F104032B
:101C1000CA40447804FA03F184781440214309014E
:101C2000254C0678A155047804F01F050124AC402A
:101C300005786D11AD0005F1E025C5F8004109E01A
:101C4000047804F01F050124AC401C4D0678761181
:101C500045F8264070BD1A4A0A400243154B1B1F27
:101C60001A60704739B1134A121D12680243114BB2
:101C70001B1D1A6006E00F4A121D126882430D4BAD
:101C80001B1D1A607047042808D14FF0E021096934
:101C900041F004014FF0E022116107E04FF0E02134
:101CA000096921F004014FF0E02211617047000042
:101CB0000000FA050CED00E000E400E080E100E047
:101CC00080FFFF1F10B50446CC48844208D1012193
:101CD000042000F02DFB0021042000F029FB46E049
:101CE000C748844208D10121082000F021FB0021CF
:101CF000082000F01DFB3AE0C248844208D10121CF
:101D0000102000F015FB0021102000F011FB2EE048
:101D1000BD48844208D10121202000F009FB0021A8
:101D2000202000F005FB22E0B848844208D10121C0
:101D3000402000F0FDFA0021402000F0F9FA16E002
:101D4000B348844208D10121802000F0F1FA00213B
:101D5000802000F0EDFA0AE0AE48844207D101216C
:101D6000801500F0E5FA0021A01500F0E1FA10BDA1
:101D700010B50121084600F0DBFA0021012000F037
:101D8000D7FA10BD2DE9F0410246002500260020BB
:101D900000230024002791F803C00CF00F0591F8F0
:101DA00003C00CF0100CBCF1000F03D091F802C07E
:101DB0004CEA050591F800C0BCF1000F31D0146861
:101DC00000202BE04FF0010C0CFA00F3B1F800C03A
:101DD0000CEA03069E4220D183004FF00F0C0CFA50
:101DE00003F7BC4305FA03FC4CEA040491F803C072
:101DF000BCF1280F06D14FF0010C0CFA00FCC2F820
:101E000014C00AE091F803C0BCF1480F05D14FF0AF
:101E1000010C0CFA00FCC2F810C0401C0828D1D3F9
:101E20001460B1F800C0BCF1FF0F34DD546800202D
:101E30002EE000F1080C4FF0010808FA0CF3B1F89D
:101E400000C00CEA03069E4221D183004FF00F0C24
:101E50000CFA03F7BC4305FA03FC4CEA040491F8BE
:101E600003C0BCF1280F05D100F1080C08FA0CF8EA
:101E7000C2F8148091F803C0BCF1480F07D100F1FB
:101E8000080C4FF0010808FA0CF8C2F81080401C4A
:101E90000828CED35460BDE8F0814FF6FF71018071
:101EA000022181700421C1707047024600209368AE
:101EB0000B400BB1012000E000207047014688680C
:101EC00080B2704702460020D3680B400BB101205E
:101ED00000E0002070470146C86880B27047016189
:101EE0007047416170470AB1016100E0416170478C
:101EF000C16070474FF480320A4382618161826120
:101F000082698269704702460020434B18684FF689
:101F10008073184040EA021008433F4B1860704736
:101F20003E49C8617047F0B50A46002300240021ED
:101F3000002500F00046B6F1004F02D1364EF1699F
:101F400001E0354E7168C0F3034583B200F44016DA
:101F5000B6F5401F08D121F070612F4E766826F04B
:101F600070662D4F7E6012E000F48016B6F5801F7B
:101F700006D1032606FA05F4A14341F0706106E09C
:101F8000460D360103FA06F6B14341F0706122B105
:101F9000460D360103FA06F6314300F00046B6F16D
:101FA000004F02D11C4EF16101E01B4E7160F0BD8B
:101FB00030B500228B071C0F0F2303FA04F2164BD7
:101FC00008338C1053F824309343134C08348D108D
:101FD00044F8253023468C1053F824308C07240F06
:101FE00000FA04F423430C4C08348D1044F82530D7
:101FF00030BD0A49DC31086070470000000801402C
:10200000000C014000100140001401400018014084
:10201000001C01400020014000000140000020425F
:10202000DF48006840F00100DD490860084640686C
:10203000DC490840DA49486008460068DA49084047
:10204000D74908600846006820F4802008600846E8
:10205000406820F4FE0048604FF41F00886070471D
:10206000CF49096821F48031CD4A116011460968D1
:1020700021F480211160B0F5803F03D0B0F5802FAE
:102080000ED106E0C649096841F48031C44A1160A6
:1020900007E0C349096841F4A021C14A116000E08A
:1020A00000BF00BF704710B501460022002300208A
:1020B0004A11012A02D1BA4C236806E0022A02D151
:1020C000B74C236A01E0B64C636A01F01F02012499
:1020D00094401C400CB1012000E0002010BD38B538
:1020E000002000900024002500BF3120FFF7DBFF17
:1020F00005460098401C00900098B0F5A06F01D0F4
:10210000002DF2D03120FFF7CEFF08B1012400E00E
:102110000024204638BD01460020A14A106820F066
:10212000F80040EAC10010607047A049086070479D
:10213000024600209A4B586820F47C1042EA0103C2
:102140001843974B58607047984908667047014696
:102150000020934A506820F0030008435060704705
:102160008F48406800F00C007047014600208C4A00
:10217000506820F0F000084350607047014600208E
:10218000874A506820F4E060084350607047014679
:102190000020834A506820F4605040EAC10050603B
:1021A000704729B17E4A527A02437D4B5A7204E04D
:1021B0007B4A527A82437A4B5A7270477B49D831B4
:1021C0000860704701460020754A506820F440407E
:1021D0000843506070470021714A20321170704AE4
:1021E00082F82010012802D004280AD104E001213D
:1021F0006B4A2032117005E00521694A20321170C6
:1022000000E000BF00BF704769490860704764493B
:10221000096A0143624A116270476549443908609E
:10222000704730B500210022002400235C4D6D680A
:1022300005F00C0121B1042905D0082923D105E0BE
:102240005C4D056022E05B4D05601FE0544D6D68FC
:1022500005F47012524D6D6805F48034022505EBCB
:1022600092421CB9544D554305600BE04C4D6D68CE
:1022700005F400351DB1504D5543056002E04D4D4C
:102280005543056002E04B4D056000BF00BF444D63
:102290006D6805F0F0010909484D6B5C0568DD408B
:1022A00045603F4D6D6805F4E061090A434D6B5C84
:1022B0004568DD4085603A4D6D6805F46051C90A96
:1022C0003E4D6B5C4568DD40C560354D6D6805F47D
:1022D0004041890B3A4D6B5CC568B5FBF3F5056170
:1022E00030BD29B12E4A526902432D4B5A6104E098
:1022F0002B4A526982432A4B5A61704729B1284AB6
:1023000092690243264B9A6104E0254A926982430E
:10231000234B9A61704729B1214AD2690243204B6D
:10232000DA6104E01E4AD26982431D4BDA617047CC
:1023300029B11B4AD2680243194BDA6004E0184AFB
:10234000D2688243164BDA60704729B1144A126989
:102350000243134B1A6104E0114A12698243104B85
:102360001A61704712494039086070470F49C864C4
:1023700070470B49C87170470948406A40F0807047
:1023800007494862704701460020054A92680A40A2
:102390000AB1012000E000207047014988727047AF
:1023A000001002400000FFF8FFFFF6FE000042426E
:1023B0008004424200127A0000093D008E03002092
:1023C0009E03002010B50446FB48844209D1012138
:1023D0008803FFF7ADFF00214FF48040FFF7A8FF0F
:1023E00032E0F648844209D101214804FFF7ADFFED
:1023F00000214FF40030FFF7A8FF25E0F0488442A9
:1024000009D101218804FFF7A0FF00214FF48020AB
:10241000FFF79BFF18E0EB48844209D10121C80473
:10242000FFF793FF00214FF40020FFF78EFF0BE032
:10243000E548844208D101210805FFF786FF002105
:102440004FF48010FFF781FF10BD2DE9F04786B0F3
:1024500005460E460024A24600BFA1460027B089CB
:1024600000B100BF2F462C8A4CF6FF700440F08864
:1024700004432C82AC894EF6F3100440B0883189B5
:102480000843718908430443AC81AC8A4FF6FF408E
:102490000440B0890443AC8201A8FFF7C2FEC648DD
:1024A000874202D1DDF810A001E0DDF80CA0A88978
:1024B00000F4004040B10AEBCA0000EB0A1031689A
:1024C0004900B0FBF1F807E00AEBCA0000EB0A1084
:1024D00031688900B0FBF1F86420B8FBF0F004012A
:1024E0002009642101FB1089A88900F4004040B153
:1024F000322000EBC900B0FBF1F000F0070004430C
:1025000008E0322000EB09106421B0FBF1F000F08C
:102510000F0004432C8106B0BDE8F0874FF416513C
:10252000016000218180C18001810C214181002155
:102530008181704710B502460020108A4FF2FF03D8
:1025400018400B884C8823438C882343CC88234332
:102550001843108210BD0021018041808180C1801C
:10256000704721B1828942F40052828104E082895D
:102570004DF6FF731A4082817047F0B50346002480
:1025800000260025002040F66A17B94200D100BF9E
:102590001846C1F3421401F01F06012707FA06F599
:1025A000012C01D10C3004E0022C01D1103000E0EC
:1025B00014301AB107682F43076002E00768AF4381
:1025C0000760F0BD1AB1838A0B43838202E0838ADD
:1025D0008B4383827047028A4FF6F0731A4002825F
:1025E000028A0A430282704782894FF2FF731A40BF
:1025F000828182890A438281704721B1828942F0B7
:102600000202828104E082894FF6FD731A408281C2
:102610007047028A4FF6DF731A400282028A0A4329
:102620000282704721B1028A42F48042028204E0B1
:10263000028A4BF6FF731A4002827047C1F3080208
:102640008280704701468888C0F3080070478189FE
:1026500041F0010181817047028BD2B20283028B6B
:1026600042EA012202837047028B02F47F42028316
:10267000028B0A430283704721B1828A42F0200212
:10268000828204E0828A4FF6DF731A4082827047AA
:1026900021B1828A42F01002828204E0828A4FF6DF
:1026A000EF731A408282704721B1828A42F0080299
:1026B000828204E0828A4FF6F7731A408282704762
:1026C00021B1828942F40042828103E08289C2F30F
:1026D0000E028281704721B1828A42F400628282B6
:1026E00004E0828A4FF2FF731A4082827047828A26
:1026F0004FF6FB731A408282828A0A4382827047B5
:1027000021B1828A42F00202828204E0828A4FF67C
:10271000FD731A408282704702460020B1F5007FA7
:1027200000D100BF13880B400BB1012000E0002056
:10273000704701F40072B2F5007F00D100BFCA43B8
:102740000280704770B50246002400230025002057
:1027500040F66A16B14200D100BFC1F3421501F044
:102760001F03012606FA03F3012D02D19689334097
:1027700006E0022D02D1168A334001E0968A3340EA
:102780000C12012606FA04F41688344013B10CB179
:10279000012000E0002070BD10B50022002340F6AB
:1027A0006A14A14200D100BF0A1201249440A3B2CE
:1027B000DC43048010BD00000038014000440040AC
:1027C00000480040004C00400050004010B5044656
:1027D000FA48844208D101214015FFF7A9FD0021E4
:1027E0006015FFF7A5FD17E0F548844208D10121E7
:1027F0000015FFF79DFD00212015FFF799FD0BE067
:10280000F048844208D10121C803FFF791FD00215F
:102810004FF40040FFF78CFD10BD30B5024600209C
:1028200000235068E84C20400D790C6844EA0524E8
:10283000204350609068E54C2040D1E902542C437D
:102840004D7944EA450420439060D06A20F470003A
:102850000C7C641EE4B2234340EA0350D06230BDD6
:1028600000210160017141718160C1600121017429
:10287000704721B1826842F00102826003E0826801
:1028800022F001028260704721B1826842F48072B6
:10289000826003E0826822F480728260704710B523
:1028A0000023CBB21AB144681C43446002E0446880
:1028B0009C43446010BD816841F00801816070470D
:1028C000014600208A6802F008020AB1012000E0F7
:1028D00000207047816841F0040181607047014623
:1028E00000208A6802F004020AB1012000E0002002
:1028F000704721B1826842F4A002826003E08268DE
:1029000022F4A00282607047014600208A6802F427
:1029100080020AB1012000E00020704710B50A468D
:1029200000210023416821F46041531E41EA4331F4
:10293000416010BD21B1426842F40062426003E090
:10294000426822F4006242607047F0B504460D46CA
:1029500000200021092D11DDE068A5F10A0606EB33
:102960004607072606FA07F18843A5F10A0606EB93
:10297000460603FA06F10843E0600CE0206905EB27
:102980004507072606FA07F1884305EB450603FAD3
:1029900006F108432061072A0FDA606B561E06EB2A
:1029A00086071F2606FA07F18843561E06EB8606A1
:1029B00005FA06F10843606322E00D2A0FDA206B66
:1029C000D61F06EB86071F2606FA07F18843D61F97
:1029D00006EB860605FA06F10843206310E0E06A7C
:1029E000A2F10D0606EB86071F2606FA07F18843BB
:1029F000A2F10D0606EB860605FA06F10843E06231
:102A0000F0BD21B1826842F48012826003E08268E6
:102A100022F48012826070470146C86C80B2704711
:102A200066484C300068704721B1426842F48062C9
:102A3000426003E0426822F480624260704721B144
:102A4000426842F48052426003E0426822F48052BD
:102A5000426070470A460021816821F4E041114339
:102A60008160704721B1826842F40042826003E0D5
:102A7000826822F400428260704721B1826842F489
:102A80000212826003E0826822F4021282607047C0
:102A9000014600208A6802F400120AB1012000E019
:102AA00000207047F0B5044615460020002200269D
:102AB000092911DDE068A1F10A0707EB470C072798
:102AC00007FA0CF29043A1F10A0707EB470703FA54
:102AD00007F21043E0600CE0206901EB410C07278E
:102AE00007FA0CF2904301EB410703FA07F2104397
:102AF0002061A06BC0F30156EF1C06F1010CA7EB9F
:102B00000C0707EB870C1F2707FA0CF29043EF1C0A
:102B100006F1010CA7EB0C0707EB870701FA07F298
:102B20001043A063F0BD10B50A4600210023816B5D
:102B300021F44011531E41EA0351816310BD08B5D1
:102B4000002300930090009B0B440093009B1A60AD
:102B500008BD08B5024600200090009201F128004F
:102B6000009B184400900098006880B208BD0A4697
:102B700000214168164B1940114341607047416282
:102B8000826270470A460021416821F01F0111430B
:102B90004160704740B109490831096841F40001BA
:102BA000064A0832116007E004490831096821F437
:102BB0000001024A08321160704700000024014001
:102BC00000280140003C0140FFFEF0FFFDF7F1FF4F
:102BD000FFFD3FFF0246002013680B400BB10120B0
:102BE00000E000207047CA430260704770B502469B
:102BF0000020002300240B125568CEB205EA06041B
:102C000015681D4015B10CB1012000E0002070BD19
:102C100000220A12D34303607047000010B5044637
:102C2000FE48844208D10121C014FFF781FB002136
:102C3000E014FFF77DFBC4E0B4F1804F08D101211F
:102C40000846FFF782FB00210120FFF77EFBB8E07A
:102C5000F348844208D101210220FFF776FB0021CE
:102C60000220FFF772FBACE0EE48844208D101215C
:102C70000420FFF76AFB00210420FFF766FBA0E0B9
:102C8000E948844208D101210820FFF75EFB0021BA
:102C90000820FFF75AFB94E0E448844208D1012160
:102CA0001020FFF752FB00211020FFF74EFB88E0B9
:102CB000DF48844208D101212020FFF746FB002194
:102CC0002020FFF742FB7CE0DA48844208D1012152
:102CD0004014FFF72DFB00216014FFF729FB70E083
:102CE000D548844209D10121C804FFF721FB002106
:102CF0004FF40020FFF71CFB63E0D048844209D169
:102D000001210805FFF714FB00214FF48010FFF7A5
:102D10000FFB56E0CA48844209D101214805FFF75C
:102D200007FB00214FF40010FFF702FB49E0C54804
:102D3000844208D101214020FFF707FB00214020F9
:102D4000FFF703FB3DE0C048844208D10121802009
:102D5000FFF7FBFA00218020FFF7F7FA31E0BB48CC
:102D6000844208D101218015FFF7EFFA0021A01558
:102D7000FFF7EBFA25E0B648844209D101210804A7
:102D8000FFF7D6FA00214FF48030FFF7D1FA18E0B0
:102D9000B048844209D101214804FFF7C9FA002153
:102DA0004FF40030FFF7C4FA0BE0AB48844208D17F
:102DB00001218804FFF7BCFA00214FF48020FFF7BF
:102DC000B7FA10BD00220288944B98420ED0994B5E
:102DD00098420BD0B0F1804F08D0914B984205D06B
:102DE000904B984202D0904B984204D14FF68F738B
:102DF0001A404B881A438D4B984207D08C4B98420F
:102E000004D04FF6FF431A40CB881A4302808B88C8
:102E100083850B880385814B98420BD0854B984264
:102E200008D08B4B984205D08A4B984202D08A4BEF
:102E3000984201D10B7A038601238382704770B5D3
:102E4000002400220023058C4FF6FE7635400584D1
:102E5000028C8388048B4FF68F752C40B51E2C4056
:102E60000D882C43751E2A400D892A434D882A431C
:102E70006A4DA8420BD06F4DA84208D0744DA842AD
:102E800005D0744DA84202D0734DA84213D14FF61D
:102E9000F7752A404D892A434FF6FB752A408D88E5
:102EA0002A434FF6FF652B404FF6FF552B408D8987
:102EB0002B43CD892B4383800483CD888586028470
:102EC00070BD70B5002400220023058C4FF6EF760C
:102ED00035400584028C8388048B48F6FF752C40AE
:102EE0004FF6FF452C400D884FF6FF7606EA052584
:102EF0002C434FF6DF752A400D8906EA05152A4353
:102F00004D8806EA05152A43444DA84202D0494D92
:102F1000A8421DD14FF67F752A404D894FF6FF76A6
:102F200006EA05152A434FF6BF752A408D8806EA42
:102F300005152A434FF6FF352B404FF2FF752B4006
:102F40008D8906EA85052B43CD8906EA85052B4345
:102F500083800483CD880587028470BD70B500240A
:102F600000220023058C4FF6FF6635400584028C55
:102F70008388848B4FF68F752C404FF6FC752C4060
:102F80000D882C434FF6FF552A400D894FF6FF76EA
:102F900006EA05252A434D8806EA05252A431F4DE2
:102FA000A84202D0234DA8421DD14FF2FF752A40FE
:102FB0004D894FF6FF7606EA05252A434FF6FF3581
:102FC0002A408D8806EA05252A434EF6FF752B40D8
:102FD0004DF6FF752B408D8906EA05152B43CD89EB
:102FE00006EA05152B4383808483CD888587028478
:102FF00070BD70B5002200230024058C4EF6FF76CC
:1030000035400584038C8488828B48F6FF752A40FE
:103010004FF6FF452A400D8820E00000002C0140BB
:103020000004004000080040000C00400010004078
:103030000014004000340140004C014000500140A9
:103040000054014000180040001C004000200040D7
:103050000040014000440140004801404FF6FF7627
:1030600006EA05252A434DF6FF752B400D8906EA31
:1030700005352B434D8806EA05352B43FA4DA8420A
:1030800002D0FA4DA84208D14BF6FF752C408D892D
:103090004FF6FF7606EA85152C4384808283CD881F
:1030A000A0F84050038470BD828B4FF2FF331A406A
:1030B0008283828B4FF6FF7303EA01231A438283D4
:1030C0007047F0B50C461546002200210026078CFB
:1030D0004EF6FF7C07EA0C070784828B018C4FF6C3
:1030E000FF7707EA043640F6FF473A404FF6FF778E
:1030F00007EA05273A434FF6FF7707EA03373A43D3
:10310000D94FB8420ED0D94FB8420BD0B0F1804F52
:1031100008D0D74FB84205D0D64FB84202D0D64FCC
:10312000B84206D14DF6FF77394046F4805739430F
:1031300005E047F6FF57394044F48057394382830E
:103140000184F0BD828B4FF6F3731A408283828B29
:103150000A4382837047F0B50C46154600220021D1
:103160000026078C4FF6FF6C07EA0C070784828B5A
:10317000018C4FF6FF7707EA04264FF60C773A40AA
:103180004FF6FF7707EA03172F433A43B64FB8428B
:103190000ED0B64FB8420BD0B0F1804F08D0B44F2C
:1031A000B84205D0B34FB84202D0B34FB84206D1AF
:1031B0004FF6FF57394046F48077394305E04FF228
:1031C000FF57394044F48077394382830184F0BD4E
:1031D000028B4FF2FF331A400283028B4FF6FF73CC
:1031E00003EA01231A4302837047F0B50C461546E3
:1031F000002200210026078C4FF6EF7C07EA0C071F
:103200000784028B018C4FF6FF7707EA041640F61D
:10321000FF473A404FF6FF7707EA03373A434FF646
:10322000FF7707EA05273A438F4FB8420ED08F4FFA
:10323000B8420BD0B0F1804F08D08D4FB84205D0C6
:103240008C4FB84202D08C4FB84206D14FF6DF7790
:10325000394046F01007394305E04FF65F773940B3
:1032600044F01007394302830184F0BD028B4FF60E
:10327000F3731A400283028B0A4302837047F0B54E
:103280000C46154600220021068C4FF6FE773E4084
:103290000684028B018C4FF60C7632407E1C06EAC7
:1032A00003162E433243704EB0420ED06F4EB042E2
:1032B0000BD0B0F1804F08D06D4EB04205D06D4EAE
:1032C000B04202D06C4EB04206D14FF6FD7631408E
:1032D00044F00106314305E04FF6F576314044F005
:1032E0000106314302830184F0BD70B505460C46EA
:1032F0005D4885420ED05D4885420BD0B5F1804FC8
:1033000008D05B48854205D05A48854202D05A48C9
:10331000854200D100E000BF208850B92389A288EF
:1033200061882846FFF7ABFFE1882846FFF79EFF3C
:1033300025E0208804280AD12389A28861882846AC
:10334000FFF753FFE1882846FFF742FF17E0208888
:1033500008280AD12389A28861882846FFF7FBFE46
:10336000E1882846FFF7EEFE09E02389A2886188FC
:103370002846FFF7A6FEE1882846FFF795FE70BDB8
:103380002DE9F04105460C4600260127608808B962
:10339000022600E00026A088012801D1022700E0D3
:1033A00001272088A0B92389A28861882846FFF7D1
:1033B00066FFE1882846FFF759FF23893A463146E0
:1033C0002846FFF712FFE1882846FFF701FF13E0C8
:1033D0002389A28861882846FFF707FFE1882846ED
:1033E000FFF7F6FE23893A4631462846FFF747FFA6
:1033F000E1882846FFF73AFFBDE8F0810A884B884C
:103400001A438B881A43CB881A430B891A434B897A
:103410001A438B891A43A0F8442070474FF6FF7176
:10342000818000210180C1804180017270470021AC
:10343000018041808180C180018141818181C18180
:103440007047002101804180012181800021C180DD
:10345000018170470021018041808180C18001810C
:103460004181818170470000002C014000340140FF
:103470000004004000080040000C004021B1028818
:1034800042F00102028004E002884FF6FE731A4007
:103490000280704731B1B0F8442042F40042A0F8F5
:1034A000442005E0B0F84420C2F30E02A0F8442006
:1034B00070471AB183890B43838102E083898B4370
:1034C000838170478182704741EA0203A0F8483047
:1034D00070471AB183890B43838102E083898B4350
:1034E0008381704701894FF6F8721140018170475E
:1034F0000A46002101894FF68F731940114301815B
:10350000704730B504460D4629462046FFF7F0FFC8
:10351000208940F00700208130BD2DE9F0410446AC
:103520000D4616461F46602D06D13B460122314608
:103530002046FFF75AFE05E03B4601223146204671
:10354000FFF79DFE29462046FFF7D2FF208940F075
:1035500007002081BDE8F08130B50C4600210189CB
:10356000C9B24FF6FF7505EA0325154325432943E4
:10357000018130BD2DE9F04105460E4617469846BB
:10358000002443463A4631462846FFF7E5FF2C899A
:103590004FF6F870044044F007044FF68F70044073
:1035A00044F070042C81BDE8F081F0B504460D466E
:1035B00016461F463B46324629462046FFF7CCFFBB
:1035C000208940F480402081F0BD018582827047CF
:1035D0000A46002101884FF68F731940114301807C
:1035E0007047F0B50C4615461E4600210022002308
:1035F0000189028B038C4FF6F877394021434FF64F
:10360000FC473A4040F201173A434FF6DD773B4022
:103610004FF6FF7707EA06172F433B4301810283EA
:103620000384F0BD0A460021018B4FF68F731940C9
:103630001143018370470A460021018B48F6FF734E
:1036400019404FF6FF7303EA0223194301837047C1
:103650000A460021818B4FF68F73194011438183F5
:1036600070470A460021818B48F6FF7319404FF6D8
:10367000FF7303EA022319438183704721B1028853
:1036800042F08002028004E002884FF67F731A4005
:103690000280704721B1828842F00402828004E0F7
:1036A00082884FF6FB731A408280704721B182886E
:1036B00042F00802828004E082884FF6F7731A40D5
:1036C0008280704721B1828842F00102828004E04A
:1036D00082884FF6FE731A40828070470A460021A6
:1036E000018B4FF6F77319401143018370470A4667
:1036F0000021018B4FF2FF7319404FF6FF7303EA6D
:1037000002231943018370470A460021818B4FF63B
:10371000F77319401143818370470A460021818B5A
:103720004FF2FF7319404FF6FF7303EA0223194368
:10373000818370470A460021018B4FF6FB731940C5
:103740001143018370470A460021018B4FF6FF3376
:1037500019404FF6FF7303EA0223194301837047B0
:103760000A460021818B4FF6FB7319401143818378
:1037700070470A460021818B4FF6FF3319404FF600
:10378000FF7303EA02231943818370470A4600212D
:10379000018B4FF67F7319401143018370470A462E
:1037A0000021018BC1F30E014FF6FF7303EA0223E0
:1037B0001943018370470A460021818B4FF67F73BE
:1037C00019401143818370470A460021818BC1F360
:1037D0000E014FF6FF7303EA0223194381837047FA
:1037E0000A460021018C4FF6FD73194011430184F4
:1037F00070470A460021018C4FF6F77319401143B8
:10380000018470470A460021018C4FF6DF7319408E
:103810004FF6FF7303EA02131943018470470A4607
:103820000021018C4FF67F7319404FF6FF7303EAB6
:1038300002131943018470470A460021018C4FF698
:10384000FF5319404FF6FF7303EA02231943018423
:1038500070470A460021018C4FF2FF7319404FF662
:10386000FF7303EA02231943018470470A460021CB
:10387000018C4DF6FF7319404FF6FF7303EA0233D4
:1038800019430184704730B5002301248C40A3B252
:10389000048C9C430484048C02FA01F5ADB22C43E1
:1038A000048430BD30B5002304248C40A3B2048CC2
:1038B0009C430484048C02FA01F5ADB22C430484C9
:1038C00030BD70B50346002000241846183001258D
:1038D0008D40ACB21D8CA5431D8409B1082909D1C6
:1038E00000EB6100056825F070050560056815436B
:1038F00005600EE00D1FC5F34E052844056825F44C
:10390000E045056005684FF6FF7606EA0226354376
:10391000056070BD21B1028842F00202028004E01D
:1039200002884FF6FD731A400280704721B1028869
:1039300042F00402028004E002884FF6FB731A4052
:103940000280704721B1828842F08002828004E0C8
:1039500082884FF67F731A408280704702884FF644
:10396000F7731A40028002880A43028070478288F7
:103970004FF68F731A40828082880A438280704794
:1039800002894FF6F8731A40028102890A430281C4
:10399000704702894FF67F731A40028102890A43F9
:1039A00002817047818470478185704781867047A6
:1039B0000187704781877047A0F8401070470288E0
:1039C0004FF6FF431A40028002880A430280704784
:1039D0000146888E70470146088F70470146888FE0
:1039E00070470146B1F8400070470146888C704727
:1039F0000146088D704702460020138A0B400BB128
:103A0000012000E000207047CA430282704730B5B1
:103A10000246002000230024158A05EA0103958947
:103A200005EA010413B10CB1012000E0002030BD13
:103A3000CA4302827047000001684FF6FE721140CF
:103A400001600021016041608160C1608D49884250
:103A500008D18C490839496841F00F01894A083A70
:103A600051608AE087491431884208D18549083974
:103A7000496841F0F001834A083A51607DE081498C
:103A80002831884208D17F490839496841F470617A
:103A90007C4A083A516070E07A493C31884208D14A
:103AA00078490839496841F47041764A083A5160CA
:103AB00063E074495031884208D172490839496835
:103AC00041F470216F4A083A516056E06D49643103
:103AD000884208D16B490839496841F47001694A44
:103AE000083A516049E067497831884208D1654910
:103AF0000839496841F07061624A083A51603CE017
:103B00006149884206D1011F096841F00F01021F77
:103B1000116032E05C491431884208D15A49091FCA
:103B2000096841F0F001584A121F116025E056491A
:103B30002831884208D15449091F096841F470614D
:103B4000514A121F116018E04F493C31884208D198
:103B50004D49091F096841F470414B4A121F116019
:103B60000BE049495031884207D14749091F09688C
:103B700041F47021444A121F1160704710B50022B1
:103B8000026847F6F0739A430C6A8B6823430C690A
:103B900023434C6923438C692343CC6923434C6AF8
:103BA00023438C6A23431A430260CB6843600B684B
:103BB00083604B68C36010BD00210160416081607B
:103BC000C160016141618161C161016241628162E3
:103BD000704721B1026842F00102026004E002680D
:103BE0004FF6FE731A40026070471AB103680B4328
:103BF000036002E003688B430360704741607047D5
:103C00000146486880B2704701460020002201F05A
:103C100080531BB11C4B083B1A6802E0194B083B50
:103C20001A6802EA01030BB1012000E0002070478E
:103C300000F0805119B11449091F086002E01149D0
:103C400008394860704701460020002201F0805387
:103C50001BB10D4B083B1A6802E00A4B083B1A687F
:103C600002EA01030BB1012000E00020704700F0E0
:103C7000805119B10449091F086002E0014908395F
:103C800048607047080002400804024070477047CF
:103C90007047754600F028F8AE4605006946534661
:103CA00020F00700854618B020B5FDF78BFFBDE872
:103CB00020404FF000064FF000074FF000084FF093
:103CC000000B21F00701AC46ACE8C009ACE8C00924
:103CD000ACE8C009ACE8C0098D4670470446AFF3B4
:103CE00000802046FCF77BFA004870474C08002013
:103CF00001491820ABBEFEE7260002007047000015
:103D000090EA010F48BF81F0004100F15C81421A46
:103D10003CBF801A89184FEAD0524FF07F4C1CEA02
:103D2000410FA2EBD15318BF9CEA026F00F03B8019
:103D30004FF0004C4CEA00204CEA012121FA03FC30
:103D400010EB0C0C1ED202F1FF325FEA1C2040EB9C
:103D5000C25038BF70471CF07F0F4FEA400C18BFAD
:103D6000BCF17F4F38BF7047C3F12003994008BFB3
:103D700020F00100BCF17F4F38BF7047A0F1C04078
:103D800000F0DAB84FEA3C00000A40EBC25028BF0E
:103D90001CF0FF0F4FEA400CE6D018BFBCF17F4F7C
:103DA00038BF7047EAE79CEA026F05D010EA5C0F63
:103DB00008BF00F00040704710B500F077F800BF72
:103DC00064FBBE3E401058BFC0F14040491058BF90
:103DD000C1F140418142EFF30080704750EA010C8D
:103DE00000F113801CF5000F58BFBCF5000F01D483
:103DF0008842704707D710F5000F58BF11F5000F24
:103E000015D488427047894270471CF5000F04D5CD
:103E1000BCF5000FF7D5814270474FF0807C1CEB5A
:103E2000400F38BF1CEB410F01D28142704710B5E3
:103E300000F03CF8922449004FF000504FF08051C0
:103E4000FFF7C0BF50EA010C00F113801CF5000F12
:103E500058BFBCF5000F01D48842704707D710F552
:103E6000000F58BF11F5000F15D4884270478942E2
:103E700070471CF5000F04D5BCF5000FF7D5814243
:103E800070474FF0807C1CEB400F38BF1CEB410F9C
:103E900001D28142704710B500F008F89224490021
:103EA0004FF000504FF08051FFF78CBF0EF1020E23
:103EB0002EF0030E5EF8044B244204D44FEA410274
:103EC000B2F17F4F11D84FEA4003B3F17F4F0CD8C6
:103ED0000ED14FEAD07CB2F17F4F0CEB4C0C0CF1C1
:103EE000020C08BF4CEBD17C04E04FF0080C01E061
:103EF0004FEAD17C0CEB4C0324FA03F404F00704E2
:103F0000B4F1040C06D20EEB840CBDE810404CF06A
:103F1000010C6047DFE80CF0070802024FF0004098
:103F2000A0F5800010BD0846420018BFD2F1807293
:103F300088BF00F0004010BDFF2141EAD050C0050D
:103F4000704751EA000C00F113801CF5000F58BFB8
:103F5000BCF5000F01D48142704707D711F5000F5F
:103F600058BF10F5000F15D4814270478942704741
:103F70001CF5000F04D5BCF5000FF7D5884270473B
:103F80004FF0807C1CEB410F38BF1CEB400F01D27F
:103F90008842704780EA010081EA000180EA01005E
:103FA000FFF779BF80F0004090EA010F7FF5AFAED8
:103FB00081F0004100F007B890EA010F48BF81F09E
:103FC00000413FF5A4AE421A04D882F00042A0EBB3
:103FD000020011444FEAD0524FF07F4C1CEA410FCF
:103FE000A2EBD15318BF9CEA026F4AD04FF0004CAD
:103FF0004CEA00204CEA012121FA03FCB0EB0C0C46
:104000000FD412F0FE0F36D05FEA4C001DD500121F
:1040100040EBC25038BF70471CF03F0F18BF7047CD
:104020000BE0A2F101025FEA1C2040EBC25038BF56
:1040300070471CF07F0F18BF7047C3F120039940F1
:1040400014BF401E20F00100704780084FEA122381
:1040500008BF7047B0FA80FCA2EB0C02CCF1280C30
:1040600060FA0CF093EA122F04BF00EBC2507047C5
:104070004FEAC3707047130A5FEADC1008BF70474D
:10408000F6E79CEA026F04D010EA5C0F08BF00203C
:10409000704710B5FFF70AFF40DFF63E81F00040A1
:1040A000704700C1814001C0804101C0804100C112
:1040B000814001C0804100C1814000C1814001C0F8
:1040C000804101C0804100C1814000C1814001C0E8
:1040D000804100C1814001C0804101C0804100C1D8
:1040E000814001C0804100C1814000C1814001C0C8
:1040F000804100C1814001C0804101C0804100C1B8
:10410000814000C1814001C0804101C0804100C1A7
:10411000814001C0804100C1814000C1814001C097
:10412000804101C0804100C1814000C1814001C087
:10413000804100C1814001C0804101C0804100C177
:10414000814000C1814001C0804101C0804100C167
:10415000814001C0804100C1814000C1814001C057
:10416000804100C1814001C0804101C0804100C147
:10417000814001C0804100C1814000C1814001C037
:10418000804101C0804100C1814000C1814001C027
:10419000804100C1814001C0804101C0804100C117
:1041A000814000C0C101C30302C2C60607C705C5DE
:1041B000C404CC0C0DCD0FCFCE0E0ACACB0BC9094F
:1041C00008C8D81819D91BDBDA1A1EDEDF1FDD1D5F
:1041D0001CDC14D4D515D71716D6D21213D311D18F
:1041E000D010F03031F133F3F23236F6F737F535DF
:1041F00034F43CFCFD3DFF3F3EFEFA3A3BFB39F90F
:10420000F83828E8E929EB2B2AEAEE2E2FEF2DEDDE
:10421000EC2CE42425E527E7E62622E2E323E1214E
:1042200020E0A06061A163A3A26266A6A767A5655E
:1042300064A46CACAD6DAF6F6EAEAA6A6BAB69A9CE
:10424000A86878B8B979BB7B7ABABE7E7FBF7DBDDE
:10425000BC7CB47475B577B7B67672B2B373B1710E
:1042600070B05090915193535292965657975595DE
:1042700094549C5C5D9D5F9F9E5E5A9A9B5B99598E
:104280005898884849894B8B8A4A4E8E8F4F8D4D5E
:104290004C8C4484854587474686824243834181CE
:1042A00080400000C442000800000020A403000079
:1042B0006C01000800460008A40300200C0B00005D
:1042C000A80100089500A24A040A15010203040689
:1042D00007080901024B013029ECFFEDFFEEFFEF6B
:1042E000FFF0FFF1FFF2FFF3FFF4FFF5FFF6FFF73A
:1042F000FFF8FFF9FFFAFFFBFFFCFFFDFFFEFFFFEA
:10430000FF2E010002000300040005000600072E36
:10431000080009000A000B000C000D000E2E0F0013
:1043200010001100120013001400152E16001700C3
:10433000180019001A001B001C2E1D001E001F0073
:10434000200021002200232E240025002600270023
:10435000280029002A2E2B002C002D002E002F00D3
:104360003000312E32003300340035003600370083
:10437000382E39003A003B003C003D003E003F2E05
:10438000400041004200430044004500462E4700E3
:10439000480049004A004B004C004D2E4E004F0093
:1043A0005000510052005300542E55005600570043
:1043B000580059005A005B2E5C005D005E005F00F3
:1043C00060006100622E63006400650066006700A3
:1043D0006800694A6A006B006C006D006E30413104
:1043E00088E642C14AD842B408CB4242AFC0424AF2
:1043F0002CB3422170A8423B9F9E426F129542F01F
:10440000568C42FA2D8442371A7942E4D46A4244E7
:104410007A6142A7F95042B04345423D4A3A4230A0
:10442000673042E8592642AC4B1F4292CB144242BD
:10443000CF0C42BF4E05420C82FC41143FEF416756
:10444000C4E241BC05D74194F6CB41AC8BC1419449
:1044500087B441A779AE4148BFA54147839D41D963
:10446000BD95416D678E4109798741C0EC8041035C
:10447000787541BDE3694121B05E41A835544123BF
:104480004A4A41C9E540413B3841D1912F41DE9331
:10449000274110FF2041D5CF1841BFFD11416C8449
:1044A0000B41DD5E0541A110FF40B6F8F340B16D50
:1044B000E940CB67DF40A4DFD54085CECC40CB2D93
:1044C000C44073F4BB40C425B44053B3AC40289BF4
:1044D000A5406FD89E40A5669840894192404165AD
:1044E0008C40DDCD8640EE7781402FC078404F066E
:1044F0006F4056BC6540B1DC5C40D0615440F14631
:104500004C402B8744409A5F3D4089073640293F05
:104510002F40A9C12840F08A2240E1971C4036E58F
:1045200016407A701140EC340C40BA310740736386
:1045300002409B8FFB3FFAB8F23F6C3EEA3FB01B54
:10454000E23FD74CDA3FF2CDD23F679BCB3FEEB193
:10455000C43F410EBE3F6DADB73F338AB13F87A721
:10456000AB3F4738A53F9C8AA03F6A4D9B3F5743CE
:10457000963FC269913F0ABF8C3FE140883FA6ED5C
:10458000833FC2867F3FDC80773F54C66F3FE35353
:10459000683FB059E926613F213C5A3FEB90533FB9
:1045A0004F234D3F5FEF463F73F4403F452F3B3F66
:1045B000DC9D353F9B3D303FD80D2B3FF60B263F12
:1045C000FC35213FF4891C3FDD07183F22AB133F28
:1045D00010750F3F0B630B3F6974073F8BA6033FBA
:1045E00095F1FF3EFED4F83E62F3F13E3011010238
:1045F0000304010203040607080902040608000078
:0400000508000131BD
:00000001FF
